:100000000C9446000C94570D1895000018950000AC
:10001000189500001895000018950000189500002C
:10002000189500001895000018950000189500001C
:100030001895000018950000189500000C94890B85
:1000400018950000189500000C94C70A1895000038
:100050000C94A70D18950000189500001895000045
:100060000C945B0C18950000189500001895000082
:1000700018950000189500001895000018950000CC
:1000800018950000189500000C941A0C8FEF8DBF86
:10009000C0EDE8EB4E2E80E48EBFD0E4F0E45F2E9E
:1000A000A89584B7082E877F84BF88E1992780931D
:1000B000600090936000EEEFFFE3A0E0B1E08827DE
:1000C0008D933197E9F782E28093C40080E08093BA
:1000D000C50088E18093C10072E07093C00066247F
:1000E00000E012E12AE730E0A1E0B1E00D931D93BA
:1000F0002D933C93E0E0FF270081A9E0B1E00C9351
:10010000A9E0B1E00C9103FB16F00C948E00709105
:1001100005017068709305010C94930070910501BE
:100120007F77709305010E94F01370E07093B9001F
:1001300078E47093B80087E880937A0080E0809339
:100140007C0070917A007F7770937A0082E085BDA1
:1001500080E084BD882785BD78E376BD80E080930C
:10016000800084E08093810080918100887F80936B
:1001700081008CED9BE0909385008093840080E06B
:100180008093900081E08093910080919100887F1E
:100190008093910080E090E090939500809394008C
:1001A0003A9A3B9A3C983D98569A579AF89470918F
:1001B000050172607093050180E080931501439AF8
:1001C000A5E0B1E08C9187FB16F00C94F700EEEF00
:1001D000FAE20E94D1140E946B130E9477138EE002
:1001E000809312018AE0809313010E94D408429800
:1001F0005E9A5F9881E080930F0100910F010830B3
:1002000018F011F00C94140180E489B980E889B9E0
:100210008DE790E00E94E113AFE0B1E08C918F5F39
:100220008C9310F40C94FD000E94480270916E00B3
:10023000716070936E0070916F00716070936F00C9
:10024000709171007160709371008091C100806C39
:100250008093C10070917A00786070937A0080EF8B
:1002600080930E01AEE0B1E08C9184B982E180937D
:10027000120180910E01809313010E94D4080E9404
:10028000990270917A00706870937A0070917A0088
:10029000706470937A00709105017D7F7093050101
:1002A0007894A6E0B1E08C9186FB16F00C94BD0129
:1002B000709106017F7B709306013499FECF81E037
:1002C0008093910000916A01013311F00C946F0149
:1002D000349BFECF80919100887F809391000091A4
:1002E0006A01023311F00C947C013599FECF8091A4
:1002F0009100887F80939100ABE8B1E10D911C9152
:100300002227332740E050E061E070E00E944A1469
:10031000A9E9B1E10D931D932D933D93A9E9B1E1B5
:100320000D911D912D913C91A4E9B0E04D915C910E
:10033000662777270E94DA14A9E9B1E10D931D938E
:100340002D933D93A9E9B1E10D911D912D913C9122
:1003500040E150E060E070E00E948413A9E9B1E15F
:100360004D935D936D937D93A0EAB0E4E9E9F1E1EB
:100370000E94FA140E9463135F9AA6E0B1E08C9188
:1003800087FB16F00C94E901709106017F7770935A
:100390000601A5E0B1E08C9180FB16F00C94E7011A
:1003A000ADE0B1E0AD90BB24A9E6B1E0AA0CBB1C66
:1003B000AA0DBB1D8D919C91ADE7B1E08D939C93EF
:1003C00032E0ADE7B1E00E9472130C94E9010E94A3
:1003D0000809A5E0B1E08C9182FB16F00C9426028E
:1003E000709105017B7F7093050181E090E0AFE79C
:1003F000B1E08D939C93A9E8B1E14D915C91AFE799
:10040000B1E00D911C910417150718F011F00C9430
:100410002502AFE7B1E0AD90BD90A5E8B1E0AA0C30
:10042000BB1CAA0DBB1D8D919C91ADE7B1E08D93D6
:100430009C9332E0ADE7B1E00E947213AFE7B1E008
:100440000E940C1310F40C94FB015F9AA5E0B1E03C
:100450008C9186FB16F00C944602ADE9B1E10E9446
:10046000131340E050E060E070E0ADE9B1E10D91C0
:100470001D912D913C910E94E41411F00C944602C0
:10048000709105017F7B709305015E9A0C94510178
:10049000882785BD80919100887F8093910070911D
:1004A00005017F7D70930501709106017F77709340
:1004B0000601709105017F7B709305017091050124
:1004C000777F70930501709105017E7F7093050120
:1004D000709105017B7F70930501709106017F7B10
:1004E00070930601A5E0B1E08C9181FB16F40C94A9
:1004F0008A0280918100887F8093810080E08093D0
:1005000068018FE08093120180916801809313014C
:100510000E94D40880E090E0A1E8B1E08D939C9324
:1005200080E090E0ABE8B1E18D939C935E9A5F9A96
:1005300008950E94C7020E94A9020091680101303B
:1005400011F00C94A8020E94E80384E080938100DB
:10055000089581E00E94441488E0809312010E9473
:10056000E80800911301063011F40C94C1020E94B6
:100570004802E2E0FBE20E94D1140E946B130E9449
:10058000771381E0481A80E0580A2296089582E1A4
:10059000809312010E94E8088091130180930E015C
:1005A000AEE0B1E08C9184B98DE0809312010E949D
:1005B000E8088091130180930C0100910C01013037
:1005C00081E008F080E08F9300910C01083080E01A
:1005D00010F009F081E09F91892B882311F40C948D
:1005E000FD0288E080930C018DE0809312018091E0
:1005F0000C01809313010E94D40880E080930801CD
:10060000709105017F7D70930501709106017F77E0
:1006100070930601709105017F7B709305017091C5
:1006200005017E7F709305018FE0809312010E9487
:10063000E808809113018093680180E180931201A2
:100640000E94E808A3E1B1E08C91A3E8B1E08D93AA
:1006500088278C9398E0A3E8B1E00E94981481E188
:10066000809312010E94E808A3E8B1E00D911C916B
:10067000A3E1B1E04D915527042B152BA3E8B1E080
:100680000D931C9300E010E020E030E0A1E9B1E11F
:100690000D931D932D933C938CE0809312010E9447
:1006A000E808A1E9B1E10D911D912D913C91A3E1E3
:1006B000B1E04C915527662777270E94DA14A1E90B
:1006C000B1E10D931D932D933D9398E0A1E9B1E124
:1006D0000E94A3148BE0809312010E94E808A1E914
:1006E000B1E10D911D912D913C91A3E1B1E04C91AF
:1006F0005527662777270E94DA14A1E9B1E10D9307
:100700001D932D933D9398E0A1E9B1E10E94A314BC
:100710008AE0809312010E94E808A1E9B1E10D91FD
:100720001D912D913C91A3E1B1E04C915527662795
:1007300077270E94DA14A1E9B1E10D931D932D935F
:100740003D9398E0A1E9B1E10E94A31489E0809370
:1007500012010E94E808A1E9B1E10D911D912D91CE
:100760003C91A3E1B1E04C915527662777270E9481
:10077000DA14A1E9B1E10D931D932D933D934FEF51
:100780005FE760E070E0A1E9B1E10D911D912D916D
:100790003C910E94E4140CF402C00C94D6037091B6
:1007A00005017F7E709305010C94E70370910501AC
:1007B00070617093050180E0809368018FE0809301
:1007C000120180916801809313010E94D40808955A
:1007D0008FEF809313010E9460048FEF80931301C9
:1007E0000E9460040E94810781E0809314010091BF
:1007F00014010A3018F011F00C941304A4E1B1E0D4
:10080000AD90BB24A7E1B1E0AA0DBB1D8C918093F4
:1008100013010E946004A4E1B1E08C918F5F8C937E
:1008200010F40C94F70382E3809313010E94600498
:1008300080E3809313010E946004809122018093E1
:1008400013010E94600480912301809313010E9490
:100850006004A3E8B1E08C91A3E1B1E08C930E9425
:100860006004A3E8B1E011968C91A3E1B1E08C9310
:100870000E94600480910C01809313010E94600427
:1008800080910E01809313010E9460048EE080939A
:1008900012010E94E8080E9460048FEF8093130108
:1008A0000E9460048FEF809313010E9460048EE029
:1008B0008093120180E0809313010E94D408089570
:1008C00070917A007F7770937A00A5E0B1E08C9107
:1008D00084FB16F40C94EA04A1E9B1E10D911D9199
:1008E0002D913C91ADE8B1E10D931D932D933C9377
:1008F0000E94F504A1E9B1E10E94FF12A1E9B1E172
:100900000D911D912D913C91A5E9B1E10D931D93A0
:100910002D933C934FEF5FE760E070E0A1E9B1E118
:100920000D911D912D913C910E94E4140CF002C098
:100930000C94AB0480E0809368018FE080931201F7
:1009400080916801809313010E94D4087091050181
:1009500070617093050189E08093120100919511F7
:100960004FEF0423A3E1B1E00C930E94D4088AE086
:100970008093120198E0A5E9B1E10E94B2140091C0
:1009800095114FEF0423A3E1B1E00C930E94D4082A
:100990008BE08093120198E0A5E9B1E10E94B214C6
:1009A000009195114FEF0423A3E1B1E00C930E9455
:1009B000D4088CE08093120198E0A5E9B1E10E948F
:1009C000B214009195114FEF0423A3E1B1E00C9311
:1009D0000E94D40870917A00706870937A007091C8
:1009E0007A00706470937A00089580EA80930F0112
:1009F00000910F0140911501042BAFE0B1E00C9381
:100A000000918D114FEF0423A7E1B1E00C9398E022
:100A1000ADE8B1E10E94871400918D114FEF0423DE
:100A2000A6E1B1E00C9343980E94071410910F01C6
:100A30000E941114109116010E94111410911701B7
:100A40000E941114109113010E9411140E940914A4
:100A50008AE090E00E94E113439A089580EA80932F
:100A60000F0100910F0140911501042BAFE0B1E09F
:100A70000C9300918D114FEF0423A7E1B1E00C938B
:100A800098E0ADE8B1E10E94871400918D114FEF1D
:100A90000423A6E1B1E00C930E94071410910F010A
:100AA0000E941114109116010E9411141091170147
:100AB0000E9411140E940714AFE0B1E08C918F5F87
:100AC0008C9310910F010E9411140E942E14A3E127
:100AD000B1E01C930E940914089580EA80930F01ED
:100AE00000910F0140911501042BAFE0B1E00C9390
:100AF0008FEF80931301439800E010E020E030E096
:100B0000ADE8B1E10D931D932D933C93ADE8B1E1B8
:100B10000D911D912D913C91A5E9B1E10D931D938E
:100B20002D933C93009195114FEF0423A7E1B1E081
:100B30000C9398E0A5E9B1E10E948714009195110A
:100B40004FEF0423A6E1B1E00C930E94071410912B
:100B50000F010E941114109116010E94111410919E
:100B600017010E94111480E080931201109113016B
:100B70000E941114A2E1B1E08C918F5F8C93ADE8DB
:100B8000B1E10E94FF1200911201003411F00C94A7
:100B9000B6050E9409148AE090E00E94E11380E407
:100BA00089B94FEF5FE760E070E0ADE8B1E10D912A
:100BB0001D912D913C910E94E4141CF011F00C94B5
:100BC000E3050C94E5050C94E7050C948605439A1F
:100BD0000895809118018093120180911C018093E7
:100BE00018018091120180931C018091190180935A
:100BF000120180911D01809319018091120180934F
:100C00001D0180E080931201A2E1B1E08C918F5F21
:100C10008C938091120180930F01AFE0B1E08C9131
:100C20008F5F8C93A2E1B1E0AD90BB24A7E1B1E06E
:100C3000AA0DBB1D0C914AE0049FA3E1B1E00C9208
:100C400000911301AFE0B1E0AD90BB24A7E1B1E0AA
:100C5000AA0DBB1D4C91040FA3E1B1E00C930091D0
:100C60001201043010F00C944206009113010B3372
:100C700018F011F00C943E060C9440060C947D077D
:100C80000C94AA06053011F00C9453060091130140
:100C9000073118F011F00C944F060C9451060C9487
:100CA0007D070C94AA06073011F00C946C06009195
:100CB00013010F3118F011F00C9460060C946206C9
:100CC0000C947D0700911301003011F00C946A061A
:100CD0000C947D070C94AA06093011F00C9485063B
:100CE000009113010C3018F011F00C9479060C945B
:100CF0007B060C947D0700911301003011F00C94D9
:100D000083060C947D070C94AA060B3011F00C940A
:100D1000930600911301043111F40C9491060C9484
:100D20007D070C94AA060D3011F00C94AA060091D0
:100D30001301033618F011F00C94A0060C94A206CF
:100D40000C947D0700911301003010F00C94AA065A
:100D50000C947D07A2E1B1E08C918F5F8C930091A0
:100D600012010E3011F00C94040680E08093120101
:100D7000A2E1B1E08C918F5F8C93A2E1B1E0AD90E4
:100D8000BB24A7E1B1E0AA0DBB1D8C9180930F019C
:100D900094E0AFE0B1E00E947314A2E1B1E08C9165
:100DA0008F5F8C93A2E1B1E0AD90BB24A7E1B1E0ED
:100DB000AA0DBB1D8C918093130100910F014091EE
:100DC0001301042BA2E1B1E0AD90BB24A7E1B1E097
:100DD000AA0DBB1D0C93009112010D3018F011F0FB
:100DE0000C94F4060C94B80680E08093120180ED18
:100DF00080930F0180E8809313010E9407141091E3
:100E00000F010E941114109112010E9411141091EF
:100E100013010E9411140E94091484E080931101AF
:100E200081E08093120180ED80930F01A1E1B1E098
:100E3000AD90BB24A7E1B1E0AA0DBB1D8C918093BE
:100E400013010E94071410910F010E9411141091B8
:100E500012010E941114109113010E9411140E949A
:100E60000914A1E1B1E08C918F5F8C93A1E1B1E015
:100E70008C918F5F8C93A2E1B1E08C918F5F8C930A
:100E800000911201033011F00C944B07A2E1B1E084
:100E90008C918F5F8C9300911201063011F00C94AD
:100EA0005B07A1E1B1E08C918F5F8C93A1E1B1E090
:100EB0008C918F5F8C9300911201073011F00C948C
:100EC000160780E08093120180911901809313012D
:100ED0000E94071410910F010E9411141091120129
:100EE0000E941114109113010E9411140E94091400
:100EF00080E0809307010C94800781E080930701D4
:100F0000089581E08093110180E08093120180EDCB
:100F100080930F010E94071410910F010E94111479
:100F2000109112010E9411140E940714AFE0B1E069
:100F30008C918F5F8C9310910F010E9411140E946D
:100F40003014A3E1B1E01C9300911201033011F4BD
:100F50000C94E507009113014FE00423AFE0B1E0EA
:100F60000C93AFE0B1E08C91805D8C9394E0A3E1B1
:100F7000B1E00E947D14A3E1B1E08C918F708C935D
:100F8000A3E1B1E08C91805D8C9380911301A1E18C
:100F9000B1E0AD90BB24A7E1B1E0AA0DBB1D8C93DD
:100FA000A1E1B1E08C918F5F8C9380910F01A1E161
:100FB000B1E0AD90BB24A7E1B1E0AA0DBB1D8C93BD
:100FC000A1E1B1E08C918F5F8C93A2E1B1E08C91B3
:100FD0008F5F8C9300911201063011F00C949F07E3
:100FE0000E942E14A3E1B1E01C93009113014FE085
:100FF0000423AFE0B1E00C93AFE0B1E08C91805DF1
:101000008C9394E0A3E1B1E00E947D14A3E1B1E0F0
:101010008C918F708C93A3E1B1E08C91805D8C9367
:1010200080911301A1E1B1E0AD90BB24A7E1B1E053
:10103000AA0DBB1D8C93A1E1B1E08C918F5F8C93C5
:1010400080910F01A1E1B1E0AD90BB24A7E1B1E037
:10105000AA0DBB1D8C930E940914809118018093E6
:10106000120180911C0180931801809112018093DC
:101070001C01809119018093120180911D018093C0
:1010800019018091120180931D01089580E08093E1
:101090001201A2E1B1E08C918F5F8C9380911201DB
:1010A00080930F01AFE0B1E08C918F5F8C93009142
:1010B00012010B3011F00C946308E6E0FBE20E9491
:1010C000D1140E946B13A2E1B1E0AD90BB24A7E163
:1010D000B1E0AA0DBB1D8C91A1EAB1E18D938827E7
:1010E0008C93A1EAB1E10E946513AFE0B1E0AD904D
:1010F000BB24A7E1B1E0AA0DBB1D8C91A1EAB1E12F
:101100008D9388278C93A1EAB1E10E946513009129
:101110001201013011F00C949508EAE0FBE20E9404
:10112000D1140E946B130C94C308033011F00C947B
:10113000A108EAE0FBE20E94D1140E946B130C9418
:10114000C308053011F00C94AD08ECE0FBE20E94FE
:10115000D1140E946B130C94C308073011F00C9447
:10116000B908EEE0FBE20E94D1140E946B130C94CC
:10117000C308093011F00C94C308EEE0FBE20E94B2
:10118000D1140E946B13A2E1B1E08C918F5F8C931C
:10119000009112010B3018F011F00C94D1080C944E
:1011A00049080E947713089580ED80930F010E94F3
:1011B000071410910F010E941114109112010E9446
:1011C0001114109113010E9411140E940914089522
:1011D00080ED80930F010E94071410910F010E946F
:1011E0001114109112010E9411140E940714AFE013
:1011F000B1E08C918F5F8C9310910F010E941114BC
:101200000E942E14A3E1B1E01C930E9409140895DA
:1012100081E00E94441481E0A881B9818C934091BF
:101220000C01A881B9810C91041718F011F00C94ED
:101230003609A881B981AD90BB24A9E6B1E0AA0C1A
:10124000BB1CAA0DBB1D8D919C91ADE7B1E08D93A8
:101250009C9332E0ADE7B1E00E947213A881B9819E
:101260008C918F5F8C9310F40C940F0981E0481AD5
:1012700080E0580A22960895E0E1FBE20E94D11432
:101280000E946B13A0EAB0E4E1E9F1E10E94FA14D4
:101290000E946313E8E2FBE20E94D1140E946B13E8
:1012A0000E9477130FEF1FE720E030E0A1E9B1E1E2
:1012B0004D915D916D917C910E94DF14ADE8B1E19B
:1012C0000D931D932D933D93E0E3FBE20E94D11417
:1012D0000E946B13A0EAB0E4EDE8F1E10E94FA1479
:1012E0000E946313E8E2FBE20E94D1140E946B1398
:1012F0000E9477130895E89886E4482F00916901C9
:10130000041711F00C948B09809169008C7F826026
:1013100080936900E89A82E5482F009169010417DB
:1013200011F00C94990980916900836080936900A1
:10133000E89A08950E947713E8E4FBE20E94D11432
:101340000E946B130E9477130E947713EAE6FBE278
:101350000E94D1140E946B130E9477130E9477138E
:10136000EEE8FBE20E94D1140E946B130E947713F7
:101370000E947713E6EBFBE20E94D1140E946B13EC
:101380000E9477130E947713E6EEFBE20E94D114CD
:101390000E946B130E9477130E947713EAE3FCE22A
:1013A0000E94D1140E946B130E9477130E9477133E
:1013B000EEE8FCE20E94D1140E946B130E947713A6
:1013C000E2E2FDE20E94D1140E946B130E947713A7
:1013D000E2E9FDE20E94D1140E946B130E94771390
:1013E0000E947713E0EDFDE20E94D1140E946B137E
:1013F0000E9477130E947713E8EFFDE20E94D11458
:101400000E946B130E9477130E947713E8E4FEE2B8
:101410000E94D1140E946B130E947713EAE7FEE248
:101420000E94D1140E946B130E947713ECEBFEE232
:101430000E94D1140E946B130E9477130E947713AD
:10144000E2EEFEE20E94D1140E946B130E94771319
:101450000E947713E2E2FFE20E94D1140E946B1314
:101460000E9477130E947713EEE3FFE20E94D114EB
:101470000E946B130E9477130E947713E6E8FFE245
:101480000E94D1140E946B130E947713ECEBFEE2D2
:101490000E94D1140E946B130E9477130E9477134D
:1014A000E2EDFFE20E94D1140E946B130E947713B9
:1014B000EAE2F0E30E94D1140E946B130E947713BA
:1014C0000E947713EAE5F0E30E94D1140E946B13A7
:1014D0000E9477130E947713E6E7F0E30E94D1148D
:1014E0000E946B130E9477130E947713EAEBF0E3DC
:1014F0000E94D1140E946B130E9477130E947713ED
:10150000EAE0F1E30E94D1140E946B130E9477136A
:101510000E947713E2E5F1E30E94D1140E946B135D
:101520000E9477130E947713E6E7F1E30E94D1143B
:101530000E946B130E9477130E947713ECEBF1E388
:101540000E94D1140E946B130E9477130E9477139C
:10155000ECEDF1E30E94D1140E946B130E9477130B
:101560000E947713E0EFF1E30E94D1140E946B1305
:101570000E9477130E947713ECE1F2E30E94D114EA
:101580000E946B130E9477130E94771308950F92A5
:101590001F922F923F924F925F927F92AF92BF9293
:1015A0000F931F932F933F934F935F936F937F936B
:1015B0008F939F93AF93BF93CF93DF93EF93FF935B
:1015C0008FB78F938BB78F9388278BBF78E376BDC8
:1015D00080E889B9A1E8B1E00E940C13A5E8B1E068
:1015E0004D915C91A1E8B1E00D911C910417150794
:1015F00011F00C946B0B80E090E0A1E8B1E08D93CA
:101600009C93A5E0B1E08C9183FB16F00C945F0BEA
:10161000A7E8B1E10D911C91083F57E0150710F0C4
:101620000C94440B81E08093100140910C010091D7
:101630001001041718F011F00C94420BA0E1B1E076
:10164000AD90BB24A9E6B1E0AA0CBB1CAA0DBB1D42
:101650008D919C91A7E8B1E1AD90BD90A5E8B1E076
:10166000AA0CBB1CAA0DBB1D8D939C93A7E8B1E1EE
:101670000E940C13A0E1B1E08C918F5F8C9310F469
:101680000C94150B0C945D0B882785BDA7E8B1E180
:101690000D911C9141E050E0041B150BA9E8B1E14C
:1016A0000D931C9381E090E0A7E8B1E18D939C93AA
:1016B000709105017460709305010C946B0BA5E0AB
:1016C000B1E08C9185FB16F00C946B0B70910601C8
:1016D0007068709306018F918BBF8F918FBFFF91C0
:1016E000EF91DF91CF91BF91AF919F918F917F91BA
:1016F0006F915F914F913F912F911F910F91BF90EB
:10170000AF907F905F904F903F902F901F900F90E1
:1017100018950F921F922F923F924F925F927F9255
:10172000AF92BF920F931F932F933F934F935F936B
:101730006F937F938F939F93AF93BF93CF93DF93D9
:10174000EF93FF938FB78F938BB78F9388278BBFC0
:101750008CED9BE0909385008093840080E889B9AC
:10176000A1E8B1E00E940C13A3E8B1E04D915C91B7
:10177000A1E8B1E00D911C910417150711F00C942C
:10178000FC0B80E090E0A1E8B1E08D939C9381E0B8
:101790008093100140910C0100911001041718F082
:1017A00011F00C94FC0BA0E1B1E0AD90BB24A9E6D4
:1017B000B1E0AA0CBB1CAA0DBB1D8C91A3E1B1E04A
:1017C0008C930E946004A0E1B1E0AD90BB24A9E637
:1017D000B1E0AA0CBB1CAA0DBB1D11968C91A3E114
:1017E000B1E08C930E946004A0E1B1E08C918F5F26
:1017F0008C9310F40C94CA0B8F918BBF8F918FBF79
:10180000FF91EF91DF91CF91BF91AF919F918F9118
:101810007F916F915F914F913F912F911F910F9108
:10182000BF90AF907F905F904F903F902F901F9010
:101830000F9018950F921F922F923F924F925F92A6
:101840007F92AF92BF920F931F932F933F934F932B
:101850005F936F937F938F939F93AF93BF93CF9338
:10186000DF93EF93FF938FB78F938BB78F93882777
:101870008BBFABE8B1E10E940C138F918BBF8F91AE
:101880008FBFFF91EF91DF91CF91BF91AF919F916A
:101890008F917F916F915F914F913F912F911F9108
:1018A0000F91BF90AF907F905F904F903F902F909F
:1018B0001F900F9018950F921F922F923F924F9268
:1018C0005F927F92AF92BF920F931F932F933F939C
:1018D0004F935F936F937F938F939F93AF93BF9338
:1018E000CF93DF93EF93FF938FB78F938BB78F9344
:1018F00088278BBFAAE0B1E080917C008C93AAE09E
:10190000B1E08C91887F8C9300910A01409108018D
:10191000042BAAE0B1E00C93AAE0B1E08C91809393
:101920007C00AAE0B1E0809178008C9300910801DE
:10193000003011F00C94E10C80917900ACE0B1E042
:10194000AD90BB24A9E6B1E0AA0CBB1CAA0DBB1D3F
:101950008D9388278C9300910A010F3F11F00C940E
:10196000B40C8EEF80930A0198E0ACE0B1E0AD904A
:10197000BB24A9E6B1E0AA0CBB1CAA0DBB1D0E94AA
:101980009814ACE0B1E0AD90BB24A9E6B1E0AA0C9C
:10199000BB1CAA0DBB1D0D911C91AAE0B1E04D919D
:1019A0005527042B152BACE0B1E0AD90BB24A9E684
:1019B000B1E0AA0CBB1CAA0DBB1D0D931C930C948B
:1019C000240D80917900A8E0B1E0AD90BB24A9E698
:1019D000B1E0AA0CBB1CAA0DBB1D8D9388278C936C
:1019E00000910A010F3F11F00C94F90C8EEF8093D7
:1019F0000A0198E0A8E0B1E0AD90BB24A9E6B1E00F
:101A0000AA0CBB1CAA0DBB1D0E949814A8E0B1E053
:101A1000AD90BB24A9E6B1E0AA0CBB1CAA0DBB1D6E
:101A20000D911C91AAE0B1E04D915527042B152B87
:101A3000A8E0B1E0AD90BB24A9E6B1E0AA0CBB1CC4
:101A4000AA0DBB1D0D931C93A8E0B1E08C918F5F94
:101A50008C9340910C0100910801041710F40C9430
:101A6000340D80E08093080170917A007064709367
:101A70007A008F918BBF8F918FBFFF91EF91DF9194
:101A8000CF91BF91AF919F918F917F916F915F9116
:101A90004F913F912F911F910F91BF90AF907F90E9
:101AA0005F904F903F902F901F900F9018950F923E
:101AB0001F922F923F924F925F927F92AF92BF926E
:101AC0000F931F932F933F934F935F936F937F9346
:101AD0008F939F93AF93BF93CF93DF93EF93FF9336
:101AE0008FB78F938BB78F9388278BBFA5E0B1E01B
:101AF0008C9183FB16F00C94890D882785BD80E0BE
:101B000090E0A1E8B1E08D939C9378E376BD82E00C
:101B100085BD8F918BBF8F918FBFFF91EF91DF912B
:101B2000CF91BF91AF919F918F917F916F915F9175
:101B30004F913F912F911F910F91BF90AF907F9048
:101B40005F904F903F902F901F900F9018950F929D
:101B50001F922F923F924F925F927F92AF92BF92CD
:101B60000F931F932F933F934F935F936F937F93A5
:101B70008F939F93AF93BF93CF93DF93EF93FF9395
:101B80008FB78F938BB78F9388278BBF0E943713A4
:101B9000ABE0B1E08C9300910B01003011F40C9498
:101BA000DF1200910B010B3111F00C94F80DA5E040
:101BB000B1E08C9186FB16F40C94F00D7091050148
:101BC0007064709305015E9800E910ED23E030E049
:101BD000ADE9B1E10D931D932D933C930C94F60D5B
:101BE000709105017F7B709305015E9A0C94DF1262
:101BF000A5E0B1E08C9186FB16F00C94DF12709199
:101C000005017F7B709305018EE4A7E0B1E08C9322
:101C100000910B01013311F00C94780E0E947713A0
:101C2000EAE3F2E30E94D1140E946B13E3E00E9406
:101C30002013A0EAB0E40E944A15A3E1B1E00C939E
:101C4000E6E5F2E30E94D1140E946B13ECE00E94DF
:101C50002013A0EAB0E40E944A15A5E9B1E10D9372
:101C60001D932D933D930E947713EEE6F2E30E94BD
:101C7000D1140E946B13A0EAB0E4E3E1F1E00E940A
:101C800004150E9463130E947713A5E9B1E10D9139
:101C90001D912D913C91ADE8B1E10D931D932D93D4
:101CA0003C930E94F50480E080931301A5E9B1E123
:101CB0000D911D912D913C91ADE8B1E10D931D93D6
:101CC0002D933C930E942E05EEE7F2E30E94D1147F
:101CD0000E946B13A0EAB0E4E3E1F1E00E94041576
:101CE0000E9463130E9477130E9477130C94DE12F4
:101CF000093311F00C94880E0E943D13ABE0B1E063
:101D00008C9331E0ABE0B1E00E9472130C94DE12D0
:101D1000013411F00C94C40E0E943D13ABE0B1E00D
:101D20008C9300910B01003380E010F009F081E00A
:101D30008F9300910B01093381E008F080E09F91BF
:101D40008923882311F40C94C20E00910B0140E307
:101D5000041BACE0B1E00C938DE080931201809104
:101D60000C01809313010E94D40880E08093080145
:101D70008EE08093120189E0809313010E94D408C1
:101D80000E9499020C94DE12023411F00C941F0F81
:101D90000E947C15E6E00E942013A0EAB0E40E94B5
:101DA0004A15ADE7B1E00D931C930E947915ADE79C
:101DB000B1E00D911C91003050E0150780E010F06B
:101DC00009F081E08F93ADE7B1E00D911C910F3FD9
:101DD0005FEF150781E010F009F080E09F91892303
:101DE000882311F40C941D0FADE7B1E08D919C9107
:101DF000A3E8B1E08D939C9380E180931201A3E866
:101E0000B1E011968C91A3E1B1E08C930E94D408CB
:101E100081E180931201A3E8B1E08C91A3E1B1E0EC
:101E20008C930E94D4088EE08093120182E080930C
:101E300013010E94D4080E9499020C94DE1203340C
:101E400011F00C94560F0E943D13AAE6B1E08C935A
:101E500000916A01003381E008F480E08F930091E3
:101E60006A01033381E008F080E09F918923882391
:101E700011F40C94540F0E94480280E090E0ABE80B
:101E8000B1E18D939C9380E090E0909395008093D6
:101E9000940080919100887F809391005F98709169
:101EA00006017064709306010C94DE12083411F080
:101EB0000C94970F81E080931201009112010E3073
:101EC00018F011F00C94810F0E943D13AFE0B1E0C7
:101ED0008C93AFE0B1E08C9180538C9380910F0193
:101EE000A2E1B1E0AD90BB24A7E1B1E0AA0DBB1D1A
:101EF0008C93A2E1B1E08C918F5F8C9310F40C94E1
:101F00005D0F0E94E90586E08093130188E08093CD
:101F100012010E94D4088EE08093120185E0809324
:101F200013010E94D4080E9499020C94DE12093415
:101F300011F00C942910F89480E0809368018FE0F0
:101F40008093120180916801809313010E94D4084C
:101F50008AE090E0A3E8B1E08D939C9380E18093C8
:101F60001201A3E8B1E011968C91A3E1B1E08C934A
:101F70000E94D40881E180931201A3E8B1E08C9122
:101F8000A3E1B1E08C930E94D4080E946D0500E0AB
:101F900010E020E030E0A1E9B1E10D931D932D9315
:101FA0003C93A1E9B1E10D911D912D913C91A5E9E1
:101FB000B1E10D931D932D933C9389E08093120121
:101FC000009195114FEF0423A3E1B1E00C930E941F
:101FD000D4088AE08093120198E0A5E9B1E10E945B
:101FE000B214009195114FEF0423A3E1B1E00C93DB
:101FF0000E94D4088BE08093120198E0A5E9B1E13A
:102000000E94B214009195114FEF0423A3E1B1E0B7
:102010000C930E94D4088CE08093120198E0A5E90B
:10202000B1E10E94B214009195114FEF0423A3E196
:10203000B1E00C930E94D4088EE08093120181E0FD
:10204000809313010E94D4080E94990278940C9402
:10205000DE120F3411F00C9491100E943D13A9E68A
:10206000B1E08C930E947C15E6E00E942013A0EA68
:10207000B0E40E944A15A5E8B1E00D931C930E94BC
:10208000791582E5482F00916901041781E009F074
:1020900080E08F9386E4482F00916901041781E066
:1020A00009F080E09F91892B8F9380E5482F009164
:1020B0006901041781E009F080E09F91892B882352
:1020C00011F40C948F10A5E8B1E00D911C91003033
:1020D00050E0150780E010F009F081E08F93A5E84B
:1020E000B1E00D911C910F3F5FEF150781E010F0FB
:1020F00009F080E09F918923882311F40C948F10BC
:102100000E9448027091050178607093050181E09A
:1021100090E0A7E8B1E18D939C930E947B090C9419
:10212000DE12003511F00C9499100E9448020C94B4
:10213000DE12023511F00C94C6100E9448028CED9C
:102140009BE0909385008093840081E080936801F8
:102150008FE08093120180916801809313010E94A7
:10216000D4088EE08093120188E0809313010E94CE
:10217000D4080E94990280E090E0A1E8B1E08D933C
:102180009C9384E0809381000C94DE12033511F05F
:102190000C94D6100E943D13ABE0B1E08C9304B1D7
:1021A00040910B01042305B90C94DE12043511F0A3
:1021B0000C9419110E947C15E6E00E942013A0EAFD
:1021C000B0E40E944A15A5E8B1E00D931C930E946B
:1021D0007915A5E8B1E00D911C91003050E015078C
:1021E00080E010F009F081E08F93A5E8B1E00D9157
:1021F0001C910F3F5FEF150781E010F009F080E0C0
:102200009F918923882311F40C9417110E9448028E
:1022100080E090E0A1E8B1E08D939C9378E376BDF7
:102220007091050170627093050182E085BD0C9488
:10223000DE12053511F00C946B110E943D13ADE0D8
:10224000B1E08C93ADE0B1E08C9180538C930E940F
:102250007C15E6E00E942013A0EAB0E40E944A1533
:10226000A5E8B1E00D931C930E947915A5E8B1E0B3
:102270000D911C91003050E0150780E010F009F03E
:1022800081E08F93A5E8B1E00D911C910F3F5FEFC6
:10229000150781E010F009F080E09F9189238823E1
:1022A00011F40C9469110E94480280E090E0A1E8CA
:1022B000B1E08D939C9378E376BD709105017062D7
:1022C000709305017091050171607093050182E0C2
:1022D00085BD0C94DE12093511F00C9488110E9412
:1022E0003D13ABE0B1E08C9388E4482F00910B01E3
:1022F000041711F00C947D11429884E4482F00914A
:102300000B01041711F00C948611429A0C94DE1202
:102310000A3511F00C949F11F89474B7777F74BF4D
:1023200088E18093600080E080936000809160008D
:102330008860809360000C949B110C94DE1201362F
:1023400011F00C94A7110E9408090C94DE120236B9
:1023500011F00C94E2110E943D13ABE0B1E08C93BC
:1023600000910B01003380E010F009F081E08F93C1
:1023700000910B01093381E008F080E09F918923EF
:10238000882311F40C94E01100910B0140E3041B2D
:10239000AFE0B1E00C93AFE0B1E0AD90BB24A9E6B3
:1023A000B1E0AA0CBB1CAA0DBB1D8D919C91ADE7A1
:1023B000B1E08D939C9332E0ADE7B1E00E947213DF
:1023C0000C94DE12033611F00C94ED1131E0A3E20F
:1023D000B0E00E9472130C94DE12043611F00C94DB
:1023E000511280918100887F80938100882785BD6C
:1023F00070917A007F7770937A0000E010E020E01F
:1024000030E0A5E9B1E10D931D932D933C93A1E933
:10241000B1E14D915D916D917C91A5E9B1E10D9195
:102420001D912D913C910E94E4140CF402C00C9477
:102430003212A5E9B1E10D911D912D913C91ADE8CC
:10244000B1E10D931D932D933C930E942E0531E035
:10245000A3E1B1E00E947213A5E9B1E10E94FF126D
:102460000C9407128EE08093120183E08093130195
:102470000E94D4080E94990270917A00706870934B
:102480007A0070917A00706470937A00009168010C
:10249000013011F00C944F1284E0809381000C9471
:1024A000DE12053611F00C949A12ECE8F2E30E9469
:1024B000D1140E946B130E947713EAE9F2E30E94A1
:1024C000D1140E946B130E947713EAEAF2E30E9490
:1024D000D1140E946B1382EA0E947A13E0EBF2E3BC
:1024E0000E94D1140E946B13A0EAB0E4E6EBF2E381
:1024F0000E94D1140E946D140E9463130E947713EE
:10250000EEEBF2E30E94D1140E946B130E9477134A
:10251000E4EDF2E30E94D1140E946B130E94771342
:10252000E8E0F3E30E94D1140E946B130E9477133A
:102530000C94DE12063611F00C94A2120E949A0935
:102540000C94DE12083611F00C94AC120E94810734
:102550000E9446080C94DE120D3611F00C94B41251
:102560000E943C090C94DE12043711F00C94DA122C
:10257000A5E0B1E08C9183FB81E00EF080E08F93C9
:1025800080E5482F00916901041781E009F080E09F
:102590009F918923882311F40C94D81280E090E055
:1025A000A1E8B1E08D939C9378E376BD82E085BD90
:1025B0000C94DE128EE4A7E0B1E08C935E9A8F91CA
:1025C0008BBF8F918FBFFF91EF91DF91CF91BF9123
:1025D000AF919F918F917F916F915F914F913F91BB
:1025E0002F911F910F91BF90AF907F905F904F9070
:1025F0003F902F901F900F901895F894FFCF0D915A
:102600001D912D913C910F5F1F4F2F4F3F4F3C93DA
:102610002E931E930E930895ED91FC91EF5FFF4F63
:10262000FC93EE9308950D911D912D913C910150D5
:102630001040204030403C932E931E930E930895FB
:10264000A0EAB0E41AD0803079F08D3039F0EE2372
:10265000C9F38D93EA9563FE4DD0F4CF63FC04C0BB
:102660008DE048D08AE046D088278C93089588274B
:102670000090C00007FE089500C00F931F932F9392
:102680003F93AF93BF93A1E0B1E00D911D912D91C8
:102690003C910090C00007FC0BC08827802B812B49
:1026A000822B832B41F00150104020403040F1CF6D
:1026B0008091C60001C08827BF91AF913F912F91B3
:1026C0001F910F910895A0EAB0E48D91882311F035
:1026D00011D0FBCF08950E94C114802D11F00AD0B3
:1026E000FACF08958D9106D03A95E1F708958DE0DF
:1026F00001D08AE00090C00005FEFCCF8093C600A8
:10270000089500FC05D0089530D005D001F8F9CF28
:1027100037D03FD00895842F952FA62FB72FE89458
:10272000452B462B472B11F468940895402F512FC9
:10273000622F732F0027112722273327F0E2440F3F
:10274000551F661F771F001F111F221F331F081BF5
:10275000190B2A0B3B0B416028F4080F191F2A1F85
:102760003B1F4E7FFA9559F708950024E89477FFB0
:1027700002C006D0689400F809D010F8012408952A
:1027800012D04F5F5F4F6F4F7F4F0895E89437FF30
:10279000089500951095209530950F5F1F4F2F4F8E
:1027A0003F4F6894089540955095609570950895B1
:1027B0003197F1F70895689462F80895E89462F803
:1027C0000895EF93FF93EE27E82BE92B31F0E0EA31
:1027D000FFE03197F1F70197D1F7FF91EF9108955D
:1027E00039983898419A409A089568944093BC006B
:1027F0008F939F9388279927019629F04091BC00D9
:1028000047FFFACFE8949F918F9162F8089544EAC8
:10281000ECCF44E94093BC004091BC0044FDFCCFA8
:1028200008951093BB0044E8E0DF8F939F938827BF
:102830009927019671F04091B900487F483FC9F34C
:10284000E894483139F0483229F0403419F04035E5
:1028500009F068949F918F9162F8089544E801C04F
:1028600044ECC3DF1091BB004091B900487F483F62
:10287000D9F308950D911D912D913C9108950191E9
:10288000119121913081089599275A924A92480EC8
:10289000591E08950F921F922F92C801D901489F87
:1028A00080014A9F90014B9F202C499F100D211DB4
:1028B000321D5A9F202C589F100D211D321D599FEB
:1028C000200D311D689F200D311D699F300D789FAF
:1028D000300D2F901F900F9008950E94C1140D92FB
:1028E0000020D9F70895903039F08C91880F08F4C2
:1028F00081609A95D9F78C930895903039F08C9136
:10290000869508F480689A95D9F78C93089590304D
:1029100071F00E943A14369527951795079508F49B
:1029200030689A95C1F73C932E931E930E930895A9
:10293000903041F00D911C91000F111F9A95E1F715
:102940001C930E930895903061F00E943A14000F8A
:10295000111F221F331F9A95D1F73C932E931E937C
:102960000E930895903061F00E943A1436952795A1
:10297000179507959A95D1F73C932E931E930E9336
:102980000895D895319628F48F938BB783958BBF94
:102990008F91002008950F9301E00BBF0F91889451
:1029A00008950F930027F9CF0F9302E0F6CF0F930E
:1029B00003E0F3CF040F151F261F371F0895041BD4
:1029C000150B260B370B0895041715072607370735
:1029D0000895000F111F221F331F089500951095B1
:1029E000209530950F5F1F4F2F4F3F4F0895019156
:1029F00010810CC00E943F140BC00191108117FF81
:102A000005C03FEF2FEF04C0008111272227332795
:102A100037FF03C0E3DF8DE28D93CF92DF92EF9219
:102A2000AA24BB24CC24DD24EE2440E2EAE0FF27E4
:102A300055E093E38081890F87FD9F7083FD907F30
:102A4000891B81935A95A9F7C4DFAA1CBB1CCC1C17
:102A5000DD1CEE1C4A9551F7E894EFE0FF278291C8
:102A60000CD0EB30E0F71EF068948A2D0AD088274E
:102A70008D93EF90DF90CF900895982F829501D09D
:102A8000892F8F70805D26F0803309F40895689453
:102A90008D93089500271127222733271DD08A33CD
:102AA00028F4803318F005D015D0F9CF0EF496CF66
:102AB000089580538F93402F512F622F732F89DFFA
:102AC00088DF78DF86DF8F919927080F191F291F6C
:102AD000391F08958D910895E894FCDF8032E9F361
:102AE0008B32D9F38930C9F38D3211F46894F2CF67
:102AF0000895E89463F80895689463F80895574436
:102B00000000524E4900323000003A0020002F00F1
:102B10004D656D6F726961207574696C697A616465
:102B200061202D2D3E200000206279746573000025
:102B30004D656D6F7269612072657374616E746545
:102B4000202D2D2D3E2000004269656E76656E6950
:102B5000646F2061206C6120617975646120646517
:102B600020636F6D616E646F7300455343203020A6
:102B70002D2D3E2054657374656F20646520737439
:102B800061636B732079206672616D650000455347
:102B9000432031202D2D3E20477261626120792033
:102BA0006C656520756E206461746F20656E206CA5
:102BB0006120453200004553432039203C63686161
:102BC000723E202D2D3E2045636F20646520756E7A
:102BD000206361726163746572206375616C7175E5
:102BE0006965726100004553432041203C43616E9A
:102BF000745F63616E616C3E202D2D3E20526563D3
:102C00006962652063616E74696461642064652033
:102C100063616E616C657320616E616CF3676963FB
:102C20006F733A203C43616E745F63616E616C3E0A
:102C30002064652031206120380045534320422024
:102C40003C545F7265673E203044203041202D2D7A
:102C50003E20526563696265207469656D706F20FE
:102C6000646520726567697374726F20656E207386
:102C70006567756E646F733A203C545F7265673E9A
:102C800020646520312061203635353335004553C9
:102C9000432043203C627974653E202D2D3E204D1B
:102CA000696465207469656D706F20656E74726506
:102CB00020646F73207365F1616C657320656E200D
:102CC000756E206D69736D6F2070696E2028506974
:102CD0006E432E342C2066616C6C696E67207920FF
:102CE000726973696E67206564676529206F206566
:102CF0006E74726520646F732070696E657320282E
:102D000050696E432E342066616C6C696E672020BA
:102D1000792050696E432E352066616C6C696E6750
:102D200029002020202020202020202020202020BA
:102D30002020203C627974653E202D2D3E20203CD1
:102D4000307833313E207061726120537461727447
:102D500020792053746F7020656E2050696E432E69
:102D600034207C7C203C307833323E2070617261AC
:102D700020537461727420656E2050696E432E3446
:102D800020792053746F7020656E2050696E432E39
:102D9000350020202020202020202020202020203E
:102DA00020202044657675656C766520656C206C06
:102DB0006170736F206465207469656D706F206544
:102DC0006E207573656720284153434949290000E7
:102DD00045534320482068686D6D737344444D4DDE
:102DE00041414141202D2D3E20536574656F206483
:102DF0006520686F726100004553432049202D2DE6
:102E00003E20426F727261646F206465206D656D53
:102E10006F72696120792054726567203D20357397
:102E20006567207C7C205469656D706F2064652027
:102E3000726567697374726F2064656661756C741E
:102E40003A20363073656700455343204F203C7469
:102E50007269676765723E203C696E74657276615F
:102E60006C6F3E203044203041202D2D3E204D6F90
:102E7000646F20427572737400002020202020208F
:102E8000547269676765723A202752273D496E740C
:102E9000302F726973696E672065646765207C7C7A
:102EA000202746273D496E74302F66616C6C696E31
:102EB00067207C7C202750273D5043002020202085
:102EC0002020496E74657276616C6F3A202831203B
:102ED000612036353533352920782031303075730F
:102EE00000004553432050202D2D3E20446573683B
:102EF0006162696C69746120746F646F73206C6FB8
:102F000073206D6F646F73202D2D3E20536F6C6F97
:102F10002065736375636861206C6120525332339E
:102F200032004573632052202D2D3E204861626996
:102F30006C69746120726567697374726F004553C0
:102F4000432053203C627974653E202D2D3E205352
:102F500065746561206C61732073616C6964617371
:102F6000206465206163756572646F2061206C6FF9
:102F7000207175652072656369626520706F7220CB
:102F80005253323332004553432054203C496E742F
:102F9000657276616C6F3E202D2D3E20486162691E
:102FA0006C697461207472616E736D697369F36E1C
:102FB000206465206461746F7320636F6E74696E42
:102FC000756F20636F6E20696E74657276616C6FC9
:102FD00000004553432055203C43616E616C3E2008
:102FE0003C496E74657276616C6F3E202D2D3E20DB
:102FF000486162696C697461207472616E736D2ED0
:10300000206461746F7320636F6E74696E756F20D6
:10301000646520756E2063616E616C20636F6E2045
:10302000696E74657276616C6F002020202020200C
:1030300043616E616C3A20312061203820203B20B2
:10304000496E74657276616C6F3A207831303075F4
:1030500073202030442030410000455343205A2043
:103060002D2D3E2052657365742064656C2065715A
:103070007569706F00004553432061202D2D3E205F
:103080005472616E736D697465206461746F73202E
:10309000646520746F646F73206C6F732063616E5E
:1030A000616C657320616E616CF36769636F732097
:1030B000737465746561646F730045736320622087
:1030C0003C43616E616C3E202D2D3E205472616E3A
:1030D000736D69746520656C2043616E616C20417D
:1030E0006E616CF36769636F20536F6C6963697419
:1030F00061646F207C7C203C43616E616C3E2044A7
:103100006520312061203820000045534320632092
:10311000792064657675656C7665203C62797465A6
:103120003E202D2D3E205472616E736D69746520B2
:1031300065737461646F73206465206C6F732063C2
:10314000616E616C6573206469676974616C657335
:1031500000004553432064202D2D3E2044657363B9
:1031600061726761206465206461746F73206269B5
:103170006E61726961004553432065207920646562
:103180007675656C7665206C6F73206461746F73FF
:103190002064656C2065717569706F202D2D3E204F
:1031A0005472616E736D697465206461746F73200D
:1031B00064656C2065717569706F0000455343202C
:1031C00066202D2D3E20566572206C697374612037
:1031D000646520636F6D616E646F730045534320B7
:1031E00068202D2D3E205665722072656C6F6A0036
:1031F000455343206D202D2D3E20566572206D6570
:103200006D6F726961207574696C697A616461209F
:10321000792072657374616E7465000045534320B4
:1032200074202D2D3E20547269676765722070618D
:1032300072612042757273740000496E6772657323
:103240006520656C206461746F206E756D657269B0
:10325000636F3A200000496E6772657365206C6188
:1032600020646972656363696F6E3A20000044618F
:10327000746F206573637269746F3A200000446153
:10328000746F206C6569646F3A20000050726F792A
:103290006563746F3A204144000045717569706F31
:1032A0003A20202041514330310056657273690045
:1032B0006E3A20200000322E31352E340000466553
:1032C0006368613A2020202030392F31302F32308E
:1032D000313400004175746F7265733A20204C6977
:1032E000632E204C6973616E64726F20526176693F
:1032F0006F6C61202F20496E672E204775737461B3
:10330000766F205265616C005573756172696F3A12
:083310002020554E4753000038
:00000001FF
