:100000000C9446000C94BF0C189500001895000045
:10001000189500001895000018950000189500002C
:10002000189500001895000018950000189500001C
:100030001895000018950000189500000C943C0BD2
:1000400018950000189500000C947A0A1895000085
:100050000C940F0D189500001895000018950000DD
:100060000C940E0C189500001895000018950000CF
:1000700018950000189500001895000018950000CC
:1000800018950000189500000C94CD0B8FEF8DBFD4
:10009000C0EDE8EB4E2E80E48EBFD0E4F0E45F2E9E
:1000A000A89584B7082E877F84BF88E1992780931D
:1000B000600090936000EEEFFFE3A0E0B1E08827DE
:1000C0008D933197E9F786E28093C40080E08093B6
:1000D000C50088E18093C1006624E0E0FF2700812D
:1000E000A5E0B1E00C93A5E0B1E00C9103FB16F0A4
:1000F0000C948100709101017068709301010C945F
:100100008600709101017F77709301010E945D125A
:1001100070E07093B90074E37093B80086E8809340
:100120007A0080E080937C0070917A007F777093F2
:100130007A0082E085BD80E084BD882785BD7AE6AF
:1001400076BD80E08093800084E080938100809180
:100150008100887F8093810085EE98E490938500EC
:100160008093840080E08093900081E080939100F0
:1001700080919100887F8093910080E090E090933F
:100180009500809394003A9A3B9A3C983D98569AF1
:10019000579AF8947091010172607093010180E0A8
:1001A00080931001439AA1E0B1E08C9187FB16F097
:1001B0000C94EA00EAEDF7E20E943F130E94D81186
:1001C0000E94E4118EE080930D018AE080930E017D
:1001D0000E948F08EEEDF7E20E943F130E94D811B3
:1001E0000E94E411ECEEF7E20E943F130E94D81146
:1001F0000E94E41142985E9A5F9881E080930A0120
:1002000000910A01083018F011F00C94170180E4F5
:1002100089B980E889B98DE790E00E944E12AAE082
:10022000B1E08C918F5F8C9310F40C9400010E94CC
:10023000FD0170916E00716070936E0070916F009F
:10024000716070936F0070917100716070937100B4
:100250008091C100806C8093C10070917A007860B9
:1002600070937A000E94420270917A0070687093D5
:100270007A0070917A00706470937A007091010135
:100280007D7F709301017894A2E0B1E08C9187FBAF
:1002900016F00C94B001709102017F777093020107
:1002A0003499FECF81E08093910000916501013384
:1002B00011F00C946201349BFECF80919100887FF5
:1002C0008093910000916501023311F00C946F014D
:1002D0003599FECF80919100887F80939100A6E8A8
:1002E000B1E10D911C912227332740E050E061E0FD
:1002F00070E00E94B212A4E9B1E10D931D932D9319
:100300003D93A4E9B1E10D911D912D913C91A4E99A
:10031000B0E04D915C91662777270E944813A4E9CD
:10032000B1E10D931D932D933D93A4E9B1E10D919E
:100330001D912D913C914CE050E060E070E00E94F6
:10034000F111A4E9B1E14D935D936D937D93A0EA22
:10035000B0E4E4E9F1E10E9468130E94D0115F9AD1
:10036000A1E0B1E08C9180FB16F00C94BE0170917D
:1003700001017E7F709301010E94C308A1E0B1E0FA
:100380008C9182FB16F00C94FB01709101017B7F34
:100390007093010181E090E0AAE7B1E08D939C9316
:1003A000A4E8B1E14D915C91AAE7B1E00D911C91F7
:1003B0000417150718F011F00C94FA01AAE7B1E040
:1003C000AD90BD90A0E8B1E0AA0CBB1CAA0DBB1D6E
:1003D0008D919C91A8E7B1E08D939C9332E0A8E7C2
:1003E000B1E00E94DF11AAE7B1E00E94A71110F46A
:1003F0000C94D0015F9A0C944401882785BD8091AC
:100400008100887F8093810080919100887F809314
:100410009100709101017F7D709301017091010144
:100420007E7F70930101709101017F7B70930101C8
:1004300070910101777F70930101709101017B7FC1
:1004400070930101709102017F777093020180E047
:10045000809363018FE080930D018091630180930D
:100460000E010E948F0880E090E0ACE7B1E08D9330
:100470009C9380E090E0A6E8B1E18D939C935E9A16
:100480005F9A08950E9469020E948702A1E0B1E08C
:100490008C9181FB81E00EF080E08F9300916301ED
:1004A000003081E009F080E09F918923882311F4D6
:1004B0000C945D0200000C945F020E94A303009163
:1004C0006301013011F00C94680284E08093810094
:1004D000089581E00E94AC1288E080930D010E9493
:1004E000A30800910E01063011F40C9481020E94C1
:1004F000FD01ECEFF7E20E943F130E94D8110E9429
:10050000E41181E0481A80E0580A2296089582E1B9
:1005100080930D010E94A30880910E018093090130
:10052000A9E0B1E08C9184B98DE080930D010E9427
:10053000A30880910E018093080100910801013009
:1005400081E008F080E08F9300910801083080E09E
:1005500010F009F081E09F91892B882311F40C940D
:10056000BD0288E0809308018DE080930D018091A9
:10057000080180930E010E948F0880E0809304019F
:10058000709101017F7D70930101709101017E7F67
:1005900070930101709101017F7B709301018FE0E5
:1005A00080930D010E94A30880910E018093630146
:1005B00080E180930D010E94A308AEE0B1E08C9130
:1005C000AEE7B1E08D9388278C9398E0AEE7B1E079
:1005D0000E94021381E180930D010E94A308AEE7FF
:1005E000B1E00D911C91AEE0B1E04D915527042B87
:1005F000152BAEE7B1E00D931C9300E010E020E076
:1006000030E0ACE8B1E10D931D932D933C938CE069
:1006100080930D010E94A308ACE8B1E10D911D91FA
:100620002D913C91AEE0B1E04C915527662777279C
:100630000E944813ACE8B1E10D931D932D933D93B7
:1006400098E0ACE8B1E10E940D138BE080930D01BE
:100650000E94A308ACE8B1E10D911D912D913C9150
:10066000AEE0B1E04C915527662777270E944813EA
:10067000ACE8B1E10D931D932D933D9398E0ACE868
:10068000B1E10E940D138AE080930D010E94A3083E
:10069000ACE8B1E10D911D912D913C91AEE0B1E03E
:1006A0004C915527662777270E944813ACE8B1E1A3
:1006B0000D931D932D933D9398E0ACE8B1E10E941A
:1006C0000D1389E080930D010E94A308ACE8B1E10D
:1006D0000D911D912D913C91AEE0B1E04C915527CB
:1006E000662777270E944813ACE8B1E10D931D936C
:1006F0002D933D934FEF5FE760E070E0ACE8B1E130
:100700000D911D912D913C910E9452130CF402C049
:100710000C949103709101017F7E709301010C9400
:10072000A2037091010170617093010180E08093D8
:1007300063018FE080930D018091630180930E012E
:100740000E948F0808958FEF80930E010E941B0472
:100750008FEF80930E010E941B040E943C0781E0F2
:1007600080930F0100910F010A3018F011F00C94E2
:10077000CE03AFE0B1E0AD90BB24A2E1B1E0AA0DA1
:10078000BB1D8C9180930E010E941B04AFE0B1E071
:100790008C918F5F8C9310F40C94B20382E380935E
:1007A0000E010E941B0480E380930E010E941B0433
:1007B00080911D0180930E010E941B0480911E01F7
:1007C00080930E010E941B04AEE7B1E08C91AEE075
:1007D000B1E08C930E941B04AEE7B1E011968C91BE
:1007E000AEE0B1E08C930E941B04809108018093DD
:1007F0000E010E941B048091090180930E010E944A
:100800001B048EE080930D010E94A3080E941B042C
:100810008FEF80930E010E941B048FEF80930E01D7
:100820000E941B048EE080930D0180E080930E01F6
:100830000E948F08089570917A007F7770937A00F4
:10084000A1E0B1E08C9184FB16F40C94A504ACE813
:10085000B1E10D911D912D913C91A8E8B1E10D936D
:100860001D932D933C930E94B004ACE8B1E10E942B
:100870009A11ACE8B1E10D911D912D913C91A0E947
:10088000B1E10D931D932D933C934FEF5FE760E033
:1008900070E0ACE8B1E10D911D912D913C910E9469
:1008A00052130CF002C00C94660480E08093630144
:1008B0008FE080930D018091630180930E010E946F
:1008C0008F087091010170617093010189E080933C
:1008D0000D01009190114FEF0423AEE0B1E00C93B5
:1008E0000E948F088AE080930D0198E0A0E9B1E1B1
:1008F0000E941E13009190114FEF0423AEE0B1E06F
:100900000C930E948F088BE080930D0198E0A0E982
:10091000B1E10E941E13009190114FEF0423AEE04D
:10092000B1E00C930E948F088CE080930D0198E059
:10093000A0E9B1E10E941E13009190114FEF042332
:10094000AEE0B1E00C930E948F0870917A0070685D
:1009500070937A0070917A00706470937A000895B1
:1009600080EA80930A0100910A0140911001042B52
:10097000AAE0B1E00C93009188114FEF0423A2E1AB
:10098000B1E00C9398E0A8E8B1E10E94EF12009169
:1009900088114FEF0423A1E1B1E00C9343980E942A
:1009A000741210910A010E947E12109111010E948E
:1009B0007E12109112010E947E1210910E010E946F
:1009C0007E120E9476128AE090E00E944E12439AB4
:1009D000089580EA80930A0100910A014091100174
:1009E000042BAAE0B1E00C93009188114FEF04238F
:1009F000A2E1B1E00C9398E0A8E8B1E10E94EF1207
:100A0000009188114FEF0423A1E1B1E00C930E9403
:100A1000741210910A010E947E12109111010E941D
:100A20007E12109112010E947E120E947412AAE09E
:100A3000B1E08C918F5F8C9310910A010E947E121D
:100A40000E949B12AEE0B1E01C930E9476120895C2
:100A500080EA80930A0100910A0140911001042B61
:100A6000AAE0B1E00C938FEF80930E01439800E071
:100A700010E020E030E0A8E8B1E10D931D932D9344
:100A80003C93A8E8B1E10D911D912D913C91A0E915
:100A9000B1E10D931D932D933C93009190114FEF75
:100AA0000423A2E1B1E00C9398E0A0E9B1E10E9437
:100AB000EF12009190114FEF0423A1E1B1E00C93EC
:100AC0000E94741210910A010E947E12109111016D
:100AD0000E947E12109112010E947E1280E080938B
:100AE0000D0110910E010E947E12ADE0B1E08C91DB
:100AF0008F5F8C93A8E8B1E10E949A1100910D01DB
:100B0000003411F00C9471050E9476128AE090E096
:100B10000E944E1280E489B94FEF5FE760E070E019
:100B2000A8E8B1E10D911D912D913C910E945213C5
:100B30001CF011F00C949E050C94A0050C94A205D9
:100B40000C944105439A08958091130180930D01FF
:100B5000809117018093130180910D0180931701FB
:100B60008091140180930D018091180180931401EC
:100B700080910D018093180180E080930D01ADE01C
:100B8000B1E08C918F5F8C9380910D0180930A016D
:100B9000AAE0B1E08C918F5F8C93ADE0B1E0AD90B5
:100BA000BB24A2E1B1E0AA0DBB1D0C914AE0049F59
:100BB000AEE0B1E00C9200910E01AAE0B1E0AD9080
:100BC000BB24A2E1B1E0AA0DBB1D4C91040FAEE025
:100BD000B1E00C9300910D01043010F00C94FD0570
:100BE00000910E010B3318F011F00C94F9050C94E0
:100BF000FB050C9438070C946506053011F00C9435
:100C00000E0600910E01073118F011F00C940A063F
:100C10000C940C060C9438070C946506073011F000
:100C20000C94270600910E010F3118F011F00C946E
:100C30001B060C941D060C94380700910E01003021
:100C400011F00C9425060C9438070C9465060930B5
:100C500011F00C94400600910E010C3018F011F0C8
:100C60000C9434060C9436060C94380700910E014F
:100C7000003011F00C943E060C9438070C94650675
:100C80000B3011F00C944E0600910E01043111F45A
:100C90000C944C060C9438070C9465060D3011F03A
:100CA0000C94650600910E01033618F011F00C94B7
:100CB0005B060C945D060C94380700910E01003021
:100CC00010F00C9465060C943807ADE0B1E08C91FF
:100CD0008F5F8C9300910D010E3011F00C94BF05C5
:100CE00080E080930D01ADE0B1E08C918F5F8C933B
:100CF000ADE0B1E0AD90BB24A2E1B1E0AA0DBB1D17
:100D00008C9180930A0194E0AAE0B1E00E94DB128A
:100D1000ADE0B1E08C918F5F8C93ADE0B1E0AD9030
:100D2000BB24A2E1B1E0AA0DBB1D8C9180930E0102
:100D300000910A0140910E01042BADE0B1E0AD90AD
:100D4000BB24A2E1B1E0AA0DBB1D0C9300910D01E3
:100D50000D3018F011F00C94AF060C94730680E07F
:100D600080930D0180ED80930A0180E880930E014D
:100D70000E94741210910A010E947E1210910D01BE
:100D80000E947E1210910E010E947E120E94761225
:100D900084E080930C0181E080930D0180ED8093CD
:100DA0000A01ACE0B1E0AD90BB24A2E1B1E0AA0D34
:100DB000BB1D8C9180930E010E94741210910A0148
:100DC0000E947E1210910D010E947E1210910E0160
:100DD0000E947E120E947612ACE0B1E08C918F5F8F
:100DE0008C93ACE0B1E08C918F5F8C93ADE0B1E07F
:100DF0008C918F5F8C9300910D01033011F00C9456
:100E00000607ADE0B1E08C918F5F8C9300910D01EE
:100E1000063011F00C941607ACE0B1E08C918F5FB6
:100E20008C93ACE0B1E08C918F5F8C9300910D01BD
:100E3000073011F00C94D10680E080930D01809171
:100E4000140180930E010E94741210910A010E94F5
:100E50007E1210910D010E947E1210910E010E94CF
:100E60007E120E94761280E0809303010C943B076F
:100E700081E080930301089581E080930C0180E07C
:100E800080930D0180ED80930A010E9474121091ED
:100E90000A010E947E1210910D010E947E120E9492
:100EA0007412AAE0B1E08C918F5F8C9310910A01CB
:100EB0000E947E120E949D12AEE0B1E01C93009150
:100EC0000D01033011F40C94A00700910E014FE0C6
:100ED0000423AAE0B1E00C93AAE0B1E08C91805D1C
:100EE0008C9394E0AEE0B1E00E94E512AEE0B1E098
:100EF0008C918F708C93AEE0B1E08C91805D8C937F
:100F000080910E01ACE0B1E0AD90BB24A2E1B1E074
:100F1000AA0DBB1D8C93ACE0B1E08C918F5F8C93DC
:100F200080910A01ACE0B1E0AD90BB24A2E1B1E058
:100F3000AA0DBB1D8C93ACE0B1E08C918F5F8C93BC
:100F4000ADE0B1E08C918F5F8C9300910D01063084
:100F500011F00C945A070E949B12AEE0B1E01C9372
:100F600000910E014FE00423AAE0B1E00C93AAE047
:100F7000B1E08C91805D8C9394E0AEE0B1E00E9492
:100F8000E512AEE0B1E08C918F708C93AEE0B1E0F1
:100F90008C91805D8C9380910E01ACE0B1E0AD90BE
:100FA000BB24A2E1B1E0AA0DBB1D8C93ACE0B1E083
:100FB0008C918F5F8C9380910A01ACE0B1E0AD9091
:100FC000BB24A2E1B1E0AA0DBB1D8C930E94761256
:100FD0008091130180930D0180911701809313017B
:100FE00080910D01809317018091140180930D0170
:100FF000809118018093140180910D018093180154
:10100000089580E080930D01ADE0B1E08C918F5F99
:101010008C9380910D0180930A01AAE0B1E08C913C
:101020008F5F8C9300910D010B3011F00C941E0812
:10103000E2E1F8E20E943F130E94D811ADE0B1E076
:10104000AD90BB24A2E1B1E0AA0DBB1D8C91A8E933
:10105000B1E18D9388278C93A8E9B1E10E94D21168
:10106000AAE0B1E0AD90BB24A2E1B1E0AA0DBB1DA6
:101070008C91A8E9B1E18D9388278C93A8E9B1E11F
:101080000E94D21100910D01013011F00C94500812
:10109000E6E1F8E20E943F130E94D8110C947E080A
:1010A000033011F00C945C08E6E1F8E20E943F1373
:1010B0000E94D8110C947E08053011F00C94680839
:1010C000E8E1F8E20E943F130E94D8110C947E08D8
:1010D000073011F00C947408EAE1F8E20E943F1323
:1010E0000E94D8110C947E08093011F00C947E08EF
:1010F000EAE1F8E20E943F130E94D811ADE0B1E0AE
:101100008C918F5F8C9300910D010B3018F011F0D2
:101110000C948C080C9404080E94E411089580ED4E
:1011200080930A010E94741210910A010E947E129B
:1011300010910D010E947E1210910E010E947E12EC
:101140000E947612089580ED80930A010E94741225
:1011500010910A010E947E1210910D010E947E12D0
:101160000E947412AAE0B1E08C918F5F8C93109171
:101170000A010E947E120E949B12AEE0B1E01C9315
:101180000E947612089581E00E94AC1281E0A8814D
:10119000B9818C9340910801A881B9810C91041701
:1011A00018F011F00C94F108A881B981AD90BB241E
:1011B000A4E6B1E0AA0CBB1CAA0DBB1D8D919C91AD
:1011C000A8E7B1E08D939C9332E0A8E7B1E00E94DC
:1011D000DF11A881B9818C918F5F8C9310F40C94EE
:1011E000CA0881E0481A80E0580A22960895ECE186
:1011F000F8E20E943F130E94D811A0EAB0E4ECE8A4
:10120000F1E10E9468130E94D011E4E3F8E20E9429
:101210003F130E94D8110E94E4110FEF1FE720E056
:1012200030E0ACE8B1E14D915D916D917C910E940F
:101230004D13A8E8B1E10D931D932D933D93ECE37D
:10124000F8E20E943F130E94D811A0EAB0E4E8E857
:10125000F1E10E9468130E94D011E4E3F8E20E94D9
:101260003F130E94D8110E94E4110895E89886E483
:10127000482F00916401041711F00C9446098091E5
:1012800069008C7F826080936900E89A82E5482F2C
:1012900000916401041711F00C94540980916900C5
:1012A000836080936900E89A08950E94E411E4E560
:1012B000F8E20E943F130E94D8110E94E4110E949C
:1012C000E411E6E7F8E20E943F130E94D8110E9461
:1012D000E4110E94E411EAE9F8E20E943F130E943F
:1012E000D8110E94E4110E94E411E2ECF8E20E949D
:1012F0003F130E94D8110E94E4110E94E411E2EF12
:10130000F8E20E943F130E94D8110E94E4110E944B
:10131000E411E6E4F9E20E943F130E94D8110E9412
:10132000E4110E94E411EAE9F9E20E943F130E94ED
:10133000D8110E94E411EEE2FAE20E943F130E94EB
:10134000D8110E94E411EEE9FAE20E943F130E94D4
:10135000D8110E94E4110E94E411ECEDFAE20E941F
:101360003F130E94D8110E94E4110E94E411E2E3AD
:10137000FBE20E943F130E94D8110E94E4110E94D8
:10138000E411EAE5FBE20E943F130E94D8110E949B
:10139000E4110E94E411EAEAFBE20E943F130E947A
:1013A000D8110E94E411ECEDFBE20E943F130E9471
:1013B000D8110E94E411EEE1FCE20E943F130E946A
:1013C000D8110E94E4110E94E411E4E4FCE20E94BE
:1013D0003F130E94D8110E94E4110E94E411E4E836
:1013E000FCE20E943F130E94D8110E94E4110E9467
:1013F000E411E0EAFCE20E943F130E94D8110E942F
:10140000E4110E94E411E8EEFCE20E943F130E9406
:10141000D8110E94E411EEE1FCE20E943F130E9409
:10142000D8110E94E4110E94E411E2E3FDE20E945F
:101430003F130E94D8110E94E4110E94E411EEE4CF
:10144000FDE20E943F130E94D8110E94E4110E9405
:10145000E411E2E9FDE20E943F130E94D8110E94CC
:10146000E4110E94E411E2EEFDE20E943F130E94AB
:10147000D8110E94E4110E94E411ECE2FEE20E9405
:101480003F130E94D8110E94E4110E94E411E0E58C
:10149000FEE20E943F130E94D8110E94E4110E94B4
:1014A000E411E6E9FEE20E943F130E94D8110E9477
:1014B000E4110E94E411E6EBFEE20E943F130E9459
:1014C000D8110E94E4110E94E411EAECFEE20E94AD
:1014D0003F130E94D8110E94E4110E94E411E6EF2C
:1014E000FEE20E943F130E94D8110E94E4110E9464
:1014F000E41108950F921F922F923F924F925F92A4
:101500007F92AF92BF920F931F932F933F934F936E
:101510005F936F937F938F939F93AF93BF93CF937B
:10152000DF93EF93FF938FB78F938BB78F938827BA
:101530008BBF7AE676BD80E889B9ACE7B1E00E945E
:10154000A711A0E8B1E04D915C91ACE7B1E00D913D
:101550001C910417150711F00C941E0B80E090E00D
:10156000ACE7B1E08D939C93A1E0B1E08C9183FB5B
:1015700016F00C94120BA2E8B1E10D911C91083FFA
:1015800057E0150710F00C94F70A81E080930B01E7
:101590004091080100910B01041718F011F00C9410
:1015A000F50AABE0B1E0AD90BB24A4E6B1E0AA0C33
:1015B000BB1CAA0DBB1D8D919C91A2E8B1E1AD9021
:1015C000BD90A0E8B1E0AA0CBB1CAA0DBB1D8D9379
:1015D0009C93A2E8B1E10E94A711ABE0B1E08C912D
:1015E0008F5F8C9310F40C94C80A0C94100B88270E
:1015F00085BDA2E8B1E10D911C9141E050E0041BD2
:10160000150BA4E8B1E10D931C9381E090E0A2E8F2
:10161000B1E18D939C93709101017460709301010D
:101620000C941E0BA1E0B1E08C9185FB16F00C949C
:101630001E0B709101017160709301018F918BBF3E
:101640008F918FBFFF91EF91DF91CF91BF91AF91BC
:101650009F918F917F916F915F914F913F912F91CA
:101660001F910F91BF90AF907F905F904F903F90F0
:101670002F901F900F9018950F921F922F923F92CC
:101680004F925F927F92AF92BF920F931F932F93CF
:101690003F934F935F936F937F938F939F93AF93FA
:1016A000BF93CF93DF93EF93FF938FB78F938BB756
:1016B0008F9388278BBF85EE98E490938500809365
:1016C000840080E889B9ACE7B1E00E94A711AEE7D9
:1016D000B1E04D915C91ACE7B1E00D911C91041724
:1016E000150711F00C94AF0B80E090E0ACE7B1E08F
:1016F0008D939C9381E080930B01409108010091B0
:101700000B01041718F011F00C94AF0BABE0B1E033
:10171000AD90BB24A4E6B1E0AA0CBB1CAA0DBB1D76
:101720008C91AEE0B1E08C930E941B04ABE0B1E081
:10173000AD90BB24A4E6B1E0AA0CBB1CAA0DBB1D56
:1017400011968C91AEE0B1E08C930E941B04ABE04B
:10175000B1E08C918F5F8C9310F40C947D0B8F9182
:101760008BBF8F918FBFFF91EF91DF91CF91BF9191
:10177000AF919F918F917F916F915F914F913F9129
:101780002F911F910F91BF90AF907F905F904F90DE
:101790003F902F901F900F9018950F921F922F92AD
:1017A0003F924F925F927F92AF92BF920F931F939F
:1017B0002F933F934F935F936F937F938F939F9359
:1017C000AF93BF93CF93DF93EF93FF938FB78F9335
:1017D0008BB78F9388278BBFA6E8B1E10E94A71132
:1017E0008F918BBF8F918FBFFF91EF91DF91CF9141
:1017F000BF91AF919F918F917F916F915F914F9129
:101800003F912F911F910F91BF90AF907F905F906C
:101810004F903F902F901F900F9018950F921F920E
:101820002F923F924F925F927F92AF92BF920F930F
:101830001F932F933F934F935F936F937F938F9358
:101840009F93AF93BF93CF93DF93EF93FF938FB7A4
:101850008F938BB78F9388278BBFA6E0B1E08091E1
:101860007C008C93A6E0B1E08C91887F8C930091F2
:10187000060140910401042BA6E0B1E00C93A6E020
:10188000B1E08C9180937C00A6E0B1E0809178007B
:101890008C9380917900A4E0B1E0AD90BB24A6E6E2
:1018A000B1E0AA0CBB1CAA0DBB1D8D9388278C939D
:1018B000009106010F3F11F00C94610C8EEF8093A4
:1018C000060198E0A4E0B1E0AD90BB24A6E6B1E04B
:1018D000AA0CBB1CAA0DBB1D0E940213A4E0B1E020
:1018E000AD90BB24A6E6B1E0AA0CBB1CAA0DBB1DA3
:1018F0000D911C91A6E0B1E04D915527042B152BBD
:10190000A4E0B1E0AD90BB24A6E6B1E0AA0CBB1CFC
:10191000AA0DBB1D0D931C93A4E0B1E08C918F5FC9
:101920008C934091080100910401041710F40C9469
:101930009C0C80E08093040170917A007064709335
:101940007A008F918BBF8F918FBFFF91EF91DF91C5
:10195000CF91BF91AF919F918F917F916F915F9147
:101960004F913F912F911F910F91BF90AF907F901A
:101970005F904F903F902F901F900F9018950F926F
:101980001F922F923F924F925F927F92AF92BF929F
:101990000F931F932F933F934F935F936F937F9377
:1019A0008F939F93AF93BF93CF93DF93EF93FF9367
:1019B0008FB78F938BB78F9388278BBFA1E0B1E050
:1019C0008C9183FB16F00C94F10C882785BD80E088
:1019D00090E0ACE7B1E08D939C937AE676BD82E02F
:1019E00085BD8F918BBF8F918FBFFF91EF91DF915D
:1019F000CF91BF91AF919F918F917F916F915F91A7
:101A00004F913F912F911F910F91BF90AF907F9079
:101A10005F904F903F902F901F900F9018950F92CE
:101A20001F922F923F924F925F927F92AF92BF92FE
:101A30000F931F932F933F934F935F936F937F93D6
:101A40008F939F93AF93BF93CF93DF93EF93FF93C6
:101A50008FB78F938BB78F9388278BBF0E94C3114B
:101A6000A7E0B1E08C9300910701003011F40C94D1
:101A70007A11009107010B3111F00C94560DA1E081
:101A8000B1E08C9186FB16F40C944E0D709101011F
:101A90007064709301015E980C94540D7091010173
:101AA0007F7B709301015E9A0C947A11A1E0B1E002
:101AB0008C9186FB16F00C947A11709101017F7B5A
:101AC0007093010180E080930301009107010133CD
:101AD00011F00C94D50D0E94E411E4E1FFE20E94A4
:101AE0003F130E94D81133E00E94AE11A0EAB0E487
:101AF0000E94BE13AEE0B1E00C93E0E3FFE20E946F
:101B00003F130E94D8113CE00E94AE11A0EAB0E45D
:101B10000E94BE13A0E9B1E10D931D932D933D9357
:101B20000E94E411E8E4FFE20E943F130E94D811F2
:101B3000A0EAB0E4EEE0F1E00E9474130E94D0113C
:101B40000E94E411A0E9B1E10D911D912D913C910C
:101B5000A8E8B1E10D931D932D933C930E94B0042E
:101B600080E080930E01A0E9B1E10D911D912D91CE
:101B70003C91A8E8B1E10D931D932D933C930E94F5
:101B8000E904E8E5FFE20E943F130E94D811A0EAB1
:101B9000B0E4EEE0F1E00E9474130E94D0110E94C4
:101BA000E4110E94E4110C947911093311F00C94A2
:101BB000E50D0E94C911A7E0B1E08C9331E0A7E0E8
:101BC000B1E00E94DF110C947911013411F00C94F2
:101BD000210E0E94C911A7E0B1E08C93009107018A
:101BE000003380E010F009F081E08F93009107014D
:101BF000093381E008F080E09F918923882311F464
:101C00000C94150E0091070140E3041BA8E0B1E01D
:101C10000C938DE080930D018091080180930E015B
:101C20000E948F0880E0809304018EE080930D0174
:101C300089E080930E010E948F080E9442020C945A
:101C40007911023411F00C947C0E36E00E94AE1132
:101C5000A0EAB0E40E94BE13A8E7B1E00D931C9384
:101C6000A8E7B1E00D911C91003050E0150780E02D
:101C700010F009F081E08F9340E050E061E070E007
:101C8000A8E7B1E00D911C91222733270E9452133F
:101C900080E00CF481E09F918923882311F40C9457
:101CA000700EA8E7B1E08D919C91AEE7B1E08D9305
:101CB0009C9380E180930D01AEE7B1E011968C9189
:101CC000AEE0B1E08C930E948F0881E180930D011A
:101CD000AEE7B1E08C91AEE0B1E08C930E948F084A
:101CE0008EE080930D0182E080930E010E948F08A8
:101CF0000E9442020C947911033411F00C94A50E49
:101D00000E94C911A5E6B1E08C9331E0A5E6B1E0EF
:101D10000E94DF110E94FD0180E090E0A6E8B1E1A1
:101D20008D939C9380E090E0909395008093940035
:101D300080919100887F809391005F98709102015B
:101D40007068709302010C947911043411F00C94B2
:101D5000BD0E0E94C911A9E0B1E08C93A9E0B1E0E9
:101D60008C9184B982E180930D0180910901809367
:101D70000E010E948F080C947911083411F00C9414
:101D8000FE0E81E080930D0100910D010E3018F0E0
:101D900011F00C94E80E0E94C911AAE0B1E08C93F6
:101DA000AAE0B1E08C9180538C9380910A01ADE060
:101DB000B1E0AD90BB24A2E1B1E0AA0DBB1D8C93B4
:101DC000ADE0B1E08C918F5F8C9310F40C94C40E55
:101DD0000E94A40586E080930E0188E080930D01A7
:101DE0000E948F088EE080930D0185E080930E01A4
:101DF0000E948F080E9442020C947911093411F05C
:101E00000C948E0FF89480E0809363018FE08093B0
:101E10000D018091630180930E010E948F088AE07A
:101E200090E0AEE7B1E08D939C9380E180930D014B
:101E3000AEE7B1E011968C91AEE0B1E08C930E94D8
:101E40008F0881E180930D01AEE7B1E08C91AEE0A7
:101E5000B1E08C930E948F0800E010E020E030E0B9
:101E6000ACE8B1E10D931D932D933C93ACE8B1E147
:101E70000D911D912D913C91A0E9B1E10D931D9320
:101E80002D933C9389E080930D01009190114FEFC9
:101E90000423AEE0B1E00C930E948F088AE08093A7
:101EA0000D0198E0A0E9B1E10E941E13009190118C
:101EB0004FEF0423AEE0B1E00C930E948F088BE05B
:101EC00080930D0198E0A0E9B1E10E941E130091FA
:101ED00090114FEF0423AEE0B1E00C930E948F0805
:101EE0008CE080930D0198E0A0E9B1E10E941E13FF
:101EF000009190114FEF0423AEE0B1E00C930E94EB
:101F00008F088EE080930D0181E080930E010E9486
:101F10008F080E94420278940C9479110F3411F0CA
:101F20000C94B30F0E94C911A4E6B1E08C9336E083
:101F30000E94AE11A0EAB0E40E94BE13A0E8B1E096
:101F40000D931C930E94FD017091010178607093C4
:101F5000010181E090E0A2E8B1E18D939C930E94A1
:101F600036090C947911003511F00C94BB0F0E94C6
:101F7000FD010C947911023511F00C94E80F0E94C8
:101F8000FD0185EE98E4909385008093840081E0C4
:101F9000809363018FE080930D01809163018093B2
:101FA0000E010E948F088EE080930D0188E08093DF
:101FB0000E010E948F080E94420280E090E0ACE790
:101FC000B1E08D939C9384E0809381000C9479110F
:101FD000033511F00C94F80F0E94C911A7E0B1E08D
:101FE0008C9304B140910701042305B90C94791135
:101FF000043511F00C941A1036E00E94AE11A0EADC
:10200000B0E40E94BE13A0E8B1E00D931C930E94BF
:10201000FD0180E090E0ACE7B1E08D939C937AE61F
:1020200076BD7091010170627093010182E085BDFF
:102030000C947911093511F00C9437100E94C911D4
:10204000A7E0B1E08C9388E4482F009107010417C2
:1020500011F00C942C10429884E4482F0091070151
:10206000041711F00C943510429A0C9479110A352A
:1020700011F00C944E10F89474B7777F74BF88E118
:102080008093600080E080936000809160008860B1
:10209000809360000C944A100C947911013611F071
:1020A0000C9456100E94C3080C947911023611F05A
:1020B0000C947D100E94C911A7E0B1E08C930091AF
:1020C000070140E3041BAAE0B1E00C93AAE0B1E0F1
:1020D000AD90BB24A4E6B1E0AA0CBB1CAA0DBB1DAD
:1020E0008D919C91A8E7B1E08D939C9332E0A8E795
:1020F000B1E00E94DF110C947911033611F00C94B9
:10210000881031E0A3E2B0E00E94DF110C94791155
:10211000043611F00C94EC1080918100887F80933C
:102120008100882785BD70917A007F7770937A004F
:1021300000E010E020E030E0A0E9B1E10D931D9354
:102140002D933C93ACE8B1E14D915D916D917C9103
:10215000A0E9B1E10D911D912D913C910E94521386
:102160000CF402C00C94CD10A0E9B1E10D911D91C9
:102170002D913C91A8E8B1E10D931D932D933C93D3
:102180000E94E90431E0AEE0B1E00E94DF11A0E975
:10219000B1E10E949A110C94A2108EE080930D017F
:1021A00083E080930E010E948F080E94420270918A
:1021B0007A00706870937A0070917A0070647093FE
:1021C0007A0000916301013011F00C94EA1084E070
:1021D000809381000C947911053611F00C9435111F
:1021E000EEEDF7E20E943F130E94D8110E94E41125
:1021F000ECEEF7E20E943F130E94D8110E94E41116
:10220000E6E6FFE20E943F130E94D81182EA0E9494
:10221000E711ECE6FFE20E943F130E94D811A0EA0A
:10222000B0E4E2E7FFE20E943F130E94D5120E9451
:10223000D0110E94E411EAE7FFE20E943F130E94DE
:10224000D8110E94E411E0E9FFE20E943F130E94CE
:10225000D8110E94E411E4ECFFE20E943F130E94B7
:10226000D8110E94E4110C947911063611F00C94E7
:102270003D110E9455090C947911083611F00C9407
:1022800047110E943C070E9401080C9479110D36F9
:1022900011F00C944F110E94F7080C947911043737
:1022A00011F00C947511A1E0B1E08C9183FB81E0F9
:1022B0000EF080E08F9380E5482F009164010417B1
:1022C00081E009F080E09F918923882311F40C9428
:1022D000731180E090E0ACE7B1E08D939C937AE6D7
:1022E00076BD82E085BD0C9479118EE4A3E0B1E067
:1022F0008C935E9A8F918BBF8F918FBFFF91EF91DF
:10230000DF91CF91BF91AF919F918F917F916F910D
:102310005F914F913F912F911F910F91BF90AF907F
:102320007F905F904F903F902F901F900F90189547
:10233000F894FFCF0D911D912D913C910F5F1F4F90
:102340002F4F3F4F3C932E931E930E930895ED9184
:10235000FC91EF5FFF4FFC93EE930895A0EAB0E489
:1023600018D08D3039F03323D9F38D933A9563FE2D
:102370002ED0F6CF63FC04C08DE029D08AE027D0B0
:1023800088278C93089588270090C00007FE089541
:1023900000C08091C00087FFFCCF8091C6000895E7
:1023A000A0EAB0E48D91882311F011D0FBCF0895FD
:1023B0000E942F13802D11F00AD0FACF08958D912D
:1023C00006D03A95E1F708958DE001D08AE00090BB
:1023D000C00005FEFCCF8093C600089500FC05D028
:1023E000089530D005D001F8F9CF37D03FD0089507
:1023F000842F952FA62FB72FE894452B462B472BDC
:1024000011F468940895402F512F622F732F0027E5
:10241000112722273327F0E2440F551F661F771F2D
:10242000001F111F221F331F081B190B2A0B3B0B08
:10243000416028F4080F191F2A1F3B1F4E7FFA9591
:1024400059F708950024E89477FF02C006D06894F5
:1024500000F809D010F80124089512D04F5F5F4FA3
:102460006F4F7F4F0895E89437FF089500951095BA
:10247000209530950F5F1F4F2F4F3F4F6894089561
:10248000409550956095709508953197F1F70895AE
:10249000689462F80895E89462F80895EF93FF93C2
:1024A000EE27E82BE92B31F0E8EBFBE03197F1F771
:1024B0000197D1F7FF91EF91089539983898419A93
:1024C000409A089568944093BC008F939F93882707
:1024D0009927019629F04091BC0047FFFACFE89474
:1024E0009F918F9162F8089544EAECCF44E94093BC
:1024F000BC004091BC0047FDFCCF08951093BB0089
:1025000044E8E0DF8F939F9388279927019671F025
:102510004091B900487F483FC9F3E894483139F009
:10252000483229F0403419F0403509F068949F9101
:102530008F9162F8089544E801C044ECC3DF109124
:10254000BB004091B900487F483FD9F308955A92A3
:102550004A92480E591E08955A924A92480E882768
:10256000581E08950F921F922F92C801D901489FBB
:1025700080014A9F90014B9F202C499F100D211DE7
:10258000321D5A9F202C589F100D211D321D599F1E
:10259000200D311D689F200D311D699F300D789FE2
:1025A000300D2F901F900F9008950E942F130D92C1
:1025B0000020D9F70895903039F08C91880F08F4F5
:1025C00081609A95D9F78C930895903039F08C9169
:1025D000869508F480689A95D9F78C930895903081
:1025E00081F00D911D912D913C9136952795179570
:1025F000079508F430689A95C1F73C932E931E9383
:102600000E930895903041F00D911C91000F111F11
:102610009A95E1F71C930E930895903071F00D9107
:102620001D912D913C91000F111F221F331F9A9570
:10263000D1F73C932E931E930E930895903071F032
:102640000D911D912D913C913695279517950795E4
:102650009A95D1F73C932E931E930E930895D89597
:10266000319628F48F938BB783958BBF8F91002081
:1026700008950F9301E00BBF0F91889408950F9375
:102680000027F9CF0F9302E0F6CF0F9303E0F3CFCB
:10269000040F151F261F371F0895041B150B260B4B
:1026A000370B089504171507260737070895000FFD
:1026B000111F221F331F0895009510952095309506
:1026C0000F5F1F4F2F4F3F4F0895019110810EC094
:1026D00001911191219130810BC00191108117FF5F
:1026E00005C03FEF2FEF04C00081112722273327B9
:1026F00037FF03C0E1DF8DE28D93CF93DF93CF925D
:10270000DF92EF92AA24BB24CC24DD24EE2440E205
:10271000CAE0DD2755E093E38881890F87FD9F702C
:1027200083FD907F891B89935A95A9F7C0DFAA1C66
:10273000BB1CCC1CDD1CEE1C4A9551F7E894EFE065
:10274000FF2782910ED0EB30E0F71EF068948A2DBF
:102750000CD088278D93EF90DF90CF90DF91CF91B1
:102760000895982F829501D0892F8F70805D26F073
:10277000803309F4089568948D93089500271127F4
:10278000222733271DD08A3328F4803318F005D050
:1027900015D0F9CF0EF490CF089580538F93402F2A
:1027A000512F622F732F83DF82DF72DF80DF8F91E3
:1027B0009927080F191F291F391F08958D91089512
:1027C000E894FCDF8032E9F38B32D9F38930C9F326
:1027D0008D3211F46894F2CF08955744000050727E
:1027E0006F796563746F3A204144000045717569E3
:1027F000706F3A20202041514330310052656C6F98
:102800006A206E6F20696E696369616C697A6164C0
:102810006F00323000003A0020002F004D656D6FD0
:10282000726961207574696C697A616461202D2D0B
:102830003E20000020627974657300004D656D6F65
:102840007269612072657374616E7465202D2D2D1F
:102850003E2000004269656E76656E69646F206196
:10286000206C6120617975646120646520636F6DFF
:10287000616E646F73004553432030202D2D3E2040
:1028800054657374656F20646520737461636B7342
:102890002079206672616D65000045534320312028
:1028A0002D2D3E2047726162612079206C65652084
:1028B000756E206461746F20656E206C61204532F6
:1028C00000004553432039203C636861723E202D4F
:1028D0002D3E2045636F20646520756E2063617214
:1028E0006163746572206375616C7175696572618D
:1028F00000004553432041203C43616E745F636197
:102900006E616C3E202D2D3E20526563696265200C
:1029100063616E74696461642064652063616E61E3
:102920006C657320616E616CF36769636F733A2045
:102930003C43616E745F63616E616C3E2064652030
:102940003120612038004553432042203C545F72BF
:1029500065673E203044203041202D2D3E205265B9
:1029600063696265207469656D706F2064652072AB
:102970006567697374726F20656E20736567756E25
:10298000646F733A203C545F7265673E2064652033
:1029900031206120363535333500455343204320FF
:1029A0003C627974653E202D2D3E204D6964652082
:1029B0007469656D706F20656E74726520646F73E5
:1029C000207365F1616C657320656E20756E206DF6
:1029D00069736D6F2070696E202850696E432E34C4
:1029E0002C2066616C6C696E67207920726973694E
:1029F0006E67206564676529206F20656E74726557
:102A000020646F732070696E6573202850696E436F
:102A10002E342066616C6C696E67202079205069C5
:102A20006E432E352066616C6C696E67290020202C
:102A30002020202020202020202020202020203C7A
:102A4000627974653E202D2D3E20203C3078333154
:102A50003E2070617261205374617274207920533A
:102A6000746F7020656E2050696E432E34207C7C1C
:102A7000203C307833323E207061726120537461A3
:102A8000727420656E2050696E432E342079205375
:102A9000746F7020656E2050696E432E35002020C3
:102AA0002020202020202020202020202020204402
:102AB000657675656C766520656C206C6170736FEA
:102AC000206465207469656D706F20656E20757374
:102AD0006567202841534349492900004553432055
:102AE00044203C627974653E202D2D3E2052656362
:102AF00069626520656C20736574656F2064656C20
:102B00002073656E7469646F206465206C6F732038
:102B100063616E616C6573206469676974616C657B
:102B2000732028313D53414C2C20303D454E5429D3
:102B3000000045534320482068686D6D737344441A
:102B40004D4D41414141202D2D3E20536574656F0F
:102B500020646520686F726100004553432049205E
:102B60002D2D3E20426F727261646F206465206D6E
:102B7000656D6F72696120792054726567203D2010
:102B800035736567207C7C205469656D706F2064A7
:102B90006520726567697374726F2064656661751C
:102BA0006C743A20363073656700455343204F20DC
:102BB0003C747269676765723E203C696E74657229
:102BC00076616C6F3E203044203041202D2D3E2018
:102BD0004D6F646F204275727374000020202020B6
:102BE0002020547269676765723A202752273D4951
:102BF0006E74302F726973696E6720656467652033
:102C00007C7C202746273D496E74302F66616C6CB2
:102C1000696E67207C7C202750273D504300202090
:102C200020202020496E74657276616C6F3A2028EE
:102C30003120612036353533352920782031303048
:102C4000757300004553432050202D2D3E204465D0
:102C500073686162696C69746120746F646F73205A
:102C60006C6F73206D6F646F73202D2D3E20536F3A
:102C70006C6F2065736375636861206C61205253CB
:102C8000323332004573632052202D2D3E2048619F
:102C900062696C69746120726567697374726F0030
:102CA0004553432053203C627974653E202D2D3ED0
:102CB000205365746561206C61732073616C696475
:102CC0006173206465206163756572646F206120A3
:102CD0006C6F207175652072656369626520706F25
:102CE00072205253323332004553432054203C4922
:102CF0006E74657276616C6F3E202D2D3E204861AA
:102D000062696C697461207472616E736D69736954
:102D1000F36E206465206461746F7320636F6E745A
:102D2000696E756F20636F6E207265746172646F77
:102D30000000455343205A202D2D3E2052657365D7
:102D4000742064656C2065717569706F000045536F
:102D5000432061202D2D3E205472616E736D697485
:102D600065206461746F7320646520746F646F7391
:102D7000206C6F732063616E616C657320616E619E
:102D80006CF36769636F7320737465746561646F56
:102D900073004573632062203C43616E616C3E208A
:102DA0002D2D3E205472616E736D69746520656CC3
:102DB0002043616E616C20416E616CF36769636FE3
:102DC00020536F6C6963697461646F207C7C203C64
:102DD00043616E616C3E20446520312061203820C3
:102DE0000000455343206320792064657675656C47
:102DF0007665203C627974653E202D2D3E2054720C
:102E0000616E736D6974652065737461646F73209E
:102E10006465206C6F7320382063616E616C65732C
:102E2000206469676974616C6573000045534320D1
:102E300064202D2D3E2044657363617267612064B8
:102E400065206461746F732062696E6172696100EC
:102E5000455343206520792064657675656C7665F9
:102E6000206C6F73206461746F732064656C2065DF
:102E7000717569706F202D2D3E205472616E736DD7
:102E8000697465206461746F732064656C2065717A
:102E90007569706F00004553432066202D2D3E203C
:102EA000566572206C6973746120646520636F6D70
:102EB000616E646F73004553432068202D2D3E20C2
:102EC0005665722072656C6F6A00455343206D2011
:102ED0002D2D3E20566572206D656D6F72696120E3
:102EE0007574696C697A61646120792072657374A4
:102EF000616E746500004553432074202D2D3E20E3
:102F000054726967676572207061726120427572E0
:102F100073740000496E677265736520656C206488
:102F200061746F206E756D657269636F3A20000081
:102F3000496E6772657365206C61206469726563B0
:102F400063696F6E3A2000004461746F206573639B
:102F50007269746F3A2000004461746F206C656977
:102F6000646F3A2000005665727369006E3A202043
:102F70000000322E31312E32000046656368613A1E
:102F80002020202030352F30372F323031340000D0
:102F90004175746F7265733A20204C69632E204C22
:102FA0006973616E64726F20526176696F6C612023
:102FB0002F20496E672E204775737461766F2052FB
:102FC00065616C005573756172696F3A2020554ECA
:042FD0004753000063
:00000001FF
