:100000000C9446000C94640D18950000189500009F
:10001000189500001895000018950000189500002C
:10002000189500001895000018950000189500001C
:100030001895000018950000189500000C94960B78
:1000400018950000189500000C94D40A189500002B
:100050000C94B40D18950000189500001895000038
:100060000C94680C18950000189500001895000075
:1000700018950000189500001895000018950000CC
:1000800018950000189500000C94270C8FEF8DBF79
:10009000C0EDE8EB4E2E80E48EBFD0E4F0E45F2E9E
:1000A000A89584B7082E877F84BF88E1992780931D
:1000B000600090936000EEEFFFE3A0E0B1E08827DE
:1000C0008D933197E9F783E38093C40080E08093B8
:1000D000C50088E18093C100662400E012E12AE7B0
:1000E00030E0A1E0B1E00D931D932D933C93E0E04F
:1000F000FF270081A9E0B1E00C93A9E0B1E00C91E9
:1001000003FB16F00C948B007091050170687093DE
:1001100005010C949000709105017F7770930501A3
:100120000E94FB1370E07093B90078E47093B800FC
:1001300087E880937A0080E080937C0070917A0059
:100140007F7770937A0082E085BD80E084BD882748
:1001500085BD78E376BD80E08093800084E0809365
:10016000810080918100887F809381008CED9BE0ED
:10017000909385008093840080E08093900081E0DC
:100180008093910080919100887F8093910080E01E
:1001900090E090939500809394003A9A3B9A3C9813
:1001A0003D98569A579AF894709105017260709331
:1001B000050180E080931501439AA5E0B1E08C91A0
:1001C00087FB16F00C94F400E4E1FBE20E94DC14DF
:1001D0000E9476130E9482138EE0809312018AE0BF
:1001E000809313010E94E108E8E1FBE20E94DC1425
:1001F0000E9476130E948213E6E2FBE20E94DC1466
:100200000E9476130E94821342985E9A5F9881E062
:1002100080930F0100910F01083018F011F00C9439
:10022000210180E489B980E889B98DE790E00E94D6
:10023000EC13AFE0B1E08C918F5F8C9310F40C94D1
:100240000A010E94550270916E00716070936E00F9
:1002500070916F00716070936F00709171007160A8
:10026000709371008091C100806C8093C100709187
:100270007A00786070937A0080EF80930E01AEE090
:10028000B1E08C9184B982E18093120180910E01DA
:10029000809313010E94E1080E94A60270917A00E7
:1002A000706870937A0070917A00706470937A002D
:1002B000709105017D7F709305017894A6E0B1E00F
:1002C0008C9186FB16F00C94CA01709106017F7B1D
:1002D000709306013499FECF81E0809391000091E4
:1002E0006A01013311F00C947C01349BFECF8091A4
:1002F0009100887F8093910000916A01023311F090
:100300000C9489013599FECF80919100887F80936C
:100310009100ABE8B1E10D911C912227332740E019
:1003200050E061E070E00E945514A9E9B1E10D933D
:100330001D932D933D93A9E9B1E10D911D912D914F
:100340003C91A4E9B0E04D915C91662777270E942B
:10035000E514A9E9B1E10D931D932D933D93A9E90E
:10036000B1E10D911D912D913C9140E150E060E093
:1003700070E00E948F13A9E9B1E14D935D936D93F5
:100380007D93A0EAB0E4E9E9F1E10E9405150E943D
:100390006E135F9AA6E0B1E08C9187FB16F00C9487
:1003A000F601709106017F7770930601A5E0B1E038
:1003B0008C9180FB16F00C94F401ADE0B1E0AD90AF
:1003C000BB24A9E6B1E0AA0CBB1CAA0DBB1D8D91F4
:1003D0009C91ADE7B1E08D939C9332E0ADE7B1E045
:1003E0000E947D130C94F6010E941509A5E0B1E06E
:1003F0008C9182FB16F00C943302709105017B7F87
:100400007093050181E090E0AFE7B1E08D939C939C
:10041000A9E8B1E14D915C91AFE7B1E00D911C917C
:100420000417150718F011F00C943202AFE7B1E091
:10043000AD90BD90A5E8B1E0AA0CBB1CAA0DBB1DF8
:100440008D919C91ADE7B1E08D939C9332E0ADE747
:10045000B1E00E947D13AFE7B1E00E94171310F4E2
:100460000C9408025F9AA5E0B1E08C9186FB16F02F
:100470000C945302ADE9B1E10E941E1340E050E03C
:1004800060E070E0ADE9B1E10D911D912D913C91DD
:100490000E94EF1411F00C945302709105017F7BC0
:1004A000709305015E9A0C945E01882785BD80914A
:1004B0009100887F80939100709105017F7D7093FA
:1004C0000501709106017F77709306017091050117
:1004D0007F7B7093050170910501777F7093050113
:1004E000709105017E7F70930501709105017B7FFE
:1004F00070930501709106017F7B70930601A5E062
:10050000B1E08C9181FB16F40C94970280918100EC
:10051000887F8093810080E0809368018FE08093E2
:10052000120180916801809313010E94E10880E02C
:1005300090E0A1E8B1E08D939C9380E090E0ABE87F
:10054000B1E18D939C935E9A5F9A08950E94D402C4
:100550000E94B60200916801013011F00C94B502BE
:100560000E94F50384E080938100089581E00E9459
:100570004F1488E0809312010E94F5080091130146
:10058000063011F40C94CE020E945502E6E3FBE221
:100590000E94DC140E9476130E94821381E0481AA4
:1005A00080E0580A2296089582E1809312010E9409
:1005B000F5088091130180930E01AEE0B1E08C91BB
:1005C00084B98DE0809312010E94F5088091130197
:1005D00080930C0100910C01013081E008F080E073
:1005E0008F9300910C01083080E010F009F081E059
:1005F0009F91892B882311F40C940A0388E080933F
:100600000C018DE08093120180910C018093130105
:100610000E94E10880E080930801709105017F7DD0
:1006200070930501709106017F77709306017091B8
:1006300005017F7B70930501709105017E7F7093AA
:1006400005018FE0809312010E94F508809113014B
:100650008093680180E1809312010E94F508A3E174
:10066000B1E08C91A3E8B1E08D9388278C9398E05A
:10067000A3E8B1E00E94A31481E1809312010E94DB
:10068000F508A3E8B1E00D911C91A3E1B1E04D9113
:100690005527042B152BA3E8B1E00D931C9300E024
:1006A00010E020E030E0A1E9B1E10D931D932D931E
:1006B0003C938CE0809312010E94F508A1E9B1E11E
:1006C0000D911D912D913C91A3E1B1E04C915527E5
:1006D000662777270E94E514A1E9B1E10D931D93E8
:1006E0002D933D9398E0A1E9B1E10E94AE148BE017
:1006F000809312010E94F508A1E9B1E10D911D91CD
:100700002D913C91A3E1B1E04C91552766277727C5
:100710000E94E514A1E9B1E10D931D932D933D9342
:1007200098E0A1E9B1E10E94AE148AE08093120141
:100730000E94F508A1E9B1E10D911D912D913C9127
:10074000A3E1B1E04C915527662777270E94E51475
:10075000A1E9B1E10D931D932D933D9398E0A1E99B
:10076000B1E10E94AE1489E0809312010E94F50865
:10077000A1E9B1E10D911D912D913C91A3E1B1E071
:100780004C915527662777270E94E514A1E9B1E12E
:100790000D931D932D933D934FEF5FE760E070E065
:1007A000A1E9B1E10D911D912D913C910E94EF14B1
:1007B0000CF402C00C94E303709105017F7E7093EA
:1007C00005010C94F40370910501706170930501AB
:1007D00080E0809368018FE080931201809168012E
:1007E000809313010E94E10808958FEF8093130115
:1007F0000E946D048FEF809313010E946D040E948C
:100800008E0781E080931401009114010A3018F0E2
:1008100011F00C942004A4E1B1E0AD90BB24A7E159
:10082000B1E0AA0DBB1D8C91809313010E946D0451
:10083000A4E1B1E08C918F5F8C9310F40C940404CC
:1008400082E3809313010E946D0480E3809313017F
:100850000E946D0480912201809313010E946D0417
:1008600080912301809313010E946D04A3E8B1E0FD
:100870008C91A3E1B1E08C930E946D04A3E8B1E0F8
:1008800011968C91A3E1B1E08C930E946D0480914C
:100890000C01809313010E946D0480910E018093DE
:1008A00013010E946D048EE0809312010E94F508EE
:1008B0000E946D048FEF809313010E946D048FEFEF
:1008C000809313010E946D048EE08093120180E0FA
:1008D000809313010E94E108089570917A007F7758
:1008E00070937A00A5E0B1E08C9184FB16F40C942F
:1008F000F704A1E9B1E10D911D912D913C91ADE875
:10090000B1E10D931D932D933C930E940205A1E943
:10091000B1E10E940A13A1E9B1E10D911D912D9160
:100920003C91A5E9B1E10D931D932D933C934FEFBD
:100930005FE760E070E0A1E9B1E10D911D912D91BB
:100940003C910E94EF140CF002C00C94B80480E0BB
:10095000809368018FE080931201809168018093F9
:1009600013010E94E1087091050170617093050107
:1009700089E080931201009195114FEF0423A3E1C8
:10098000B1E00C930E94E1088AE08093120198E0A4
:10099000A5E9B1E10E94BD14009195114FEF042328
:1009A000A3E1B1E00C930E94E1088BE08093120177
:1009B00098E0A5E9B1E10E94BD14009195114FEFB7
:1009C0000423A3E1B1E00C930E94E1088CE0809342
:1009D000120198E0A5E9B1E10E94BD1400919511C2
:1009E0004FEF0423A3E1B1E00C930E94E108709162
:1009F0007A00706870937A0070917A0070647093D6
:100A00007A00089580EA80930F0100910F014091D0
:100A10001501042BAFE0B1E00C9300918D114FEF65
:100A20000423A7E1B1E00C9398E0ADE8B1E10E94A6
:100A3000921400918D114FEF0423A6E1B1E00C93C5
:100A400043980E94121410910F010E941C141091DF
:100A500016010E941C14109117010E941C14109181
:100A600013010E941C140E9414148AE090E00E945A
:100A7000EC13439A089580EA80930F0100910F01CF
:100A800040911501042BAFE0B1E00C9300918D1162
:100A90004FEF0423A7E1B1E00C9398E0ADE8B1E19A
:100AA0000E94921400918D114FEF0423A6E1B1E052
:100AB0000C930E94121410910F010E941C141091AB
:100AC00016010E941C14109117010E941C140E9410
:100AD0001214AFE0B1E08C918F5F8C9310910F01F5
:100AE0000E941C140E943914A3E1B1E01C930E94DF
:100AF0001414089580EA80930F0100910F01409132
:100B00001501042BAFE0B1E00C938FEF809313013C
:100B1000439800E010E020E030E0ADE8B1E10D9353
:100B20001D932D933C93ADE8B1E10D911D912D9155
:100B30003C91A5E9B1E10D931D932D933C93009158
:100B400095114FEF0423A7E1B1E00C9398E0A5E9DC
:100B5000B1E10E949214009195114FEF0423A6E198
:100B6000B1E00C930E94121410910F010E941C140A
:100B7000109116010E941C14109117010E941C1460
:100B800080E080931201109113010E941C14A2E1D5
:100B9000B1E08C918F5F8C93ADE8B1E10E940A13B4
:100BA00000911201003411F00C94C3050E9414143A
:100BB0008AE090E00E94EC1380E489B94FEF5FE790
:100BC00060E070E0ADE8B1E10D911D912D913C9197
:100BD0000E94EF141CF011F00C94F0050C94F20537
:100BE0000C94F4050C949305439A08958091180190
:100BF0008093120180911C01809318018091120151
:100C000080931C01809119018093120180911D0134
:100C1000809319018091120180931D0180E08093DF
:100C20001201A2E1B1E08C918F5F8C93809112014F
:100C300080930F01AFE0B1E08C918F5F8C93A2E1C4
:100C4000B1E0AD90BB24A7E1B1E0AA0DBB1D0C91B2
:100C50004AE0049FA3E1B1E00C9200911301AFE0E0
:100C6000B1E0AD90BB24A7E1B1E0AA0DBB1D4C9152
:100C7000040FA3E1B1E00C9300911201043010F0D5
:100C80000C944F06009113010B3318F011F00C94E3
:100C90004B060C944D060C948A070C94B70605304D
:100CA00011F00C94600600911301073118F011F057
:100CB0000C945C060C945E060C948A070C94B706A0
:100CC000073011F00C947906009113010F3118F0E0
:100CD00011F00C946D060C946F060C948A07009129
:100CE0001301003011F00C9477060C948A070C94D1
:100CF000B706093011F00C949206009113010C30E4
:100D000018F011F00C9486060C9488060C948A074F
:100D100000911301003011F00C9490060C948A0796
:100D20000C94B7060B3011F00C94A006009113013F
:100D3000043111F40C949E060C948A070C94B706A7
:100D40000D3011F00C94B70600911301033618F022
:100D500011F00C94AD060C94AF060C948A07009128
:100D60001301003010F00C94B7060C948A07A2E12E
:100D7000B1E08C918F5F8C93009112010E3011F0D5
:100D80000C94110680E080931201A2E1B1E08C91F5
:100D90008F5F8C93A2E1B1E0AD90BB24A7E1B1E0FD
:100DA000AA0DBB1D8C9180930F0194E0AFE0B1E0E0
:100DB0000E947E14A2E1B1E08C918F5F8C93A2E13E
:100DC000B1E0AD90BB24A7E1B1E0AA0DBB1D8C91B1
:100DD0008093130100910F0140911301042BA2E1B4
:100DE000B1E0AD90BB24A7E1B1E0AA0DBB1D0C930F
:100DF000009112010D3018F011F00C9401070C94C1
:100E0000C50680E08093120180ED80930F0180E899
:100E1000809313010E94121410910F010E941C1460
:100E2000109112010E941C14109113010E941C14B5
:100E30000E94141484E08093110181E080931201D8
:100E400080ED80930F01A1E1B1E0AD90BB24A7E15B
:100E5000B1E0AA0DBB1D8C91809313010E94121466
:100E600010910F010E941C14109112010E941C1479
:100E7000109113010E941C140E941414A1E1B1E00E
:100E80008C918F5F8C93A1E1B1E08C918F5F8C93FB
:100E9000A2E1B1E08C918F5F8C930091120103303D
:100EA00011F00C945807A2E1B1E08C918F5F8C9304
:100EB00000911201063011F00C946807A1E1B1E035
:100EC0008C918F5F8C93A1E1B1E08C918F5F8C93BB
:100ED00000911201073011F00C94230780E08093F9
:100EE000120180911901809313010E941214109134
:100EF0000F010E941C14109112010E941C141091E9
:100F000013010E941C140E94141480E080930701B6
:100F10000C948D0781E080930701089581E0809310
:100F2000110180E08093120180ED80930F010E94F7
:100F3000121410910F010E941C14109112010E94B2
:100F40001C140E941214AFE0B1E08C918F5F8C935F
:100F500010910F010E941C140E943B14A3E1B1E008
:100F60001C9300911201033011F40C94F2070091CC
:100F700013014FE00423AFE0B1E00C93AFE0B1E028
:100F80008C91805D8C9394E0A3E1B1E00E94881481
:100F9000A3E1B1E08C918F708C93A3E1B1E08C91CF
:100FA000805D8C9380911301A1E1B1E0AD90BB24F1
:100FB000A7E1B1E0AA0DBB1D8C93A1E1B1E08C913A
:100FC0008F5F8C9380910F01A1E1B1E0AD90BB24C4
:100FD000A7E1B1E0AA0DBB1D8C93A1E1B1E08C911A
:100FE0008F5F8C93A2E1B1E08C918F5F8C93009125
:100FF0001201063011F00C94AC070E943914A3E1E1
:10100000B1E01C93009113014FE00423AFE0B1E085
:101010000C93AFE0B1E08C91805D8C9394E0A3E100
:10102000B1E00E948814A3E1B1E08C918F708C93A1
:10103000A3E1B1E08C91805D8C9380911301A1E1DB
:10104000B1E0AD90BB24A7E1B1E0AA0DBB1D8C932C
:10105000A1E1B1E08C918F5F8C9380910F01A1E1B0
:10106000B1E0AD90BB24A7E1B1E0AA0DBB1D8C930C
:101070000E941414809118018093120180911C0128
:10108000809318018091120180931C0180911901B5
:101090008093120180911D018093190180911201AA
:1010A00080931D01089580E080931201A2E1B1E0D8
:1010B0008C918F5F8C938091120180930F01AFE030
:1010C000B1E08C918F5F8C93009112010B3011F085
:1010D0000C947008EAE3FBE20E94DC140E94761391
:1010E000A2E1B1E0AD90BB24A7E1B1E0AA0DBB1D28
:1010F0008C91A1EAB1E18D9388278C93A1EAB1E1AB
:101100000E947013AFE0B1E0AD90BB24A7E1B1E065
:10111000AA0DBB1D8C91A1EAB1E18D9388278C9318
:10112000A1EAB1E10E94701300911201013011F0A7
:101130000C94A208EEE3FBE20E94DC140E947613FA
:101140000C94D008033011F00C94AE08EEE3FBE2EF
:101150000E94DC140E9476130C94D008053011F024
:101160000C94BA08E0E4FBE20E94DC140E947613BF
:101170000C94D008073011F00C94C608E2E4FBE2AE
:101180000E94DC140E9476130C94D008093011F0F0
:101190000C94D008E2E4FBE20E94DC140E94761377
:1011A000A2E1B1E08C918F5F8C93009112010B3022
:1011B00018F011F00C94DE080C9456080E9482136B
:1011C000089580ED80930F010E94121410910F0179
:1011D0000E941C14109112010E941C141091130102
:1011E0000E941C140E941414089580ED80930F0136
:1011F0000E94121410910F010E941C1410911201F0
:101200000E941C140E941214AFE0B1E08C918F5F19
:101210008C9310910F010E941C140E943914A3E1B9
:10122000B1E01C930E941414089581E00E944F14B1
:1012300081E0A881B9818C9340910C01A881B9818A
:101240000C91041718F011F00C944309A881B9818E
:10125000AD90BB24A9E6B1E0AA0CBB1CAA0DBB1D36
:101260008D919C91ADE7B1E08D939C9332E0ADE719
:10127000B1E00E947D13A881B9818C918F5F8C931E
:1012800010F40C941C0981E0481A80E0580A229658
:101290000895E4E4FBE20E94DC140E947613A0EAC5
:1012A000B0E4E1E9F1E10E9405150E946E13ECE55E
:1012B000FBE20E94DC140E9476130E9482130FEF5F
:1012C0001FE720E030E0A1E9B1E14D915D916D9122
:1012D0007C910E94EA14ADE8B1E10D931D932D932A
:1012E0003D93E4E6FBE20E94DC140E947613A0EA40
:1012F000B0E4EDE8F1E10E9405150E946E13ECE503
:10130000FBE20E94DC140E9476130E94821308956F
:10131000E89886E4482F00916901041711F00C94B5
:101320009809809169008C7F826080936900E89AB7
:1013300082E5482F00916901041711F00C94A60969
:1013400080916900836080936900E89A08950E9403
:101350008213ECE7FBE20E94DC140E9476130E94E9
:1013600082130E948213EEE9FBE20E94DC140E94C9
:1013700076130E9482130E948213E2ECFBE20E9429
:10138000DC140E9476130E9482130E948213EAEEFC
:10139000FBE20E94DC140E9476130E9482130E94DA
:1013A0008213EAE1FCE20E94DC140E9476130E94A0
:1013B00082130E948213EEE6FCE20E94DC140E947B
:1013C00076130E9482130E948213E2ECFCE20E94D8
:1013D000DC140E9476130E948213E6E5FDE20E946F
:1013E000DC140E9476130E948213E6ECFDE20E9458
:1013F000DC140E9476130E9482130E948213E4E0A0
:10140000FEE20E94DC140E9476130E9482130E9466
:101410008213ECE2FEE20E94DC140E9476130E942A
:1014200082130E948213ECE7FEE20E94DC140E9409
:1014300076130E948213EEEAFEE20E94DC140E9400
:1014400076130E948213E0EFFEE20E94DC140E94F9
:1014500076130E9482130E948213E6E1FFE20E944B
:10146000DC140E9476130E9482130E948213E6E528
:10147000FFE20E94DC140E9476130E9482130E94F5
:101480008213E2E7FFE20E94DC140E9476130E94BE
:1014900082130E948213EAEBFFE20E94DC140E9496
:1014A00076130E948213E0EFFEE20E94DC140E9499
:1014B00076130E9482130E948213E6E0F0E30E94FA
:1014C000DC140E9476130E948213EEE5F0E30E9482
:1014D000DC140E9476130E9482130E948213EEE8AD
:1014E000F0E30E94DC140E9476130E9482130E9493
:1014F0008213EAEAF0E30E94DC140E9476130E9451
:1015000082130E948213EEEEF0E30E94DC140E942C
:1015100076130E9482130E948213EEE3F1E30E948D
:10152000DC140E9476130E9482130E948213E6E864
:10153000F1E30E94DC140E9476130E9482130E9441
:101540008213EAEAF1E30E94DC140E9476130E94FF
:1015500082130E948213E0EFF1E30E94DC140E94E8
:1015600076130E9482130E948213E0E1F2E30E944C
:10157000DC140E9476130E9482130E948213E4E21C
:10158000F2E30E94DC140E9476130E9482130E94F0
:101590008213E0E5F2E30E94DC140E9476130E94BD
:1015A00082130E94821308950F921F922F923F92EE
:1015B0004F925F927F92AF92BF920F931F932F93A0
:1015C0003F934F935F936F937F938F939F93AF93CB
:1015D000BF93CF93DF93EF93FF938FB78F938BB727
:1015E0008F9388278BBF78E376BD80E889B9A1E81F
:1015F000B1E00E941713A5E8B1E04D915C91A1E81C
:10160000B1E00D911C910417150711F00C94780BA3
:1016100080E090E0A1E8B1E08D939C93A5E0B1E07B
:101620008C9183FB16F00C946C0BA7E8B1E10D9143
:101630001C91083F57E0150710F00C94510B81E006
:101640008093100140910C0100911001041718F0D3
:1016500011F00C944F0BA0E1B1E0AD90BB24A9E6D2
:10166000B1E0AA0CBB1CAA0DBB1D8D919C91A7E8F3
:10167000B1E1AD90BD90A5E8B1E0AA0CBB1CAA0DEC
:10168000BB1D8D939C93A7E8B1E10E941713A0E1C5
:10169000B1E08C918F5F8C9310F40C94220B0C941E
:1016A0006A0B882785BDA7E8B1E10D911C9141E047
:1016B00050E0041B150BA9E8B1E10D931C9381E0E8
:1016C00090E0A7E8B1E18D939C937091050174605F
:1016D000709305010C94780BA5E0B1E08C9185FB2B
:1016E00016F00C94780B70910601706870930601E7
:1016F0008F918BBF8F918FBFFF91EF91DF91CF9132
:10170000BF91AF919F918F917F916F915F914F9119
:101710003F912F911F910F91BF90AF907F905F905D
:101720004F903F902F901F900F9018950F921F92FF
:101730002F923F924F925F927F92AF92BF920F9300
:101740001F932F933F934F935F936F937F938F9349
:101750009F93AF93BF93CF93DF93EF93FF938FB795
:101760008F938BB78F9388278BBF8CED9BE09093E3
:1017700085008093840080E889B9A1E8B1E00E94E7
:101780001713A3E8B1E04D915C91A1E8B1E00D9190
:101790001C910417150711F00C94090C80E090E0DF
:1017A000A1E8B1E08D939C9381E08093100140917A
:1017B0000C0100911001041718F011F00C94090CA1
:1017C000A0E1B1E0AD90BB24A9E6B1E0AA0CBB1C3E
:1017D000AA0DBB1D8C91A3E1B1E08C930E946D0416
:1017E000A0E1B1E0AD90BB24A9E6B1E0AA0CBB1C1E
:1017F000AA0DBB1D11968C91A3E1B1E08C930E94C0
:101800006D04A0E1B1E08C918F5F8C9310F40C9487
:10181000D70B8F918BBF8F918FBFFF91EF91DF918E
:10182000CF91BF91AF919F918F917F916F915F9178
:101830004F913F912F911F910F91BF90AF907F904B
:101840005F904F903F902F901F900F9018950F92A0
:101850001F922F923F924F925F927F92AF92BF92D0
:101860000F931F932F933F934F935F936F937F93A8
:101870008F939F93AF93BF93CF93DF93EF93FF9398
:101880008FB78F938BB78F9388278BBFABE8B1E16E
:101890000E9417138F918BBF8F918FBFFF91EF9194
:1018A000DF91CF91BF91AF919F918F917F916F9178
:1018B0005F914F913F912F911F910F91BF90AF90EA
:1018C0007F905F904F903F902F901F900F901895B2
:1018D0000F921F922F923F924F925F927F92AF9200
:1018E000BF920F931F932F933F934F935F936F93E9
:1018F0007F938F939F93AF93BF93CF93DF93EF9398
:10190000FF938FB78F938BB78F9388278BBFAAE0F6
:10191000B1E080917C008C93AAE0B1E08C91887F4B
:101920008C9300910A0140910801042BAAE0B1E0D8
:101930000C93AAE0B1E08C9180937C00AAE0B1E026
:10194000809178008C9300910801003011F00C9484
:10195000EE0C80917900ACE0B1E0AD90BB24A9E63B
:10196000B1E0AA0CBB1CAA0DBB1D8D9388278C93DC
:1019700000910A010F3F11F00C94C10C8EEF80937F
:101980000A0198E0ACE0B1E0AD90BB24A9E6B1E07B
:10199000AA0CBB1CAA0DBB1D0E94A314ACE0B1E0B5
:1019A000AD90BB24A9E6B1E0AA0CBB1CAA0DBB1DDF
:1019B0000D911C91AAE0B1E04D915527042B152BF8
:1019C000ACE0B1E0AD90BB24A9E6B1E0AA0CBB1C31
:1019D000AA0DBB1D0D931C930C94310D80917900C1
:1019E000A8E0B1E0AD90BB24A9E6B1E0AA0CBB1C15
:1019F000AA0DBB1D8D9388278C9300910A010F3F80
:101A000011F00C94060D8EEF80930A0198E0A8E087
:101A1000B1E0AD90BB24A9E6B1E0AA0CBB1CAA0DB5
:101A2000BB1D0E94A314A8E0B1E0AD90BB24A9E6C1
:101A3000B1E0AA0CBB1CAA0DBB1D0D911C91AAE024
:101A4000B1E04D915527042B152BA8E0B1E0AD90E6
:101A5000BB24A9E6B1E0AA0CBB1CAA0DBB1D0D93CB
:101A60001C93A8E0B1E08C918F5F8C9340910C01A6
:101A700000910801041710F40C94410D80E080934C
:101A8000080170917A00706470937A008F918BBF17
:101A90008F918FBFFF91EF91DF91CF91BF91AF9168
:101AA0009F918F917F916F915F914F913F912F9176
:101AB0001F910F91BF90AF907F905F904F903F909C
:101AC0002F901F900F9018950F921F922F923F9278
:101AD0004F925F927F92AF92BF920F931F932F937B
:101AE0003F934F935F936F937F938F939F93AF93A6
:101AF000BF93CF93DF93EF93FF938FB78F938BB702
:101B00008F9388278BBFA5E0B1E08C9183FB16F003
:101B10000C94960D882785BD80E090E0A1E8B1E0A7
:101B20008D939C9378E376BD82E085BD8F918BBFCA
:101B30008F918FBFFF91EF91DF91CF91BF91AF91C7
:101B40009F918F917F916F915F914F913F912F91D5
:101B50001F910F91BF90AF907F905F904F903F90FB
:101B60002F901F900F9018950F921F922F923F92D7
:101B70004F925F927F92AF92BF920F931F932F93DA
:101B80003F934F935F936F937F938F939F93AF9305
:101B9000BF93CF93DF93EF93FF938FB78F938BB761
:101BA0008F9388278BBF0E944213ABE0B1E08C93E8
:101BB00000910B01003011F40C94EA1200910B011A
:101BC0000B3111F00C94050EA5E0B1E08C9186FB71
:101BD00016F40C94FD0D709105017064709305016D
:101BE0005E9800E910ED23E030E0ADE9B1E10D933E
:101BF0001D932D933C930C94030E709105017F7BF4
:101C0000709305015E9A0C94EA12A5E0B1E08C9104
:101C100086FB16F00C94EA12709105017F7B70939D
:101C200005018EE4A7E0B1E08C9300910B01013334
:101C300011F00C94850E0E948213EEE6F2E30E94EE
:101C4000DC140E947613E3E00E942B13A0EAB0E4B8
:101C50000E945515A3E1B1E00C93EAE8F2E30E947B
:101C6000DC140E947613ECE00E942B13A0EAB0E48F
:101C70000E945515A5E9B1E10D931D932D933D9358
:101C80000E948213E2EAF2E30E94DC140E947613BF
:101C9000A0EAB0E4E3E1F1E00E940F150E946E13A8
:101CA0000E948213A5E9B1E10D911D912D913C9106
:101CB000ADE8B1E10D931D932D933C930E94020575
:101CC00080E080931301A5E9B1E10D911D912D9163
:101CD0003C91ADE8B1E10D931D932D933C930E948F
:101CE0003B05E2EBF2E30E94DC140E947613A0EACB
:101CF000B0E4E3E1F1E00E940F150E946E130E9430
:101D000082130E9482130C94E912093311F00C948F
:101D1000950E0E944813ABE0B1E08C9331E0ABE04C
:101D2000B1E00E947D130C94E912013411F00C947F
:101D3000D10E0E944813ABE0B1E08C9300910B01EF
:101D4000003380E010F009F081E08F9300910B01E7
:101D5000093381E008F080E09F918923882311F402
:101D60000C94CF0E00910B0140E3041BACE0B1E0FA
:101D70000C938DE08093120180910C0180931301EC
:101D80000E94E10880E0809308018EE080931201B8
:101D900089E0809313010E94E1080E94A6020C943E
:101DA000E912023411F00C942C0F0E948715E6E022
:101DB0000E942B13A0EAB0E40E945515ADE7B1E0F4
:101DC0000D931C930E948415ADE7B1E00D911C9119
:101DD000003050E0150780E010F009F081E08F93AB
:101DE000ADE7B1E00D911C910F3F5FEF150781E06A
:101DF00010F009F080E09F918923882311F40C945E
:101E00002A0FADE7B1E08D919C91A3E8B1E08D93ED
:101E10009C9380E180931201A3E8B1E011968C912C
:101E2000A3E1B1E08C930E94E10881E1809312016B
:101E3000A3E8B1E08C91A3E1B1E08C930E94E108AA
:101E40008EE08093120182E0809313010E94E108EA
:101E50000E94A6020C94E912033411F00C94630F53
:101E60000E944813AAE6B1E08C9300916A01003306
:101E700081E008F480E08F9300916A01033381E0F0
:101E800008F080E09F918923882311F40C94610F5E
:101E90000E94550280E090E0ABE8B1E18D939C9305
:101EA00080E090E090939500809394008091910061
:101EB000887F809391005F987091060170647093A1
:101EC00006010C94E912083411F00C94A40F81E07F
:101ED00080931201009112010E3018F011F00C9451
:101EE0008E0F0E944813AFE0B1E08C93AFE0B1E0F9
:101EF0008C9180538C9380910F01A2E1B1E0AD9061
:101F0000BB24A7E1B1E0AA0DBB1D8C93A2E1B1E017
:101F10008C918F5F8C9310F40C946A0F0E94F605DD
:101F200086E08093130188E0809312010E94E1080B
:101F30008EE08093120185E0809313010E94E108F6
:101F40000E94A6020C94E912093411F00C9434108A
:101F5000F89480E0809368018FE080931201809173
:101F60006801809313010E94E1088AE090E0A3E8F1
:101F7000B1E08D939C9380E180931201A3E8B1E0DE
:101F800011968C91A3E1B1E08C930E94E10881E16C
:101F900080931201A3E8B1E08C91A3E1B1E08C93AE
:101FA0000E94E10800E010E020E030E0A1E9B1E1AA
:101FB0000D931D932D933C93A1E9B1E10D911D91DA
:101FC0002D913C91A5E9B1E10D931D932D933C9387
:101FD00089E080931201009195114FEF0423A3E152
:101FE000B1E00C930E94E1088AE08093120198E02E
:101FF000A5E9B1E10E94BD14009195114FEF0423B2
:10200000A3E1B1E00C930E94E1088BE08093120100
:1020100098E0A5E9B1E10E94BD14009195114FEF40
:102020000423A3E1B1E00C930E94E1088CE08093CB
:10203000120198E0A5E9B1E10E94BD14009195114B
:102040004FEF0423A3E1B1E00C930E94E1088EE07E
:102050008093120181E0809313010E94E1080E94A5
:10206000A60278940C94E9120F3411F00C949C1091
:102070000E944813A9E6B1E08C930E948715E6E020
:102080000E942B13A0EAB0E40E945515A5E8B1E028
:102090000D931C930E94841582E5482F00916901DD
:1020A000041781E009F080E08F9386E4482F0091C7
:1020B0006901041781E009F080E09F91892B8F93DB
:1020C00080E5482F00916901041781E009F080E064
:1020D0009F91892B882311F40C949A10A5E8B1E004
:1020E0000D911C91003050E0150780E010F009F0D0
:1020F00081E08F93A5E8B1E00D911C910F3F5FEF58
:10210000150781E010F009F080E09F918923882372
:1021100011F40C949A100E94550270910501786098
:102120007093050181E090E0A7E8B1E18D939C9365
:102130000E9488090C94E912003511F00C94A41047
:102140000E9455020C94E912023511F00C94D11042
:102150000E9455028CED9BE0909385008093840053
:1021600081E0809368018FE0809312018091680183
:10217000809313010E94E1088EE08093120188E0B1
:10218000809313010E94E1080E94A60280E090E083
:10219000A1E8B1E08D939C9384E0809381000C943E
:1021A000E912033511F00C94E1100E944813ABE0E2
:1021B000B1E08C9304B140910B01042305B90C9458
:1021C000E912043511F00C9424110E948715E6E001
:1021D0000E942B13A0EAB0E40E945515A5E8B1E0D7
:1021E0000D931C930E948415A5E8B1E00D911C91FC
:1021F000003050E0150780E010F009F081E08F9387
:10220000A5E8B1E00D911C910F3F5FEF150781E04C
:1022100010F009F080E09F918923882311F40C9439
:1022200022110E94550280E090E0A1E8B1E08D9378
:102230009C9378E376BD70910501706270930501FF
:1022400082E085BD0C94E912053511F00C947611ED
:102250000E944813ADE0B1E08C93ADE0B1E08C9109
:1022600080538C930E948715E6E00E942B13A0EA0E
:10227000B0E40E945515A5E8B1E00D931C930E94AF
:102280008415A5E8B1E00D911C91003050E01507D0
:1022900080E010F009F081E08F93A5E8B1E00D91A6
:1022A0001C910F3F5FEF150781E010F009F080E00F
:1022B0009F918923882311F40C9474110E94550274
:1022C00080E090E0A1E8B1E08D939C9378E376BD47
:1022D0007091050170627093050170910501716044
:1022E0007093050182E085BD0C94E912093511F067
:1022F0000C9493110E944813ABE0B1E08C9388E4F6
:10230000482F00910B01041711F00C94881142988A
:1023100084E4482F00910B01041711F00C949111E3
:10232000429A0C94E9120A3511F00C94AA11F8940F
:1023300074B7777F74BF88E18093600080E08093FA
:102340006000809160008860809360000C94A6110A
:102350000C94E912013611F00C94B2110E94150987
:102360000C94E912023611F00C94ED110E944813FE
:10237000ABE0B1E08C9300910B01003380E010F0F2
:1023800009F081E08F9300910B01093381E008F09F
:1023900080E09F918923882311F40C94EB11009124
:1023A0000B0140E3041BAFE0B1E00C93AFE0B1E000
:1023B000AD90BB24A9E6B1E0AA0CBB1CAA0DBB1DC5
:1023C0008D919C91ADE7B1E08D939C9332E0ADE7A8
:1023D000B1E00E947D130C94E912033611F00C94C5
:1023E000F81131E0A3E2B0E00E947D130C94E912F1
:1023F000043611F00C945C1280918100887F8093E8
:102400008100882785BD70917A007F7770937A006C
:1024100000E010E020E030E0A5E9B1E10D931D936C
:102420002D933C93A1E9B1E14D915D916D917C912A
:10243000A5E9B1E10D911D912D913C910E94EF1400
:102440000CF402C00C943D12A5E9B1E10D911D916F
:102450002D913C91ADE8B1E10D931D932D933C93EB
:102460000E943B0531E0A3E1B1E00E947D13A5E9A4
:10247000B1E10E940A130C9412128EE080931201B3
:1024800083E0809313010E94E1080E94A6027091EC
:102490007A00706870937A0070917A00706470931B
:1024A0007A0000916801013011F00C945A1284E016
:1024B000809381000C94E912053611F00C94A5125A
:1024C000E8E1FBE20E94DC140E9476130E94821372
:1024D000E6E2FBE20E94DC140E9476130E94821363
:1024E000E0ECF2E30E94DC140E94761382EA0E9480
:1024F0008513E6ECF2E30E94DC140E947613A0EA56
:10250000B0E4ECECF2E30E94DC140E9478140E9428
:102510006E130E948213E4EDF2E30E94DC140E9429
:1025200076130E948213EAEEF2E30E94DC140E940A
:1025300076130E948213EEE1F3E30E94DC140E9402
:1025400076130E9482130C94E912063611F00C9453
:10255000AD120E94A7090C94E912083611F00C94F0
:10256000B7120E948E070E9453080C94E9120D3690
:1025700011F00C94BF120E9449090C94E91204371F
:1025800011F00C94E512A5E0B1E08C9183FB81E0A1
:102590000EF080E08F9380E5482F009169010417C9
:1025A00081E009F080E09F918923882311F40C9445
:1025B000E31280E090E0A1E8B1E08D939C9378E392
:1025C00076BD82E085BD0C94E9128EE4A7E0B1E00F
:1025D0008C935E9A8F918BBF8F918FBFFF91EF91FC
:1025E000DF91CF91BF91AF919F918F917F916F912B
:1025F0005F914F913F912F911F910F91BF90AF909D
:102600007F905F904F903F902F901F900F90189564
:10261000F894FFCF0D911D912D913C910F5F1F4FAD
:102620002F4F3F4F3C932E931E930E930895ED91A1
:10263000FC91EF5FFF4FFC93EE9308950D911D9178
:102640002D913C9101501040204030403C932E93FE
:102650001E930E930895A0EAB0E41AD0803079F06A
:102660008D3039F0EE23C9F38D93EA9563FE4DD09A
:10267000F4CF63FC04C08DE048D08AE046D08827C0
:102680008C93089588270090C00007FE089500C02D
:102690000F931F932F933F93AF93BF93A1E0B1E0AC
:1026A0000D911D912D913C910090C00007FC0BC035
:1026B0008827802B812B822B832B41F001501040E7
:1026C00020403040F1CF8091C60001C08827BF91E3
:1026D000AF913F912F911F910F910895A0EAB0E41F
:1026E0008D91882311F011D0FBCF08950E94CC1456
:1026F000802D11F00AD0FACF08958D9106D03A9529
:10270000E1F708958DE001D08AE00090C00005FE59
:10271000FCCF8093C600089500FC05D0089530D00A
:1027200005D001F8F9CF37D03FD00895842F952FE9
:10273000A62FB72FE894452B462B472B11F468940E
:102740000895402F512F622F732F00271127222722
:102750003327F0E2440F551F661F771F001F111F1C
:10276000221F331F081B190B2A0B3B0B416028F457
:10277000080F191F2A1F3B1F4E7FFA9559F708951E
:102780000024E89477FF02C006D0689400F809D0CE
:1027900010F80124089512D04F5F5F4F6F4F7F4FA5
:1027A0000895E89437FF0895009510952095309589
:1027B0000F5F1F4F2F4F3F4F6894089540955095DE
:1027C0006095709508953197F1F70895689462F8CF
:1027D0000895E89462F80895EF93FF93EE27E82BAD
:1027E000E92B31F0E0EAFFE03197F1F70197D1F7FB
:1027F000FF91EF91089539983898419A409A089539
:1028000068944093BC008F939F93882799270196E3
:1028100029F04091BC0047FFFACFE8949F918F9137
:1028200062F8089544EAECCF44E94093BC0040913B
:10283000BC0044FDFCCF08951093BB0044E8E0DFEA
:102840008F939F9388279927019671F04091B90043
:10285000487F483FC9F3E894483139F0483229F0BD
:10286000403419F0403509F068949F918F9162F8D7
:10287000089544E801C044ECC3DF1091BB004091CF
:10288000B900487F483FD9F308950D911D912D91CE
:102890003C910895019111912191308108959927DA
:1028A0005A924A92480E591E08950F921F922F92E3
:1028B000C801D901489F80014A9F90014B9F202C5D
:1028C000499F100D211D321D5A9F202C589F100D1D
:1028D000211D321D599F200D311D689F200D311D76
:1028E000699F300D789F300D2F901F900F900895A5
:1028F0000E94CC140D920020D9F70895903039F041
:102900008C91880F08F481609A95D9F78C9308957B
:10291000903039F08C91869508F480689A95D9F7B3
:102920008C930895903071F00E9445143695279548
:102930001795079508F430689A95C1F73C932E9344
:102940001E930E930895903041F00D911C91000F4D
:10295000111F9A95E1F71C930E930895903061F042
:102960000E944514000F111F221F331F9A95D1F7A3
:102970003C932E931E930E930895903061F00E9425
:10298000451436952795179507959A95D1F73C9359
:102990002E931E930E930895D895319628F48F9315
:1029A0008BB783958BBF8F91002008950F9301E023
:1029B0000BBF0F91889408950F930027F9CF0F93C1
:1029C00002E0F6CF0F9303E0F3CF040F151F261F8D
:1029D000371F0895041B150B260B370B089504179A
:1029E0001507260737070895000F111F221F331FF1
:1029F000089500951095209530950F5F1F4F2F4F2C
:102A00003F4F0895019110810CC00E944A140BC0E1
:102A10000191108117FF05C03FEF2FEF04C0008127
:102A200011272227332737FF03C0E3DF8DE28D9381
:102A3000CF92DF92EF92AA24BB24CC24DD24EE2493
:102A400040E2EAE0FF2755E093E38081890F87FDAC
:102A50009F7083FD907F891B81935A95A9F7C4DFEE
:102A6000AA1CBB1CCC1CDD1CEE1C4A9551F7E8943B
:102A7000EFE0FF2782910CD0EB30E0F71EF0689476
:102A80008A2D0AD088278D93EF90DF90CF900895FC
:102A9000982F829501D0892F8F70805D26F080332A
:102AA00009F4089568948D9308950027112722272B
:102AB00033271DD08A3328F4803318F005D015D081
:102AC000F9CF0EF496CF089580538F93402F512F56
:102AD000622F732F89DF88DF78DF86DF8F91992758
:102AE000080F191F291F391F08958D910895E89423
:102AF000FCDF8032E9F38B32D9F38930C9F38D32B0
:102B000011F46894F2CF0895E89463F808956894F6
:102B100063F808955744000050726F796563746FCD
:102B20003A204144000045717569706F3A202020B9
:102B3000415143303100524E4900323000003A00DA
:102B400020002F004D656D6F726961207574696C8E
:102B5000697A616461202D2D3E2000002062797425
:102B6000657300004D656D6F7269612072657374E5
:102B7000616E7465202D2D2D3E2000004269656E2A
:102B800076656E69646F2061206C6120617975647F
:102B90006120646520636F6D616E646F73004553DF
:102BA000432030202D2D3E2054657374656F2064C2
:102BB0006520737461636B732079206672616D6543
:102BC00000004553432031202D2D3E204772616285
:102BD000612079206C656520756E206461746F20BA
:102BE000656E206C6120453200004553432039203A
:102BF0003C636861723E202D2D3E2045636F20644A
:102C00006520756E206361726163746572206375FF
:102C1000616C717569657261000045534320412004
:102C20003C43616E745F63616E616C3E202D2D3E8E
:102C3000205265636962652063616E7469646164D2
:102C40002064652063616E616C657320616E616CE8
:102C5000F36769636F733A203C43616E745F63612D
:102C60006E616C3E20646520312061203800455340
:102C7000432042203C545F7265673E203044203040
:102C800041202D2D3E20526563696265207469657F
:102C90006D706F20646520726567697374726F2050
:102CA000656E20736567756E646F733A203C545F80
:102CB0007265673E206465203120612036353533EA
:102CC00035004553432043203C627974653E202DF6
:102CD0002D3E204D696465207469656D706F2065B7
:102CE0006E74726520646F73207365F1616C657337
:102CF00020656E20756E206D69736D6F2070696E32
:102D0000202850696E432E342C2066616C6C696EED
:102D100067207920726973696E6720656467652929
:102D2000206F20656E74726520646F732070696E09
:102D30006573202850696E432E342066616C6C697F
:102D40006E672020792050696E432E352066616CB5
:102D50006C696E6729002020202020202020202060
:102D6000202020202020203C627974653E202D2DDB
:102D70003E20203C307833313E2070617261205318
:102D80007461727420792053746F7020656E2050C6
:102D9000696E432E34207C7C203C307833323E20D8
:102DA0007061726120537461727420656E20506985
:102DB0006E432E3420792053746F7020656E20503E
:102DC000696E432E35002020202020202020202046
:102DD0002020202020202044657675656C766520B3
:102DE000656C206C6170736F206465207469656D1B
:102DF000706F20656E2075736567202841534349C5
:102E00004929000045534320482068686D6D73735D
:102E100044444D4D41414141202D2D3E2053657488
:102E2000656F20646520686F726100004553432020
:102E300049202D2D3E20426F727261646F206465BF
:102E4000206D656D6F72696120792054726567200D
:102E50003D2035736567207C7C205469656D706FFB
:102E600020646520726567697374726F206465669B
:102E700061756C743A2036307365670045534320A2
:102E80004F203C747269676765723E203C696E74BE
:102E9000657276616C6F3E203044203041202D2DCC
:102EA0003E204D6F646F20427572737400002020C5
:102EB00020202020547269676765723A20275227C4
:102EC0003D496E74302F726973696E67206564675F
:102ED00065207C7C202746273D496E74302F666133
:102EE0006C6C696E67207C7C202750273D50430026
:102EF000202020202020496E74657276616C6F3A24
:102F0000202831206120363535333529207820318D
:102F10003030757300004553432050202D2D3E2046
:102F2000446573686162696C69746120746F646F71
:102F300073206C6F73206D6F646F73202D2D3E2096
:102F4000536F6C6F2065736375636861206C6120DB
:102F50005253323332004573632052202D2D3E20D0
:102F6000486162696C697461207265676973747223
:102F70006F004553432053203C627974653E202DF9
:102F80002D3E205365746561206C61732073616C04
:102F900069646173206465206163756572646F2084
:102FA00061206C6F207175652072656369626520B0
:102FB000706F7220525332333200455343205420F5
:102FC0003C496E74657276616C6F3E202D2D3E20FB
:102FD000486162696C697461207472616E736D69B5
:102FE0007369F36E206465206461746F7320636F8E
:102FF0006E74696E756F20636F6E20696E74657292
:1030000076616C6F00004553432055203C43616E50
:10301000616C3E203C496E74657276616C6F3E2037
:103020002D2D3E20486162696C6974612074726163
:103030006E736D2E206461746F7320636F6E74699C
:103040006E756F20646520756E2063616E616C2003
:10305000636F6E20696E74657276616C6F002020FC
:103060002020202043616E616C3A2031206120389D
:1030700020203B20496E74657276616C6F3A20782F
:1030800031303075732020304420304100004553EA
:1030900043205A202D2D3E205265736574206465AF
:1030A0006C2065717569706F000045534320612085
:1030B0002D2D3E205472616E736D697465206461BC
:1030C000746F7320646520746F646F73206C6F730A
:1030D0002063616E616C657320616E616CF367697A
:1030E000636F7320737465746561646F73004573F7
:1030F000632062203C43616E616C3E202D2D3E209A
:103100005472616E736D69746520656C2043616EE5
:10311000616C20416E616CF36769636F20536F6C63
:103120006963697461646F207C7C203C43616E61DB
:103130006C3E20446520312061203820000045533A
:1031400043206320792064657675656C7665203C44
:10315000627974653E202D2D3E205472616E736D30
:103160006974652065737461646F73206465206C95
:103170006F732063616E616C657320646967697445
:10318000616C657300004553432064202D2D3E2063
:103190004465736361726761206465206461746F64
:1031A000732062696E617269610045534320652036
:1031B000792064657675656C7665206C6F73206424
:1031C00061746F732064656C2065717569706F2020
:1031D0002D2D3E205472616E736D6974652064619B
:1031E000746F732064656C2065717569706F000081
:1031F0004553432066202D2D3E20566572206C6974
:1032000073746120646520636F6D616E646F730019
:103210004553432068202D2D3E205665722072654F
:103220006C6F6A00455343206D202D2D3E2056655E
:1032300072206D656D6F726961207574696C697A51
:1032400061646120792072657374616E7465000039
:103250004553432074202D2D3E20547269676765C5
:103260007220706172612042757273740000496E41
:10327000677265736520656C206461746F206E757C
:103280006D657269636F3A200000496E67726573FD
:1032900065206C6120646972656363696F6E3A20B2
:1032A00000004461746F206573637269746F3A2023
:1032B00000004461746F206C6569646F3A200000FF
:1032C0005665727369006E3A20200000322E313547
:1032D0002E32360046656368613A20202020323263
:1032E0002F30382F3230313400004175746F7265E1
:1032F000733A20204C69632E204C6973616E6472AE
:103300006F20526176696F6C61202F20496E672EA5
:10331000204775737461766F205265616C00557338
:0E332000756172696F3A2020554E47530000C8
:00000001FF
