:100000000C94460018950000189500001895000003
:10001000189500001895000018950000189500002C
:10002000189500001895000018950000189500001C
:100030001895000018950000189500000C942208EF
:1000400018950000189500000C94DC071895000026
:100050000C94580918950000189500001895000098
:100060000C94B3081895000018950000189500002E
:1000700018950000189500001895000018950000CC
:100080001895000018950000189500008FEF8DBF9F
:10009000CEECE6EB4E2E80E48EBFD0E4F0E45F2E93
:1000A000A89584B7082E877F84BF88E1992780931D
:1000B000600090936000EEEFFFE3A0E0B1E08827DE
:1000C0008D933197E9F786E28093C40080E08093B6
:1000D000C50088E18093C10066240E947A0C70E01C
:1000E0007093B90074E37093B80086E880937A0047
:1000F00080E080937C0070917A007F7770937A0023
:1001000084E085BD80E084BD882785BD7BEF76BD1A
:1001100080E08093800084E0809381008091810062
:10012000887F8093810085EE98E49093850080938A
:1001300084003A9A3B9A569A579AF894429AE4E085
:10014000FCE10E94330D0E944C0C0E94580CE2E12D
:10015000FCE10E94330D0E944C0C0E94580CE4E21A
:10016000FCE10E94330D0E944C0C0E94580CEAE204
:10017000FCE10E94330D0E944C0C0E94580CE6E3F7
:10018000FCE10E94330D0E944C0C0E94580CEAE6E0
:10019000FCE10E94330D0E944C0C0E94580C5E98AA
:1001A00081E080930B0100910B01083018F011F0F1
:1001B0000C94E80080E489B98AEF90E00E946B0C0F
:1001C000ABE0B1E08C918F5F8C9310F40C94D30072
:1001D0005E9A5F9A80E080931D01439A70916E0051
:1001E000716070936E0070916F00716070936F001A
:1001F00070917A00786070937A008091C100806C71
:100200008093C1000E941A0170917A007068709307
:100210007A0070917A00706470937A007894A1E00B
:10022000B1E08C9184FB16F00C9418010E946907D0
:100230000C940F010E9427010E94490100918E0138
:10024000013011F00C9426010E943D02089581E0D6
:100250000E94C90C88E080930E010E94490700911A
:100260000F01063011F40C943F01E0E7FCE10E941D
:10027000330D0E944C0C0E94580C0C9443010E94B8
:10028000D8050E94A70681E0481A80E0580A229605
:100290000895E1E0F0E0AAE0B1E00E94F80DAAE0E4
:1002A000B1E08C9184B9E0E0F0E0A9E0B1E00E9417
:1002B000F80D00910901013081E008F080E08F9392
:1002C00000910901083080E010F009F081E09F9171
:1002D000892B882311F40C94770188E0809309011D
:1002E000E0E0F0E0A9E0B1E07BE70E94E70D80E00C
:1002F00080930201709101017F7E709301017091E2
:1003000001017F7D70930101E2E0F0E0AEE8B1E031
:100310000E94F80DE3E0F0E0ABEAB1E00E94FA0DD4
:1003200000E010E020E030E0A3EDB1E00D931D937C
:100330002D933C938CE080930E010E944907A3ED1E
:10034000B1E00D911D912D913C91AFE0B1E04C9148
:100350005527662777270E943C0DA3EDB1E00D934A
:100360001D932D933D9398E0A3EDB1E00E94010D04
:100370008BE080930E010E944907A3EDB1E00D913F
:100380001D912D913C91AFE0B1E04C91552766272E
:1003900077270E943C0DA3EDB1E00D931D932D93A3
:1003A0003D9398E0A3EDB1E00E94010D8AE08093B7
:1003B0000E010E944907A3EDB1E00D911D912D9111
:1003C0003C91AFE0B1E04C915527662777270E941A
:1003D0003C0DA3EDB1E00D931D932D933D9398E05B
:1003E000A3EDB1E00E94010D89E080930E010E940F
:1003F0004907A3EDB1E00D911D912D913C91AFE026
:10040000B1E04C915527662777270E943C0DA3ED5C
:10041000B1E00D931D932D933D934FEF5FE760E0A7
:1004200070E0A3EDB1E00D911D912D913C910E94E2
:10043000460D0CF402C00C94240270910101777FE8
:10044000709301010C9433027091010178607093F4
:10045000010180E080938E01E2E0F0E0AEE8B1E0DF
:100460007BE70E94E70D00918E01013011F00C94A2
:100470003C0284E08093810008958FEF80930F0108
:100480000E94B4028FEF80930F010E94B4020E9479
:10049000D80581E080931101009111010A3018F014
:1004A00011F00C946802A1E1B1E0AD90BB24A7E289
:1004B000B1E0AA0DBB1D8C9180930F010E94B40284
:1004C000A1E1B1E08C918F5F8C9310F40C944C02FD
:1004D00082E380930F010E94B40280E380930F01B6
:1004E0000E94B4028091320180930F010E94B402F5
:1004F0008091330180930F010E94B402ABEAB1E016
:100500008C91AFE0B1E08C930E94B402ABEAB1E011
:1005100011968C91AFE0B1E08C930E94B40280916F
:10052000090180930F010E94B40280910A01809317
:100530000F010E94B4028EE080930E010E944907D1
:100540008FEF80930F010E94B4028FEF80930F0111
:100550000E94B4028EE080930E0180E080930F0130
:100560000E9435070895089570917A00777F7093FF
:100570007A0070916E007E7F70936E00A1E0B1E012
:100580008C9183FB16F40C944103A3EDB1E00D9123
:100590001D912D913C91AFECB1E00D931D932D93E6
:1005A0003C930E944C03A3EDB1E00E940E0CA3ED1E
:1005B000B1E00D911D912D913C91A7EDB1E00D930E
:1005C0001D932D933C934FEF5FE760E070E0A3ED48
:1005D000B1E00D911D912D913C910E94460D0CF0C2
:1005E00002C00C94020380E080938E01E2E0F0E010
:1005F000AEE8B1E07BE70E94E70D70910101786001
:100600007093010189E080930E010091D7014FEFB3
:100610000423AFE0B1E00C930E9435078AE0809399
:100620000E0198E0A7EDB1E00E94120D0091D701F4
:100630004FEF0423AFE0B1E00C930E9435078BE04D
:1006400080930E0198E0A7EDB1E00E94120D009199
:10065000D7014FEF0423AFE0B1E00C930E943507C0
:100660008CE080930E0198E0A7EDB1E00E94120D9E
:100670000091D7014FEF0423AFE0B1E00C930E944B
:10068000350770916E00716070936E0070917A0002
:10069000786070937A00089580EA80930B0100914E
:1006A0000B0140911D01042BABE0B1E00C930091D4
:1006B000CF014FEF0423AFE1B1E00C9398E0AFEC32
:1006C000B1E00E94E30C0091CF014FEF0423AEE1B3
:1006D000B1E00C9343980E94910C10910B010E9481
:1006E0009B0C10911E010E949B0C10911F010E94F7
:1006F0009B0C10910F010E949B0C0E94930C439A3B
:10070000089580EA80930B0100910B0140911D0137
:10071000042BABE0B1E00C930091CF014FEF042329
:10072000AFE1B1E00C9398E0AFECB1E00E94E30CD4
:100730000091CF014FEF0423AEE1B1E00C930E9492
:10074000910C10910B010E949B0C10911E010E94B4
:100750009B0C10911F010E949B0C0E94910CABE01E
:10076000B1E08C918F5F8C9310910B010E949B0CD8
:100770000E94B80CAFE0B1E01C930E94930C089566
:1007800080EA80930B0100910B0140911D01042B25
:10079000ABE0B1E00C938FEF80930F01439800E042
:1007A00010E020E030E0AFECB1E00D931D932D930D
:1007B0003C93AFECB1E00D911D912D913C91A7EDD3
:1007C000B1E00D931D932D933C930091D7014FEF12
:1007D0000423AFE1B1E00C9398E0A7EDB1E00E94F3
:1007E000E30C0091D7014FEF0423AEE1B1E00C938D
:1007F0000E94910C10910B010E949B0C10911E0104
:100800000E949B0C10911F010E949B0C80E0809322
:100810000E0110910F010E949B0CAEE0B1E08C9193
:100820008F5F8C93AFECB1E00E940E0C00910E0133
:10083000003411F00C9409040E94930C8AE090E0BB
:100840000E946B0C80E489B94FEF5FE760E070E0D5
:10085000AFECB1E00D911D912D913C910E94460DA0
:100860001CF011F00C9436040C9438040C943A04E7
:100870000C94D903439A08958091280180930E0126
:1008800080912C018093280180910E0180932C018E
:100890008091290180930E0180912D01809329017F
:1008A00080910E0180932D0180E080930E01AEE0D7
:1008B000B1E08C918F5F8C9380910E0180930B013E
:1008C000ABE0B1E08C918F5F8C93AEE0B1E0AD9086
:1008D000BB24A7E2B1E0AA0DBB1D0C914AE0049F26
:1008E000AFE0B1E00C9200910F01ABE0B1E0AD9050
:1008F000BB24A7E2B1E0AA0DBB1D4C91040FAFE0F1
:10090000B1E00C9300910E01043010F00C949504AA
:1009100000910F010B3318F011F00C9491040C941A
:1009200093040C94D2050C94FD04053011F00C9442
:10093000A60400910F01073118F011F00C94A204E5
:100940000C94A4040C94D2050C94FD04073011F00F
:100950000C94BF0400910F010F3118F011F00C94AA
:10096000B3040C94B5040C94D20500910F0100302F
:1009700011F00C94BD040C94D2050C94FD040930C4
:1009800011F00C94D80400910F010C3018F011F004
:100990000C94CC040C94CE040C94D20500910F015D
:1009A000003011F00C94D6040C94D2050C94FD0484
:1009B0000B3011F00C94E60400910F01043111F496
:1009C0000C94E4040C94D2050C94FD040D3011F049
:1009D0000C94FD0400910F01033618F011F00C94F3
:1009E000F3040C94F5040C94D20500910F0100302F
:1009F00010F00C94FD040C94D205AEE0B1E08C91A3
:100A00008F5F8C9300910E010E3011F00C945704FF
:100A100080E080930E01AEE0B1E08C918F5F8C930B
:100A2000AEE0B1E0AD90BB24A7E2B1E0AA0DBB1DE2
:100A30008C9180930B0194E0ABE0B1E00E94CF0C6D
:100A4000AEE0B1E08C918F5F8C93AEE0B1E0AD9001
:100A5000BB24A7E2B1E0AA0DBB1D8C9180930F01CE
:100A600000910B0140910F01042BAEE0B1E0AD907D
:100A7000BB24A7E2B1E0AA0DBB1D0C9300910E01AF
:100A80000D3018F011F00C9447050C940B0580E024
:100A900080930E0180ED80930B0180E880930F011D
:100AA0000E94910C10910B010E949B0C10910E0161
:100AB0000E949B0C10910F010E949B0C0E94930CB2
:100AC00084E080930D0181E080930E0180ED80939E
:100AD0000B01ADE0B1E0AD90BB24A7E2B1E0AA0DFF
:100AE000BB1D8C9180930F010E94910C10910B0102
:100AF0000E949B0C10910E010E949B0C10910F0103
:100B00000E949B0C0E94930CADE0B1E08C918F5F32
:100B10008C93ADE0B1E08C918F5F8C93AEE0B1E04F
:100B20008C918F5F8C9300910E01033011F00C9427
:100B30009E05AEE0B1E08C918F5F8C9300910E0129
:100B4000063011F00C94AE05ADE0B1E08C918F5FF2
:100B50008C93ADE0B1E08C918F5F8C9300910E018E
:100B6000073011F00C94690580E080930E018091AC
:100B7000290180930F010E94910C10910B010E949A
:100B80009B0C10910E010E949B0C10910F010E9472
:100B90009B0C0E94930C709101017F77709301016F
:100BA0000C94D7057091010170687093010108954C
:100BB00070916E007E7F70936E0081E080930D01D6
:100BC00080E080930E0180ED80930B010E94910CD8
:100BD00010910B010E949B0C10910E010E949B0C26
:100BE0000E94910CABE0B1E08C918F5F8C931091DF
:100BF0000B010E949B0C0E94BA0CAFE0B1E01C9369
:100C000000910E01033011F40C94410600910F0184
:100C10004FE00423ABE0B1E00C93ABE0B1E08C918A
:100C2000805D8C9394E0AFE0B1E00E94D90CAFE01E
:100C3000B1E08C918F708C93AFE0B1E08C91805DCE
:100C40008C9380910F01ADE0B1E0AD90BB24A7E2A1
:100C5000B1E0AA0DBB1D8C93ADE0B1E08C918F5F2C
:100C60008C9380910B01ADE0B1E0AD90BB24A7E285
:100C7000B1E0AA0DBB1D8C93ADE0B1E08C918F5F0C
:100C80008C93AEE0B1E08C918F5F8C9300910E015C
:100C9000063011F00C94FB050E94B80CAFE0B1E0F7
:100CA0001C9300910F014FE00423ABE0B1E00C93E3
:100CB000ABE0B1E08C91805D8C9394E0AFE0B1E06B
:100CC0000E94D90CAFE0B1E08C918F708C93AFE0B3
:100CD000B1E08C91805D8C9380910F01ADE0B1E02B
:100CE000AD90BB24A7E2B1E0AA0DBB1D8C93ADE093
:100CF000B1E08C918F5F8C9380910B01ADE0B1E0FE
:100D0000AD90BB24A7E2B1E0AA0DBB1D8C930E945D
:100D1000930C8091280180930E0180912C01809387
:100D2000280180910E0180932C01809129018093EC
:100D30000E0180912D018093290180910E018093F5
:100D40002D0170916E00716070936E00089580E0C7
:100D500080930E01AEE0B1E08C918F5F8C93809117
:100D60000E0180930B01ABE0B1E08C918F5F8C930F
:100D700000910E010B3011F00C94C406E6E8FCE182
:100D80000E94330D0E944C0CAEE0B1E0AD90BB244C
:100D9000A7E2B1E0AA0DBB1D8C91AFEDB1E08D9340
:100DA00088278C93AFEDB1E00E94460CABE0B1E038
:100DB000AD90BB24A7E2B1E0AA0DBB1D8C91AFEDB5
:100DC000B1E08D9388278C93AFEDB1E00E94460C83
:100DD00000910E01013011F00C94F606EAE8FCE1F6
:100DE0000E94330D0E944C0C0C942407033011F028
:100DF0000C940207EAE8FCE10E94330D0E944C0CBF
:100E00000C942407053011F00C940E07ECE8FCE17B
:100E10000E94330D0E944C0C0C942407073011F0F3
:100E20000C941A07EEE8FCE10E94330D0E944C0C72
:100E30000C942407093011F00C942407EEE8FCE12F
:100E40000E94330D0E944C0CAEE0B1E08C918F5F9C
:100E50008C9300910E010B3018F011F00C943207B6
:100E60000C94AA060E94580C089580ED80930B0103
:100E70000E94910C10910B010E949B0C10910E018D
:100E80000E949B0C10910F010E949B0C0E94930CDE
:100E9000089580ED80930B010E94910C10910B013D
:100EA0000E949B0C10910E010E949B0C0E94910CC1
:100EB000ABE0B1E08C918F5F8C9310910B010E949D
:100EC0009B0C0E94B80CAFE0B1E01C930E94930C05
:100ED000089581E00E94C90C81E0A881B9818C93BA
:100EE00040910901A881B9810C91041718F011F003
:100EF0000C949707A881B981AD90BB24ADE8B1E00F
:100F0000AA0CBB1CAA0DBB1D8D919C91AFE9B1E051
:100F10008D939C9332E0AFE9B1E00E94530CA8811D
:100F2000B9818C918F5F8C9310F40C94700781E0E1
:100F3000481A80E0580A22960895E0E9FCE10E94F0
:100F4000330D0E944C0CAEE9B0E4E3EDF1E00E94F9
:100F50005C0D0E94440CE8EAFCE10E94330D0E9403
:100F60004C0C0E94580C0FEF1FE720E030E0A3ED7F
:100F7000B1E04D915D916D917C910E94410DAFEC7E
:100F8000B1E00D931D932D933D93E0EBFCE10E94A6
:100F9000330D0E944C0CAEE9B0E4EFECF1E00E949E
:100FA0005C0D0E94440CE8EAFCE10E94330D0E94B3
:100FB0004C0C0E94580C08950F921F922F923F9252
:100FC0004F925F927F92AF92BF920F931F932F9396
:100FD0003F934F935F936F937F938F939F93AF93C1
:100FE000BF93CF93DF93EF93FF938FB78F938BB71D
:100FF0008F9388278BBF882785BD7BEF76BD709147
:101000007A00706470937A008F918BBF8F918FBF3D
:10101000FF91EF91DF91CF91BF91AF919F918F9110
:101020007F916F915F914F913F912F911F910F9100
:10103000BF90AF907F905F904F903F902F901F9008
:101040000F9018950F921F922F923F924F925F929E
:101050007F92AF92BF920F931F932F933F934F9323
:101060005F936F937F938F939F93AF93BF93CF9330
:10107000DF93EF93FF938FB78F938BB78F9388276F
:101080008BBF85EE98E4909385008093840080E880
:1010900089B9A7EAB1E00E941B0CABEAB1E04D911F
:1010A0005C91A7EAB1E00D911C910417150711F0AE
:1010B0000C94950880E090E0A7EAB1E08D939C93B2
:1010C00081E080930C014091090100910C0104170B
:1010D00018F011F00C949508ACE0B1E0AD90BB2491
:1010E000ADE8B1E0AA0CBB1CAA0DBB1D8C91AFE012
:1010F000B1E08C930E94B402ACE0B1E0AD90BB24AF
:10110000ADE8B1E0AA0CBB1CAA0DBB1D11968C91D9
:10111000AFE0B1E08C930E94B402ACE0B1E08C91FE
:101120008F5F8C9310F40C9463088F918BBF8F9119
:101130008FBFFF91EF91DF91CF91BF91AF919F91C1
:101140008F917F916F915F914F913F912F911F915F
:101150000F91BF90AF907F905F904F903F902F90F6
:101160001F900F9018950F921F922F923F924F92BF
:101170005F927F92AF92BF920F931F932F933F93F3
:101180004F935F936F937F938F939F93AF93BF938F
:10119000CF93DF93EF93FF938FB78F938BB78F939B
:1011A00088278BBFA7E0B1E0809178008C93809175
:1011B0007900A2E0B1E0AD90BB24AFE8B1E0AA0CA9
:1011C000BB1CAA0DBB1D8D9388278C9398E0A2E0D1
:1011D000B1E0AD90BB24AFE8B1E0AA0CBB1CAA0DF6
:1011E000BB1D0E94F60CA2E0B1E0AD90BB24AFE8BD
:1011F000B1E0AA0CBB1CAA0DBB1D0D911C91A7E070
:10120000B1E04D915527040F151FA2E0B1E0AD905C
:10121000BB24AFE8B1E0AA0CBB1CAA0DBB1D0D930B
:101220001C93A2E0B1E08C918F5F8C9340910901F7
:1012300000910201041710F40C94210980E08093BE
:101240000201A7E0B1E080917C008C93A7E0B1E0BF
:101250008C91887F8C930091070140910201040FCB
:10126000A7E0B1E00C93A7E0B1E08C9180937C0003
:1012700084E085BD8F918BBF8F918FBFFF91EF91E0
:10128000DF91CF91BF91AF919F918F917F916F919E
:101290005F914F913F912F911F910F91BF90AF9010
:1012A0007F905F904F903F902F901F900F901895D8
:1012B0000F921F922F923F924F925F927F92AF9226
:1012C000BF920F931F932F933F934F935F936F930F
:1012D0007F938F939F93AF93BF93CF93DF93EF93BE
:1012E000FF938FB78F938BB78F9388278BBF0E9405
:1012F000370CA8E0B1E08C9300910801003011F4A4
:101300000C94EE0B009108010B3111F00C949F0925
:10131000A1E0B1E08C9185FB16F40C9497097091D3
:1013200001017062709301015E980C949D097091A7
:1013300001017F7D709301015E9A0C94EE0BA1E098
:10134000B1E08C9185FB16F00C94E90B70910101D2
:101350007F7D7093010100910801013411F00C941C
:10136000DD090E943D0CA8E0B1E08C9300910801DA
:10137000003380E010F009F081E08F9300910801C4
:10138000093381E008F080E09F918923882311F4DC
:101390000C94DB090091080140E3041BA9E0B1E0D3
:1013A0000C93E0E0F0E0A9E0B1E07BE70E94E70DFC
:1013B00080E0809302010C94E60B023411F00C944F
:1013C0001E0A36E00E94220CAEE9B0E40E94B20D83
:1013D000AFE9B1E00D931C93AFE9B1E00D911C9121
:1013E000003050E0150780E010F009F081E08F93A5
:1013F00040E050E061E070E0AFE9B1E00D911C9198
:10140000222733270E94460D80E00CF481E09F9153
:101410008923882311F40C941C0AAFE9B1E08D9163
:101420009C91ABEAB1E08D939C93E3E0F0E0ABEAF2
:10143000B1E07BE70E94E90D0C94E60B043411F057
:101440000C94340A0E943D0CAAE0B1E08C93AAE00F
:10145000B1E08C9184B9E1E0F0E0AAE0B1E07BE793
:101460000E94E70D0C94E60B083411F00C946B0A03
:1014700081E080930E0100910E010E3018F011F002
:101480000C945F0A0E943D0CABE0B1E08C93ABE0A2
:10149000B1E08C9180538C9380910B01AEE0B1E070
:1014A000AD90BB24A7E2B1E0AA0DBB1D8C93AEE0CA
:1014B000B1E08C918F5F8C9310F40C943B0A0E94E6
:1014C0003C0486E080930F0188E080930E010E9427
:1014D00035070C94E60B093411F00C94F90AF894D2
:1014E00080E080938E01E2E0F0E0AEE8B1E07BE7DF
:1014F0000E94E70D8CE390E0ABEAB1E08D939C9302
:10150000E3E0F0E0ABEAB1E07BE70E94E90DE8EC54
:10151000FCE10E94330D0E944C0C0E94580CECED33
:10152000FCE10E94330D0E944C0C0E94580C00E01C
:1015300010E020E030E0A3EDB1E00D931D932D937A
:101540003C93A3EDB1E00D911D912D913C91A7ED40
:10155000B1E00D931D932D933C9389E080930E0190
:101560000091D7014FEF0423AFE0B1E00C930E944C
:1015700035078AE080930E0198E0A7EDB1E00E9464
:10158000120D0091D7014FEF0423AFE0B1E00C93AF
:101590000E9435078BE080930E0198E0A7EDB1E043
:1015A0000E94120D0091D7014FEF0423AFE0B1E08C
:1015B0000C930E9435078CE080930E0198E0A7ED14
:1015C000B1E00E94120D0091D7014FEF0423AFE06C
:1015D000B1E00C930E9435078EE080930E0181E00C
:1015E00080930F010E9435070E941A0178940C9491
:1015F000E60B023511F00C943A0B00918E0101308C
:1016000011F00C94150B80E080938E01E2E0F0E085
:10161000AEE8B1E07BE70E94E70D80918100887F12
:10162000809381005F9A0C94380B81E080938E0147
:10163000E2E0F0E0AEE8B1E07BE70E94E70D8EE08B
:1016400080930E0187E080930F010E9435070E946E
:101650001A0185EE98E4909385008093840080E0E1
:1016600090E0A7EAB1E08D939C9384E080938100A1
:101670000C94E60B033511F00C944A0B0E943D0CC0
:10168000A8E0B1E08C9304B140910801042305B9AE
:101690000C94E60B043511F00C94630BA1E0B1E05F
:1016A0008C9184FB16F40C945C0B709101017061B9
:1016B000709301010C94610B709101017F7E709316
:1016C00001010C94E60B013611F00C946B0B0E9497
:1016D00069070C94E60B023611F00C94920B0E94F1
:1016E0003D0CA8E0B1E08C930091080140E3041B9D
:1016F000ABE0B1E00C93ABE0B1E0AD90BB24ADE862
:10170000B1E0AA0CBB1CAA0DBB1D8D919C91AFE949
:10171000B1E08D939C9332E0AFE9B1E00E94530CAD
:101720000C94E60B043611F00C949D0B31E0A3E20F
:10173000B0E00E94530C0C94E60B053611F00C94AB
:10174000D30BE4E0FCE10E94330D0E944C0C0E949C
:10175000580CE2E1FCE10E94330D0E944C0C0E9407
:10176000580CE4E2FCE10E94330D0E944C0C0E94F4
:10177000580CEAE2FCE10E94330D0E944C0C0E94DE
:10178000580CE6E3FCE10E94330D0E944C0C0E94D1
:10179000580CEAE6FCE10E94330D0E944C0C0E94BA
:1017A000580C0C94E60B083611F00C94DD0B0E94DB
:1017B000D8050E94A7060C94E60B0D3611F00C9488
:1017C000E50B0E949D070C94E60B00005E9A0C94BA
:1017D000EE0B31E0A8E0B1E00E94530C8F918BBF7B
:1017E0008F918FBFFF91EF91DF91CF91BF91AF911B
:1017F0009F918F917F916F915F914F913F912F9129
:101800001F910F91BF90AF907F905F904F903F904E
:101810002F901F900F901895F894FFCF0D911D9168
:101820002D913C910F5F1F4F2F4F3F4F3C932E93B5
:101830001E930E930895ED91FC91EF5FFF4FFC9383
:10184000EE930895AEE9B0E418D08D3039F033232B
:10185000D9F38D933A9563FE2ED0F6CF63FC04C086
:101860008DE029D08AE027D088278C930895882797
:101870000090C00007FE089500C08091C00087FF5F
:10188000FCCF8091C6000895AEE9B0E48D91882325
:1018900011F011D0FBCF08950E94230D802D11F07F
:1018A0000AD0FACF08958D9106D03A95E1F70895C0
:1018B0008DE001D08AE00090C00005FEFCCF80934F
:1018C000C60008953197F1F70895689462F8089575
:1018D000E89462F80895EF93FF93EE27E82BE92B45
:1018E00031F0E8EBFBE03197F1F70197D1F7FF9189
:1018F000EF91089539983898419A409A08956894DC
:101900004093BC008F939F9388279927019629F0D5
:101910004091BC0047FFFACFE8949F918F9162F805
:10192000089544EAECCF44E94093BC004091BC00E8
:1019300047FDFCCF08951093BB0044E8E0DF8F9390
:101940009F9388279927019671F04091B900487FAD
:10195000483FC9F3E894483139F0483229F040341F
:1019600019F0403509F068949F918F9162F80895BD
:1019700044E801C044ECC3DF1091BB004091B900C2
:10198000487F483FD9F308955A924A92480E591E0B
:1019900008955A924A92480E8827581E089590300A
:1019A00039F08C91880F08F481609A95D9F78C935F
:1019B0000895903039F08C91869508F480689A9556
:1019C000D9F78C930895903081F00D911D912D9150
:1019D0003C91369527951795079508F430689A95A8
:1019E000C1F73C932E931E930E930895903041F0CF
:1019F0000D911C91000F111F9A95E1F71C930E9306
:101A00000895903071F00D911D912D913C91000F32
:101A1000111F221F331F9A95D1F73C932E931E93CB
:101A20000E930895903071F00D911D912D913C9180
:101A300036952795179507959A95D1F73C932E9350
:101A40001E930E930895D895319628F48F938BB7F3
:101A500083958BBF8F91002008950F9301E00BBFFA
:101A60000F91889408950F930027F9CF0F9302E008
:101A7000F6CF0F9303E0F3CF040F151F261F371F78
:101A80000895041B150B260B370B08950417150733
:101A9000260737070895000F111F221F331F0895CF
:101AA00000951095209530950F5F1F4F2F4F3F4F9A
:101AB0000895019110810EC0019111912191308101
:101AC0000BC00191108117FF05C03FEF2FEF04C03D
:101AD000008111272227332737FF03C0E1DF8DE282
:101AE0008D93CF93DF93CF92DF92EF92AA24BB2402
:101AF000CC24DD24EE2440E2CAE0DD2755E093E368
:101B00008881890F87FD9F7083FD907F891B899352
:101B10005A95A9F7C0DFAA1CBB1CCC1CDD1CEE1C0F
:101B20004A9551F7E894EFE0FF2782910ED0EB3011
:101B3000E0F71EF068948A2D0CD088278D93EF90E3
:101B4000DF90CF90DF91CF910895982F829501D0AB
:101B5000892F8F70805D26F0803309F40895689492
:101B60008D93089500271127222733271DD08A330C
:101B700028F4803318F005D015D0F9CF0EF490CFAB
:101B8000089580538F93402F512F622F732F83DF3F
:101B900082DF72DF80DF8F919927080F191F291FBD
:101BA000391F08958D910895E894FCDF8032E9F3A0
:101BB0008B32D9F38930C9F38D3211F46894F2CFA6
:101BC0000895F999FECFE1BDF2BD3196089591E0F7
:101BD00001C092E07B3751F47FB7F894F2DF8D912A
:101BE00080BDFA9AF99A9A95C9F77FBF7727089529
:101BF00091E001C092E0E5DFF89A80B58D939A9567
:101C0000D1F7089550726F796563746F202D20416C
:101C100044007550202D2041544D656761313238A4
:101C2000347000007620312E390032352F30352FB8
:101C30003230313400004175746F7265733A204C54
:101C400069632E204C6973616E64726F20526176F5
:101C5000696F6C61202F20496E672E204775737461
:101C600061766F205265616C0000554E475300004D
:101C700052656C6F6A206E6F20696E696369616C72
:101C8000697A61646F00323000003A0020002F0052
:101C90004D656D6F726961207574696C697A6164F4
:101CA00061202D2D3E2000002062797465730000B4
:101CB0004D656D6F7269612072657374616E7465D4
:101CC000202D2D2D3E200000426F7272616E646FD8
:101CD000206D656D6F7269612E2E2E00496E6963ED
:0E1CE00069616C697A616E646F2E2E2E0000B1
:00000001FF
