:100000000C9446000C943A0B1895000018950000CB
:10001000189500001895000018950000189500002C
:10002000189500001895000018950000189500001C
:100030001895000018950000189500000C947C0994
:1000400018950000189500000C94360918950000CA
:100050000C948D0B18950000189500001895000061
:100060000C948C0A18950000189500001895000053
:1000700018950000189500001895000018950000CC
:100080001895000018950000189500008FEF8DBF9F
:10009000C0EDE8EB4E2E80E48EBFD0E4F0E45F2E9E
:1000A000A89584B7082E877F84BF88E1992780931D
:1000B000600090936000EEEFFFE3A0E0B1E08827DE
:1000C0008D933197E9F786E28093C40080E08093B6
:1000D000C50088E18093C10066240E942D1070E065
:1000E0007093B90074E37093B80086E880937A0047
:1000F00080E080937C0070917A007F7770937A0023
:1001000084E085BD80E084BD882785BD7DEF76BD18
:1001100080E08093800084E0809381008091810062
:10012000887F8093810085EE98E49093850080938A
:1001300084003A9A3B9A569A579AF8947091010122
:10014000726070930101E6E7F3E20E94EC100E94F6
:10015000FF0F0E940B10E4E8F3E20E94EC100E94F3
:10016000FF0F0E940B10429A5E9881E08093090174
:1001700000910901083018F011F00C94CD0080E4D2
:1001800089B98AEF90E00E941E10A9E0B1E08C913D
:100190008F5F8C9310F40C94B8000E94400180E0B3
:1001A00080930F01439A70916E00716070936E009E
:1001B00070916F00716070936F0070917A00786039
:1001C00070937A008091C100806C8093C1000E947E
:1001D000650170917A00706870937A0070917A006E
:1001E000706470937A00709101017D7F70930101BA
:1001F0007894A1E0B1E08C9185FB16F00C9402019B
:100200000E94AC07A1E0B1E08C9182FB16F00C9447
:100210003E01709101017B7F7093010181E090E0CC
:10022000A8E7B1E08D939C93A2E8B1E14D915C9178
:10023000A8E7B1E00D911C910417150718F011F013
:100240000C943E01A8E7B1E0AD90BD90AEE7B1E0FF
:10025000AA0CBB1CAA0DBB1D8D919C91A6E7B1E019
:100260008D939C9332E0A6E7B1E00E940610A8E7C8
:10027000B1E00E94CE0F10F40C9414010C94F9001C
:1002800080918100887F80938100709101017F7D42
:1002900070930101709101017F7B7093010180E0F7
:1002A0008093620180E090E0AAE7B1E08D939C9397
:1002B00070910101777F70930101709101017B7F43
:1002C000709301015E9A5F9A08950E948C010E94CA
:1002D000AA01A1E0B1E08C9181FB81E00EF080E009
:1002E0008F9300916201003081E009F080E09F91DE
:1002F0008923882311F40C94800100000C9482015E
:100300000E94950200916201013011F00C948B0162
:1003100084E080938100089581E00E947C1088E051
:1003200080930C010E948C0700910D01063011F49E
:100330000C94A4010E944001E4E9F3E20E94EC1055
:100340000E94FF0F0E940B1081E0481A80E0580ABB
:1003500022960895E1E0F0E0A8E0B1E00E94B1113A
:10036000A8E0B1E08C9184B9E0E0F0E0A7E0B1E072
:100370000E94B11100910701013081E008F080E096
:100380008F9300910701083080E010F009F081E0C0
:100390009F91892B882311F40C94D80188E08093D5
:1003A0000701E0E0F0E0A7E0B1E07BE70E94A011E8
:1003B00080E080930301709101017F7D70930101C2
:1003C000709101017F7B70930101E2E0F0E0A2E611
:1003D000B1E00E94B111E3E0F0E0ACE7B1E00E94CF
:1003E000B31100E010E020E030E0A8E8B1E10D93A7
:1003F0001D932D933C938CE080930C010E948C07FD
:10040000A8E8B1E10D911D912D913C91ADE0B1E0D5
:100410004C915527662777270E94F510A8E8B1E18F
:100420000D931D932D933D9398E0A8E8B1E10E94B0
:10043000BA108BE080930C010E948C07A8E8B1E110
:100440000D911D912D913C91ADE0B1E04C9155275E
:10045000662777270E94F510A8E8B1E10D931D9358
:100460002D933D9398E0A8E8B1E10E94BA108AE08C
:1004700080930C010E948C07A8E8B1E10D911D91B9
:100480002D913C91ADE0B1E04C915527662777273F
:100490000E94F510A8E8B1E10D931D932D933D93B3
:1004A00098E0A8E8B1E10E94BA1089E080930C01BD
:1004B0000E948C07A8E8B1E10D911D912D913C910E
:1004C000ADE0B1E04C915527662777270E94F510E3
:1004D000A8E8B1E10D931D932D933D934FEF5FE796
:1004E00060E070E0A8E8B1E10D911D912D913C9183
:1004F0000E94FF100CF402C00C948502709101015F
:100500007F7E709301010C949402709101017061DF
:100510007093010180E080936201E2E0F0E0A2E6E6
:10052000B1E07BE70E94A01108958FEF80930D0149
:100530000E9407038FEF80930D010E9407030E9422
:10054000250681E080930E0100910E010A3018F01B
:1005500011F00C94C002AEE0B1E0AD90BB24A1E17B
:10056000B1E0AA0DBB1D8C9180930D010E94070381
:10057000AEE0B1E08C918F5F8C9310F40C94A402E8
:1005800082E380930D010E94070380E380930D01B5
:100590000E94070380911C0180930D010E940703B4
:1005A00080911D0180930D010E940703ACE7B1E02B
:1005B0008C91ADE0B1E08C930E940703ACE7B1E011
:1005C00011968C91ADE0B1E08C930E94070380916D
:1005D000070180930D010E9407038EE080930C01B8
:1005E0000E948C070E9407038FEF80930D010E94E9
:1005F00007038FEF80930D010E9407038EE0809325
:100600000C0180E080930D010E947807089570919D
:100610007A00777F70937A00882785BDA1E0B1E0EA
:100620008C9184FB16F40C949103A8E8B1E10D9130
:100630001D912D913C91A4E8B1E10D931D932D9353
:100640003C930E949903A8E8B1E10E94C10FA8E879
:10065000B1E10D911D912D913C91ACE8B1E10D936B
:100660001D932D933C934FEF5FE760E070E0A8E8A7
:10067000B1E10D911D912D913C910E94FF100CF064
:1006800002C00C94520380E080936201E2E0F0E04B
:10069000A2E6B1E07BE70E94A011709101017061B8
:1006A0007093010189E080930C0100918C114FEF50
:1006B0000423ADE0B1E00C930E9478078AE08093B8
:1006C0000C0198E0ACE8B1E10E94CB1000918C11D4
:1006D0004FEF0423ADE0B1E00C930E9478078BE06C
:1006E00080930C0198E0ACE8B1E10E94CB1000913E
:1006F0008C114FEF0423ADE0B1E00C930E9478071A
:100700008CE080930C0198E0ACE8B1E10E94CB1042
:1007100000918C114FEF0423ADE0B1E00C930E94E7
:10072000780784E085BD70917A00786070937A00D4
:10073000089580EA809309010091090140910F0119
:10074000042BA9E0B1E00C93009184114FEF042336
:10075000A1E1B1E00C9398E0A4E8B1E10E949C1003
:10076000009184114FEF0423A0E1B1E00C93439872
:100770000E944410109109010E944E101091100126
:100780000E944E10109111010E944E1010910D0107
:100790000E944E100E9446108AE090E00E941E10B7
:1007A000439A089580EA80930901009109014091DC
:1007B0000F01042BA9E0B1E00C93009184114FEFDD
:1007C0000423A1E1B1E00C9398E0A4E8B1E10E9418
:1007D0009C10009184114FEF0423A0E1B1E00C9331
:1007E0000E944410109109010E944E1010911001B6
:1007F0000E944E10109111010E944E100E94441050
:10080000A9E0B1E08C918F5F8C93109109010E9457
:100810004E100E946B10ADE0B1E01C930E94461098
:10082000089580EA809309010091090140910F0128
:10083000042BA9E0B1E00C938FEF80930D01439856
:1008400000E010E020E030E0A4E8B1E10D931D935A
:100850002D933C93A4E8B1E10D911D912D913C9114
:10086000ACE8B1E10D931D932D933C9300918C1155
:100870004FEF0423A1E1B1E00C9398E0ACE8B1E1C3
:100880000E949C1000918C114FEF0423A0E1B1E075
:100890000C930E944410109109010E944E10109177
:1008A00010010E944E10109111010E944E1080E024
:1008B00080930C0110910D010E944E10ACE0B1E04C
:1008C0008C918F5F8C93A4E8B1E10E94C10F0091DD
:1008D0000C01003411F00C945A040E9446108AE076
:1008E00090E00E941E1080E489B94FEF5FE760E05E
:1008F00070E0A4E8B1E10D911D912D913C910E9411
:10090000FF101CF011F00C9487040C9489040C94D3
:100910008B040C942A04439A0895809112018093C9
:100920000C01809116018093120180910C0180933B
:1009300016018091130180930C018091170180931F
:10094000130180910C018093170180E080930C01CA
:10095000ACE0B1E08C918F5F8C9380910C0180931F
:100960000901A9E0B1E08C918F5F8C93ACE0B1E01C
:10097000AD90BB24A1E1B1E0AA0DBB1D0C914AE0F2
:10098000049FADE0B1E00C9200910D01A9E0B1E04F
:10099000AD90BB24A1E1B1E0AA0DBB1D4C91040FA9
:1009A000ADE0B1E00C9300910C01043010F00C9418
:1009B000E60400910D010B3318F011F00C94E204E1
:1009C0000C94E4040C9421060C944E05053011F0AF
:1009D0000C94F70400910D01073118F011F00C94FC
:1009E000F3040C94F5040C9421060C944E05073086
:1009F00011F00C94100500910D010F3118F011F059
:100A00000C9404050C9406050C94210600910D012C
:100A1000003011F00C940E050C9421060C944E0538
:100A2000093011F00C94290500910D010C3018F0DB
:100A300011F00C941D050C941F050C9421060091D7
:100A40000D01003011F00C9427050C9421060C9434
:100A50004E050B3011F00C94370500910D01043157
:100A600011F40C9435050C9421060C944E050D30B0
:100A700011F00C944E0500910D01033618F011F0A1
:100A80000C9444050C9446050C94210600910D012C
:100A9000003010F00C944E050C942106ACE0B1E04F
:100AA0008C918F5F8C9300910C010E3011F00C949F
:100AB000A80480E080930C01ACE0B1E08C918F5FE2
:100AC0008C93ACE0B1E0AD90BB24A1E1B1E0AA0D04
:100AD000BB1D8C918093090194E0A9E0B1E00E94D4
:100AE0008810ACE0B1E08C918F5F8C93ACE0B1E00A
:100AF000AD90BB24A1E1B1E0AA0DBB1D8C91809308
:100B00000D010091090140910D01042BACE0B1E011
:100B1000AD90BB24A1E1B1E0AA0DBB1D0C930091E7
:100B20000C010D3018F011F00C9498050C945C0534
:100B300080E080930C0180ED8093090180E8809330
:100B40000D010E944410109109010E944E10109155
:100B50000C010E944E1010910D010E944E100E9437
:100B6000461084E080930B0181E080930C0180EDBE
:100B700080930901ABE0B1E0AD90BB24A1E1B1E00D
:100B8000AA0DBB1D8C9180930D010E944410109101
:100B900009010E944E1010910C010E944E101091FC
:100BA0000D010E944E100E944610ABE0B1E08C9106
:100BB0008F5F8C93ABE0B1E08C918F5F8C93ACE056
:100BC000B1E08C918F5F8C9300910C01033011F098
:100BD0000C94EF05ACE0B1E08C918F5F8C930091A9
:100BE0000C01063011F00C94FF05ABE0B1E08C91E4
:100BF0008F5F8C93ABE0B1E08C918F5F8C93009111
:100C00000C01073011F00C94BA0580E080930C01C0
:100C10008091130180930D010E94441010910901ED
:100C20000E944E1010910C010E944E1010910D0167
:100C30000E944E100E94461080E0809302010C94A6
:100C4000240681E080930201089581E080930B01E6
:100C500080E080930C0180ED809309010E94441094
:100C6000109109010E944E1010910C010E944E102B
:100C70000E944410A9E0B1E08C918F5F8C93109199
:100C800009010E944E100E946D10ADE0B1E01C936E
:100C900000910C01033011F40C94890600910D01B0
:100CA0004FE00423A9E0B1E00C93A9E0B1E08C91FE
:100CB000805D8C9394E0ADE0B1E00E949210ADE0D5
:100CC000B1E08C918F708C93ADE0B1E08C91805D40
:100CD0008C9380910D01ABE0B1E0AD90BB24A1E11C
:100CE000B1E0AA0DBB1D8C93ABE0B1E08C918F5F9E
:100CF0008C9380910901ABE0B1E0AD90BB24A1E100
:100D0000B1E0AA0DBB1D8C93ABE0B1E08C918F5F7D
:100D10008C93ACE0B1E08C918F5F8C9300910C01CF
:100D2000063011F00C9443060E946B10ADE0B1E068
:100D30001C9300910D014FE00423A9E0B1E00C9356
:100D4000A9E0B1E08C91805D8C9394E0ADE0B1E0DE
:100D50000E949210ADE0B1E08C918F708C93ADE069
:100D6000B1E08C91805D8C9380910D01ABE0B1E09E
:100D7000AD90BB24A1E1B1E0AA0DBB1D8C93ABE00B
:100D8000B1E08C918F5F8C9380910901ABE0B1E071
:100D9000AD90BB24A1E1B1E0AA0DBB1D8C930E94D4
:100DA00046108091120180930C018091160180936E
:100DB000120180910C0180931601809113018093A0
:100DC0000C01809117018093130180910C01809395
:100DD0001701089580E080930C01ACE0B1E08C91A4
:100DE0008F5F8C9380910C0180930901A9E0B1E0A1
:100DF0008C918F5F8C9300910C010B3011F00C944F
:100E00000707EAEAF3E20E94EC100E94FF0FACE051
:100E1000B1E0AD90BB24A1E1B1E0AA0DBB1D8C9166
:100E2000A0E9B1E18D9388278C93A0E9B1E10E94FC
:100E3000F90FA9E0B1E0AD90BB24A1E1B1E0AA0DAA
:100E4000BB1D8C91A0E9B1E18D9388278C93A0E91B
:100E5000B1E10E94F90F00910C01013011F00C94E6
:100E60003907EEEAF3E20E94EC100E94FF0F0C94A7
:100E70006707033011F00C944507EEEAF3E20E9495
:100E8000EC100E94FF0F0C946707053011F00C94D2
:100E90005107E0EBF3E20E94EC100E94FF0F0C946C
:100EA0006707073011F00C945D07E2EBF3E20E9454
:100EB000EC100E94FF0F0C946707093011F00C949E
:100EC0006707E2EBF3E20E94EC100E94FF0FACE038
:100ED000B1E08C918F5F8C9300910C010B3018F076
:100EE00011F00C9475070C94ED060E940B100895F8
:100EF00080ED809309010E944410109109010E9425
:100F00004E1010910C010E944E1010910D010E9484
:100F10004E100E944610089580ED809309010E94B2
:100F20004410109109010E944E1010910C010E9472
:100F30004E100E944410A9E0B1E08C918F5F8C9319
:100F4000109109010E944E100E946B10ADE0B1E0BB
:100F50001C930E944610089581E00E947C1081E05D
:100F6000A881B9818C9340910701A881B9810C9126
:100F7000041718F011F00C94DA07A881B981AD902C
:100F8000BB24A2E6B1E0AA0CBB1CAA0DBB1D8D912F
:100F90009C91A6E7B1E08D939C9332E0A6E7B1E087
:100FA0000E940610A881B9818C918F5F8C9310F4F8
:100FB0000C94B30781E0481A80E0580A22960895FD
:100FC000E4EBF3E20E94EC100E94FF0FA0EAB0E411
:100FD000E8E8F1E10E9415110E94F70FECECF3E252
:100FE0000E94EC100E94FF0F0E940B100FEF1FE7F2
:100FF00020E030E0A8E8B1E14D915D916D917C91E8
:101000000E94FA10A4E8B1E10D931D932D933D9336
:10101000E4EDF3E20E94EC100E94FF0FA0EAB0E4BE
:10102000E4E8F1E10E9415110E94F70FECECF3E205
:101030000E94EC100E94FF0F0E940B10089586E49E
:10104000482F00916301041711F00C942E08809131
:1010500069008C7F826080936900E89A82E5482F5E
:1010600000916301041711F00C943C088091690011
:10107000836080936900E89A08950E940B10ECEE5B
:10108000F3E20E94EC100E94FF0F0E940B100E94DE
:101090000B10EEE0F4E20E94EC100E94FF0F0E94A1
:1010A0000B100E940B10E2E3F4E20E94EC100E948D
:1010B000FF0F0E940B100E940B10EAE5F4E20E9461
:1010C000EC100E94FF0F0E940B100E940B10EAE828
:1010D000F4E20E94EC100E94FF0F0E940B100E948D
:1010E0000B10E0EDF4E20E94EC100E94FF0F0E9452
:1010F0000B100E940B10E0E2F5E20E94EC100E943F
:10110000FF0F0E940B100E940B10E6E7F5E20E9411
:10111000EC100E94FF0F0E940B100E940B10EEE9D2
:10112000F5E20E94EC100E94FF0F0E940B100E943B
:101130000B10EEEEF5E20E94EC100E94FF0F0E94F1
:101140000B10EAE1F6E20E94EC100E94FF0F0E94F1
:101150000B10ECE5F6E20E94EC100E94FF0F0E94DB
:101160000B100E940B10ECE7F6E20E94EC100E94BC
:10117000FF0F0E940B100E940B10E2ECF6E20E949F
:10118000EC100E94FF0F0E940B100E940B10EAEE61
:10119000F6E20E94EC100E94FF0F0E940B100E94CA
:1011A0000B10E2E3F7E20E94EC100E94FF0F0E9496
:1011B0000B100E940B10E0E7F7E20E94EC100E9477
:1011C000FF0F0E940B100E940B10E4EBF7E20E944D
:1011D000EC100E94FF0F0E940B100E940B10E4E025
:1011E000F8E20E94EC100E94FF0F0E940B100E9478
:1011F0000B10EEE4F8E20E94EC100E94FF0F0E9438
:101200000B100E940B10E2E7F8E20E94EC100E9423
:10121000FF0F0E940B100E940B10E8EBF8E20E94F7
:10122000EC100E94FF0F0E940B100E940B10E8EDC3
:10123000F8E20E94EC100E94FF0F0E940B100E9427
:101240000B10ECEEF8E20E94EC100E94FF0F0E94DF
:101250000B100E940B10E8E1F9E20E94EC100E94D2
:10126000FF0F0E940B100E940B1008950F921F9207
:101270002F923F924F925F927F92AF92BF920F93C5
:101280001F932F933F934F935F936F937F938F930E
:101290009F93AF93BF93CF93DF93EF93FF938FB75A
:1012A0008F938BB78F9388278BBF882785BD7DEF62
:1012B00076BD70917A00706470937A008F918BBFC5
:1012C0008F918FBFFF91EF91DF91CF91BF91AF9140
:1012D0009F918F917F916F915F914F913F912F914E
:1012E0001F910F91BF90AF907F905F904F903F9074
:1012F0002F901F900F9018950F921F922F923F9250
:101300004F925F927F92AF92BF920F931F932F9352
:101310003F934F935F936F937F938F939F93AF937D
:10132000BF93CF93DF93EF93FF938FB78F938BB7D9
:101330008F9388278BBF00916201013011F00C94CC
:10134000F70985EE98E4909385008093840080E807
:1013500089B9AAE7B1E00E94CE0FACE7B1E04D91A8
:101360005C91AAE7B1E00D911C910417150711F0EB
:101370000C94F50980E090E0AAE7B1E08D939C938E
:1013800081E080930A014091070100910A0104174E
:1013900018F011F00C94F509AAE0B1E0AD90BB246F
:1013A000A2E6B1E0AA0CBB1CAA0DBB1D8C91ADE05E
:1013B000B1E08C930E940703AAE0B1E0AD90BB249A
:1013C000A2E6B1E0AA0CBB1CAA0DBB1D11968C9124
:1013D000ADE0B1E08C930E940703AAE0B1E08C91EC
:1013E0008F5F8C9310F40C94C3090C946E0A8AE6F8
:1013F0009FEF909385008093840080E889B9AAE7E5
:10140000B1E00E94CE0FAEE7B1E04D915C91AAE74A
:10141000B1E00D911C910417150711F00C946E0AA0
:1014200080E090E0AAE7B1E08D939C93A0E8B1E161
:101430000D911C91083F57E0150710F00C94520ACB
:1014400081E080930A014091070100910A0104178D
:1014500018F011F00C94500AAAE0B1E0AD90BB2452
:10146000A2E6B1E0AA0CBB1CAA0DBB1D8D919C91FC
:10147000A0E8B1E1AD90BD90AEE7B1E0AA0CBB1C15
:10148000AA0DBB1D8D939C93A0E8B1E10E94CE0FE5
:10149000AAE0B1E08C918F5F8C9310F40C94230A36
:1014A0000C946E0A80918100887F80938100A0E86F
:1014B000B1E10D911C9141E050E0041B150BA2E835
:1014C000B1E10D931C9381E090E0A0E8B1E18D9330
:1014D0009C93709101017460709301018F918BBF97
:1014E0008F918FBFFF91EF91DF91CF91BF91AF911E
:1014F0009F918F917F916F915F914F913F912F912C
:101500001F910F91BF90AF907F905F904F903F9051
:101510002F901F900F9018950F921F922F923F922D
:101520004F925F927F92AF92BF920F931F932F9330
:101530003F934F935F936F937F938F939F93AF935B
:10154000BF93CF93DF93EF93FF938FB78F938BB7B7
:101550008F9388278BBFA5E0B1E0809178008C93B2
:1015600080917900A3E0B1E0AD90BB24A4E6B1E0A6
:10157000AA0CBB1CAA0DBB1D8D9388278C930091D0
:1015800005010F3F11F00C94C80A8EEF80930501FE
:1015900098E0A3E0B1E0AD90BB24A4E6B1E0AA0CD2
:1015A000BB1CAA0DBB1D0E94AF10A3E0B1E0AD9023
:1015B000BB24A4E6B1E0AA0CBB1CAA0DBB1D0D9177
:1015C0001C91A5E0B1E04D915527040F151FA3E034
:1015D000B1E0AD90BB24A4E6B1E0AA0CBB1CAA0DFF
:1015E000BB1D0D931C93A3E0B1E08C918F5F8C9396
:1015F0004091070100910301041710F40C94030BB0
:1016000080E080930301A5E0B1E080917C008C93A1
:10161000A5E0B1E08C91887F8C9300910501409109
:101620000301040FA5E0B1E00C93A5E0B1E08C91BB
:1016300080937C0084E085BD8F918BBF8F918FBF9D
:10164000FF91EF91DF91CF91BF91AF919F918F91DA
:101650007F916F915F914F913F912F911F910F91CA
:10166000BF90AF907F905F904F903F902F901F90D2
:101670000F9018950F921F922F923F924F925F9268
:101680007F92AF92BF920F931F932F933F934F93ED
:101690005F936F937F938F939F93AF93BF93CF93FA
:1016A000DF93EF93FF938FB78F938BB78F93882739
:1016B0008BBFA1E0B1E08C9183FB16F00C946F0B13
:1016C00080E090E0AAE7B1E08D939C938AE69FEFDB
:1016D000909385008093840084E0809381008F91B3
:1016E0008BBF8F918FBFFF91EF91DF91CF91BF9112
:1016F000AF919F918F917F916F915F914F913F91AA
:101700002F911F910F91BF90AF907F905F904F905E
:101710003F902F901F900F9018950F921F922F922D
:101720003F924F925F927F92AF92BF920F931F931F
:101730002F933F934F935F936F937F938F939F93D9
:10174000AF93BF93CF93DF93EF93FF938FB78F93B5
:101750008BB78F9388278BBF0E94EA0FA6E0B1E07A
:101760008C9300910601003011F40C94A10F0091AC
:1017700006010B3111F00C94D40BA1E0B1E08C9177
:1017800086FB16F40C94CC0B70910101706470937D
:1017900001015E980C94D20B709101017F7B7093D4
:1017A00001015E9A0C94A10FA1E0B1E08C9186FB3F
:1017B00016F00C94A10F709101017F7B70930101D1
:1017C00080E08093020100910601013311F00C9436
:1017D000530C0E940B10E6E3F9E20E94EC100E9409
:1017E000FF0F33E00E94D50FA0EAB0E40E946B1116
:1017F000ADE0B1E00C93E2E5F9E20E94EC100E944A
:10180000FF0F3CE00E94D50FA0EAB0E40E946B11EC
:10181000ACE8B1E10D931D932D933D930E940B1005
:10182000EAE6F9E20E94EC100E94FF0FA0EAB0E4A1
:10183000EDE0F1E00E9421110E94F70F0E940B10D1
:10184000ACE8B1E10D911D912D913C91A4E8B1E17D
:101850000D931D932D933C930E94990380E08093F8
:101860000D01ACE8B1E10D911D912D913C91A4E8E1
:10187000B1E10D931D932D933C930E94D203EAE7AF
:10188000F9E20E94EC100E94FF0FA0EAB0E4EDE044
:10189000F1E00E9421110E94F70F0E940B100E949C
:1018A0000B100C948A0F093311F00C94630C0E94F6
:1018B000F00FA6E0B1E08C9331E0A6E0B1E00E9429
:1018C00006100C948A0F013411F00C949D0C0E94A8
:1018D000F00FA6E0B1E08C9300910601003380E0A8
:1018E00010F009F081E08F9300910601093381E047
:1018F00008F080E09F918923882311F40C94910CC7
:101900000091060140E3041BA7E0B1E00C93E0E086
:10191000F0E0A7E0B1E07BE70E94A01180E08093B7
:1019200003018EE080930C0189E080930D010E94F9
:1019300078070E9465010C948A0F023411F00C9410
:10194000E80C36E00E94D50FA0EAB0E40E946B11CB
:10195000A6E7B1E00D931C93A6E7B1E00D911C91B1
:10196000003050E0150780E010F009F081E08F931F
:1019700040E050E061E070E0A6E7B1E00D911C911D
:10198000222733270E94FF1080E00CF481E09F9112
:101990008923882311F40C94DC0CA6E7B1E08D9127
:1019A0009C91ACE7B1E08D939C93E3E0F0E0ACE771
:1019B000B1E07BE70E94A2118EE080930C0182E0EF
:1019C00080930D010E9478070E9465010C948A0F94
:1019D000043411F00C94FE0C0E94F00FA8E0B1E06A
:1019E0008C93A8E0B1E08C9184B9E1E0F0E0A8E04C
:1019F000B1E07BE70E94A0110C948A0F083411F02B
:101A00000C943F0D81E080930C0100910C010E308D
:101A100018F011F00C94290D0E94F00FA9E0B1E02C
:101A20008C93A9E0B1E08C9180538C938091090153
:101A3000ACE0B1E0AD90BB24A1E1B1E0AA0DBB1DCB
:101A40008C93ACE0B1E08C918F5F8C9310F40C948C
:101A5000050D0E948D0486E080930D0188E080933F
:101A60000C010E9478078EE080930C0185E0809342
:101A70000D010E9478070E9465010C948A0F0934B9
:101A800011F00C94BD0DF89480E080936201E2E0C7
:101A9000F0E0A2E6B1E07BE70E94A0118AE090E0CE
:101AA000ACE7B1E08D939C93E3E0F0E0ACE7B1E00C
:101AB0007BE70E94A21100E010E020E030E0A8E8FF
:101AC000B1E10D931D932D933C93A8E8B1E10D91E5
:101AD0001D912D913C91ACE8B1E10D931D932D9397
:101AE0003C9389E080930C0100918C114FEF04230B
:101AF000ADE0B1E00C930E9478078AE080930C017E
:101B000098E0ACE8B1E10E94CB1000918C114FEF4E
:101B10000423ADE0B1E00C930E9478078BE0809342
:101B20000C0198E0ACE8B1E10E94CB1000918C115F
:101B30004FEF0423ADE0B1E00C930E9478078CE0F6
:101B400080930C0198E0ACE8B1E10E94CB100091C9
:101B50008C114FEF0423ADE0B1E00C930E947807A5
:101B60008EE080930C0181E080930D010E94780744
:101B70000E94650178940C948A0F0F3411F00C9434
:101B8000F90D0E94F00FA3E6B1E08C9336E00E94BD
:101B9000D50FA0EAB0E40E946B11AEE7B1E00D935F
:101BA0001C930E94400170910101786070930101C3
:101BB00081E090E0A0E8B1E18D939C9381E090E01A
:101BC000AEE7B1E08D939C9380E08093800082E04B
:101BD0008093810080918100887F809381008AE6D4
:101BE0009FEF90938500809384000E941F080C94BF
:101BF0008A0F003511F00C94010E0E9440010C94E4
:101C00008A0F023511F00C94460E009162010130EA
:101C100011F00C94160E0E944001E2E0F0E0A2E602
:101C2000B1E07BE70E94A0110C94440E80E0809309
:101C3000800084E08093810080918100887F809380
:101C4000810085EE98E4909385008093840081E084
:101C500080936201E2E0F0E0A2E6B1E07BE70E945F
:101C6000A0118EE080930C0188E080930D010E940A
:101C700078070E94650180E090E0AAE7B1E08D93CB
:101C80009C9384E0809381000C948A0F033511F0BB
:101C90000C94560E0E94F00FA6E0B1E08C9304B1B4
:101CA00040910601042305B90C948A0F043511F004
:101CB0000C946C0EA1E0B1E08C9185FB16F40C94B1
:101CC000680E709101017062709301010C946A0EAC
:101CD0000E9440010C948A0F013611F00C94740E8E
:101CE0000E94AC070C948A0F023611F00C949B0EE4
:101CF0000E94F00FA6E0B1E08C930091060140E352
:101D0000041BA9E0B1E00C93A9E0B1E0AD90BB24C5
:101D1000A2E6B1E0AA0CBB1CAA0DBB1D8D919C9143
:101D2000A6E7B1E08D939C9332E0A6E7B1E00E9474
:101D300006100C948A0F033611F00C94A60E31E0B5
:101D4000A3E2B0E00E9406100C948A0F043611F052
:101D50000C94070F80918100887F809381008827F1
:101D600085BD70917A00777F70937A0000E010E073
:101D700020E030E0ACE8B1E10D931D932D933C934E
:101D8000A8E8B1E14D915D916D917C91ACE8B1E134
:101D90000D911D912D913C910E94FF100CF402C0F9
:101DA0000C94EB0EACE8B1E10D911D912D913C919D
:101DB000A4E8B1E10D931D932D933C930E94D203AF
:101DC00031E0ADE0B1E00E940610ACE8B1E10E9464
:101DD000C10F0C94C00E8EE080930C0183E08093C1
:101DE0000D010E9478070E94650170917A00786069
:101DF00070937A0084E085BD00916201013011F09A
:101E00000C94050F84E0809381000C948A0F0536B2
:101E100011F00C94500FE6E7F3E20E94EC100E94E0
:101E2000FF0F0E940B10E4E8F3E20E94EC100E9406
:101E3000FF0F0E940B10E8E8F9E20E94EC100E94EC
:101E4000FF0F82EA0E940E10EEE8F9E20E94EC1009
:101E50000E94FF0FA0EAB0E4E4E9F9E20E94EC106E
:101E60000E9482100E94F70F0E940B10EAE9F9E22B
:101E70000E94EC100E94FF0F0E940B10E0EBF9E2B1
:101E80000E94EC100E94FF0F0E940B10E4EEF9E29A
:101E90000E94EC100E94FF0F0E940B100C948A0FFE
:101EA000063611F00C94580F0E943D080C948A0FCE
:101EB000083611F00C94620F0E9425060E94EA0673
:101EC0000C948A0F0D3611F00C946A0F0E94E007F3
:101ED0000C948A0F043711F00C94860FA1E0B1E046
:101EE0008C9183FB16F00C94840F80E090E0AAE7BD
:101EF000B1E08D939C938AE69FEF90938500809349
:101F0000840084E0809381000C948A0F8EE4A2E028
:101F1000B1E08C938EE4482F00910201041711F078
:101F20000C94950F85E10E940E1081E4482F0091DA
:101F30000201041711F00C94A00F86E00E940E100D
:101F40005E9A8F918BBF8F918FBFFF91EF91DF9141
:101F5000CF91BF91AF919F918F917F916F915F9141
:101F60004F913F912F911F910F91BF90AF907F9014
:101F70005F904F903F902F901F900F901895F8947E
:101F8000FFCF0D911D912D913C910F5F1F4F2F4F52
:101F90003F4F3C932E931E930E930895ED91FC9129
:101FA000EF5FFF4FFC93EE930895A0EAB0E418D0E2
:101FB0008D3039F03323D9F38D933A9563FE2ED0CB
:101FC000F6CF63FC04C08DE029D08AE027D08827B3
:101FD0008C93089588270090C00007FE089500C0E4
:101FE0008091C00087FFFCCF8091C6000895A0EAD1
:101FF000B0E48D91882311F011D0FBCF08950E9499
:10200000DC10802D11F00AD0FACF08958D9106D002
:102010003A95E1F708958DE001D08AE00090C00084
:1020200005FEFCCF8093C60008953197F1F708951F
:10203000689462F80895E89462F80895EF93FF9326
:10204000EE27E82BE92B31F0E8EBFBE03197F1F7D5
:102050000197D1F7FF91EF91089539983898419AF7
:10206000409A089568944093BC008F939F9388276B
:102070009927019629F04091BC0047FFFACFE894D8
:102080009F918F9162F8089544EAECCF44E9409320
:10209000BC004091BC0047FDFCCF08951093BB00ED
:1020A00044E8E0DF8F939F9388279927019671F08A
:1020B0004091B900487F483FC9F3E894483139F06E
:1020C000483229F0403419F0403509F068949F9166
:1020D0008F9162F8089544E801C044ECC3DF109189
:1020E000BB004091B900487F483FD9F308955A9208
:1020F0004A92480E591E08955A924A92480E8827CD
:10210000581E08950E94DC100D920020D9F7089502
:10211000903039F08C91880F08F481609A95D9F746
:102120008C930895903039F08C91869508F48068EE
:102130009A95D9F78C930895903081F00D911D9167
:102140002D913C91369527951795079508F43068A1
:102150009A95C1F73C932E931E930E930895903059
:1021600041F00D911C91000F111F9A95E1F71C93FE
:102170000E930895903071F00D911D912D913C9129
:10218000000F111F221F331F9A95D1F73C932E93F6
:102190001E930E930895903071F00D911D912D9125
:1021A0003C9136952795179507959A95D1F73C93CD
:1021B0002E931E930E930895D895319628F48F93FD
:1021C0008BB783958BBF8F91002008950F9301E00B
:1021D0000BBF0F91889408950F930027F9CF0F93A9
:1021E00002E0F6CF0F9303E0F3CF040F151F261F75
:1021F000371F0895041B150B260B370B0895041782
:102200001507260737070895000F111F221F331FD8
:10221000089500951095209530950F5F1F4F2F4F13
:102220003F4F0895019110810EC0019111912191AC
:1022300030810BC00191108117FF05C03FEF2FEFD8
:1022400004C0008111272227332737FF03C0E1DFB5
:102250008DE28D93CF93DF93CF92DF92EF92AA24FA
:10226000BB24CC24DD24EE2440E2CAE0DD2755E087
:1022700093E38881890F87FD9F7083FD907F891B81
:1022800089935A95A9F7C0DFAA1CBB1CCC1CDD1C86
:10229000EE1C4A9551F7E894EFE0FF2782910ED0AB
:1022A000EB30E0F71EF068948A2D0CD088278D93D0
:1022B000EF90DF90CF90DF91CF910895982F829586
:1022C00001D0892F8F70805D26F0803309F4089546
:1022D00068948D93089500271127222733271DD056
:1022E0008A3328F4803318F005D015D0F9CF0EF4D6
:1022F00090CF089580538F93402F512F622F732FCB
:1023000083DF82DF72DF80DF8F919927080F191F2B
:10231000291F391F08958D910895E894FCDF8032BC
:10232000E9F38B32D9F38930C9F38D3211F4689413
:10233000F2CF0895F999FECFE1BDF2BD319608952F
:1023400091E001C092E07B3751F47FB7F894F2DF5F
:102350008D9180BDFA9AF99A9A95C9F77FBF772730
:10236000089591E001C092E0E5DFF89A80B58D9381
:102370009A95D1F7089550726F796563746F3A201A
:102380004144000045717569706F3A202020415129
:102390004330310052656C6F6A206E6F20696E6940
:1023A0006369616C697A61646F00323000003A00E1
:1023B00020002F004D656D6F726961207574696C26
:1023C000697A616461202D2D3E20000020627974BD
:1023D000657300004D656D6F72696120726573747D
:1023E000616E7465202D2D2D3E2000004269656EC2
:1023F00076656E69646F2061206C61206179756417
:102400006120646520636F6D616E646F7300455376
:10241000432030202D2D3E2054657374656F206459
:102420006520737461636B732079206672616D65DA
:1024300000004553432031202D2D3E20477261621C
:10244000612079206C656520756E206461746F2051
:10245000656E206C612045320000455343203920D1
:102460003C636861723E202D2D3E2045636F2064E1
:102470006520756E20636172616374657220637597
:10248000616C71756965726100004553432041209C
:102490003C6E756D3E202D2D3E2052656369626550
:1024A0002063616E74696461642064652063616E99
:1024B000616C657320616E616CF36769636F733A79
:1024C000203C6E756D3E206465203120612038000F
:1024D0004553432042203C6E756D3E2030442030F1
:1024E00041202D2D3E205265636962652074696527
:1024F0006D706F20646520726567697374726F20F8
:10250000656E20736567756E646F733A203C6E75F7
:102510006D3E20646520312061203635353335002D
:102520004553432053203C627974653E202D2D3E57
:102530002052656369626520656C20736574656F00
:102540002064656C2073656E7469646F2064652017
:102550006C6F732063616E616C6573206469676979
:1025600074616C65732028313D53414C2C20303D03
:10257000454E5429000045534320482068686D6D3E
:10258000737344444D4D41414141202D2D3E205314
:102590006574656F20646520686F72610000455343
:1025A000432049202D2D3E20426F727261646F20BE
:1025B0006465206D656D6F72696120792054726564
:1025C00067203D2035736567207C7C205469656DEC
:1025D000706F20646520726567697374726F206420
:1025E000656661756C743A203630736567004553D3
:1025F00043204F203C747269676765723E203C69D6
:102600006E74657276616C6F3E202D2D3E204D6F8D
:10261000646F2042757273740000202020202020F7
:10262000547269676765723A202752273D496E7474
:10263000302F726973696E672065646765207C7CE2
:10264000202746273D496E74302F66616C6C696E99
:1026500067207C7C202750273D50430020202020ED
:102660002020496E74657276616C6F3A2078313043
:102670003075732020304420304100004553432002
:1026800050202D2D3E205061726164612064656C84
:102690002065717569706F202D2D3E204E6F20686A
:1026A000616365206E6164612C20736F6C6F2065BF
:1026B00073637563686172206C61205253323332E8
:1026C00000004573632052202D2D3E204861626931
:1026D0006C6974612F446573686162696C697461C7
:1026E00020726567697374726F00455343205320ED
:1026F0003C627974653E202D2D3E205365746561E2
:10270000206C61732073616C69646173206465205F
:102710006163756572646F2061206C6F20717565EF
:102720002072656369626520706F72205253323384
:1027300032004553432054202D2D3E2048616269CC
:102740006C6974612F446573686162696C69746156
:10275000207472616E736D697369F36E2064652015
:102760006461746F7320636F6E74696E756F0000BF
:102770004553432061202D2D3E205472616E736DB0
:10278000697465206461746F7320646520746F647C
:102790006F73206C6F732063616E616C6573206171
:1027A0006E616CF36769636F732073746574656140
:1027B000646F73004573632062203C627974653EE8
:1027C000202D2D3E205472616E736D6974652065F5
:1027D0006C2043616E616C20416E616CF3676963CC
:1027E0006F20536F6C6963697461646F207C7C2017
:1027F0003C2042797465203E2044652031204120F0
:1028000038200000455343206320792064657675A5
:10281000656C7665203C627974653E202D2D3E20E6
:102820005472616E736D6974652065737461646F51
:1028300073206465206C6F7320382063616E616C57
:102840006573206469676974616C65730000455342
:10285000432064202D2D3E204465736361726761BF
:10286000206465206461746F732062696E617269AF
:102870006100455343206520792064657675656C59
:102880007665206C6F73206461746F732064656C6F
:102890002065717569706F202D2D3E205472616E18
:1028A000736D697465206461746F732064656C2056
:1028B00065717569706F00004553432066202D2DAA
:1028C0003E20566572206C697374612064652063D4
:1028D0006F6D616E646F73004553432068202D2D2A
:1028E0003E205665722072656C6F6A004553432026
:1028F0006D202D2D3E20566572206D656D6F7269BD
:1029000061207574696C697A6164612079207265EF
:102910007374616E746500004553432074202D2D3F
:102920003E2054726967676572207061726120424F
:10293000757273740000496E677265736520656C0B
:10294000206461746F206E756D657269636F3A20E3
:102950000000496E6772657365206C61206469725E
:10296000656363696F6E3A2000004461746F20658F
:1029700073637269746F3A2000004461746F206C55
:102980006569646F3A2000005665727369006E3A9B
:1029900020200000322E342E320046656368613AF2
:1029A0002020202032312F30362F323031340000B9
:1029B0004175746F7265733A20204C69632E204C08
:1029C0006973616E64726F20526176696F6C612009
:1029D0002F20496E672E204775737461766F2052E1
:1029E00065616C005573756172696F3A2020554EB0
:0429F0004753000049
:00000001FF
