:100000000C9446000C94A80C18950000189500005C
:10001000189500001895000018950000189500002C
:10002000189500001895000018950000189500001C
:100030001895000018950000189500000C94250BE9
:1000400018950000189500000C94630A189500009C
:100050000C94F80C189500001895000018950000F5
:100060000C94F70B189500001895000018950000E7
:1000700018950000189500001895000018950000CC
:1000800018950000189500000C94B60B8FEF8DBFEB
:10009000C0EDE8EB4E2E80E48EBFD0E4F0E45F2E9E
:1000A000A89584B7082E877F84BF88E1992780931D
:1000B000600090936000EEEFFFE3A0E0B1E08827DE
:1000C0008D933197E9F780E18093C40080E08093BD
:1000D000C50088E18093C1006624E0E0FF2700812D
:1000E000A5E0B1E00C93A5E0B1E00C9103FB16F0A4
:1000F0000C948100709101017068709301010C945F
:100100008600709101017F77709301010E9448126F
:1001100070E07093B90078E47093B80087E880933A
:100120007A0080E080937C0070917A007F777093F2
:100130007A0082E085BD80E084BD882785BD78E3B4
:1001400076BD80E08093800084E080938100809180
:100150008100887F809381008CED9BE090938500E7
:100160008093840080E08093900081E080939100F0
:1001700080919100887F8093910080E090E090933F
:100180009500809394003A9A3B9A3C983D98569AF1
:10019000579AF8947091010172607093010180E0A8
:1001A00080931001439AA1E0B1E08C9187FB16F097
:1001B0000C94EA00E0EBF7E20E942A130E94C311BC
:1001C0000E94CF118EE080930D018AE080930E0192
:1001D0000E94780842985E9A5F9881E080930A01B5
:1001E00000910A01083018F011F00C94070180E426
:1001F00089B980E889B98DE790E00E943912AAE0B8
:10020000B1E08C918F5F8C9310F40C94F0000E94FD
:10021000ED0170916E00716070936E0070916F00CF
:10022000716070936F0070917100716070937100D4
:100230008091C100806C8093C10070917A007860D9
:1002400070937A000E94390270917A0070687093FE
:100250007A0070917A00706470937A007091010155
:100260007D7F709301017894A2E0B1E08C9187FBCF
:1002700016F00C94A001709102017F777093020137
:100280003499FECF81E080939100009165010133A4
:1002900011F00C945201349BFECF80919100887F25
:1002A0008093910000916501023311F00C945F017D
:1002B0003599FECF80919100887F80939100A6E8C8
:1002C000B1E10D911C912227332740E050E061E01D
:1002D00070E00E949D12A4E9B1E10D931D932D934E
:1002E0003D93A4E9B1E10D911D912D913C91A4E9BB
:1002F000B0E04D915C91662777270E943313A4E903
:10030000B1E10D931D932D933D93A4E9B1E10D91BE
:100310001D912D913C914CE050E060E070E00E9416
:10032000DC11A4E9B1E14D935D936D937D93A0EA57
:10033000B0E4E4E9F1E10E9453130E94BB115F9A1B
:10034000A1E0B1E08C9180FB16F00C94AE017091AD
:1003500001017E7F709301010E94AC08A1E0B1E031
:100360008C9182FB16F00C94EB01709101017B7F64
:100370007093010181E090E0AAE7B1E08D939C9336
:10038000A4E8B1E14D915C91AAE7B1E00D911C9117
:100390000417150718F011F00C94EA01AAE7B1E070
:1003A000AD90BD90A0E8B1E0AA0CBB1CAA0DBB1D8E
:1003B0008D919C91A8E7B1E08D939C9332E0A8E7E2
:1003C000B1E00E94CA11AAE7B1E00E94921110F4B4
:1003D0000C94C0015F9A0C943401882785BD8091EC
:1003E0009100887F80939100709101017F7D7093CF
:1003F0000101709101017E7F7093010170910101F3
:100400007F7B7093010170910101777F70930101EF
:10041000709101017B7F70930101709102017F77E0
:1004200070930201A1E0B1E08C9181FB16F40C9471
:100430002A0280918100887F8093810080E08093F0
:1004400063018FE080930D018091630180930E0121
:100450000E94780880E090E0ACE7B1E08D939C9337
:1004600080E090E0A6E8B1E18D939C935E9A5F9A5C
:1004700008958FE080930D010E948C0880910E01F9
:100480008093630100916301013011F00C945102DB
:100490000E9452020E9470020E948C0384E08093AA
:1004A0008100089581E00E94971288E080930D01F9
:1004B0000E948C0800910E01063011F40C946A021F
:1004C0000E94ED01E4EBF7E20E942A130E94C3119F
:1004D0000E94CF1181E0481A80E0580A22960895C0
:1004E00082E180930D010E948C0880910E0180931F
:1004F0000901A9E0B1E08C9184B98DE080930D01F0
:100500000E948C0880910E018093080100910801DF
:10051000013081E008F080E08F93009108010830FD
:1005200080E010F009F081E09F91892B882311F47D
:100530000C94A60288E0809308018DE080930D0161
:100540008091080180930E010E94780880E08093DA
:100550000401709101017F7D70930101709101018F
:100560007E7F70930101709101017F7B7093010187
:100570008FE080930D010E948C0880910E01809382
:10058000630180E180930D010E948C08AEE0B1E030
:100590008C91AEE7B1E08D9388278C9398E0AEE71D
:1005A000B1E00E94ED1281E180930D010E948C0860
:1005B000AEE7B1E00D911C91AEE0B1E04D91552751
:1005C000042B152BAEE7B1E00D931C9300E010E077
:1005D00020E030E0ACE8B1E10D931D932D933C9306
:1005E0008CE080930D010E948C08ACE8B1E10D9184
:1005F0001D912D913C91AEE0B1E04C9155276627BD
:1006000077270E943313ACE8B1E10D931D932D932E
:100610003D9398E0ACE8B1E10E94F8128BE0809342
:100620000D010E948C08ACE8B1E10D911D912D9156
:100630003C91AEE0B1E04C915527662777270E94A8
:100640003313ACE8B1E10D931D932D933D9398E0E6
:10065000ACE8B1E10E94F8128AE080930D010E949B
:100660008C08ACE8B1E10D911D912D913C91AEE06B
:10067000B1E04C915527662777270E943313ACE8E9
:10068000B1E10D931D932D933D9398E0ACE8B1E15A
:100690000E94F81289E080930D010E948C08ACE85A
:1006A000B1E10D911D912D913C91AEE0B1E04C91E5
:1006B0005527662777270E943313ACE8B1E10D93E5
:1006C0001D932D933D934FEF5FE760E070E0ACE842
:1006D000B1E10D911D912D913C910E943D130CF4BF
:1006E00002C00C947A03709101017F7E7093010126
:1006F0000C948B037091010170617093010180E093
:10070000809363018FE080930D018091630180935A
:100710000E010E94780808958FEF80930E010E94C9
:1007200004048FEF80930E010E9404040E942507A9
:1007300081E080930F0100910F010A3018F011F051
:100740000C94B703AFE0B1E0AD90BB24A2E1B1E0FF
:10075000AA0DBB1D8C9180930E010E940404AFE092
:10076000B1E08C918F5F8C9310F40C949B0382E327
:1007700080930E010E94040480E380930E010E9486
:10078000040480911D0180930E010E940404809155
:100790001E0180930E010E940404AEE7B1E08C912B
:1007A000AEE0B1E08C930E940404AEE7B1E0119694
:1007B0008C91AEE0B1E08C930E940404809108011A
:1007C00080930E010E9404048091090180930E0120
:1007D0000E9404048EE080930D010E948C080E9408
:1007E00004048FEF80930E010E9404048FEF809326
:1007F0000E010E9404048EE080930D0180E080933E
:100800000E010E947808089570917A007F777093A6
:100810007A00A1E0B1E08C9184FB16F40C948E0474
:10082000ACE8B1E10D911D912D913C91A8E8B1E1A9
:100830000D931D932D933C930E949904ACE8B1E174
:100840000E948511ACE8B1E10D911D912D913C9173
:10085000A0E9B1E10D931D932D933C934FEF5FE71A
:1008600060E070E0ACE8B1E10D911D912D913C91FB
:100870000E943D130CF002C00C944F0480E0809362
:1008800063018FE080930D018091630180930E01DD
:100890000E9478087091010170617093010189E0F4
:1008A00080930D01009190114FEF0423AEE0B1E071
:1008B0000C930E9478088AE080930D0198E0A0E9EB
:1008C000B1E10E940913009190114FEF0423AEE0B3
:1008D000B1E00C930E9478088BE080930D0198E0C2
:1008E000A0E9B1E10E940913009190114FEF042398
:1008F000AEE0B1E00C930E9478088CE080930D018B
:1009000098E0A0E9B1E10E940913009190114FEF26
:100910000423AEE0B1E00C930E94780870917A0055
:10092000706870937A0070917A00706470937A00A6
:10093000089580EA80930A0100910A014091100114
:10094000042BAAE0B1E00C93009188114FEF04232F
:10095000A2E1B1E00C9398E0A8E8B1E10E94DA12BC
:10096000009188114FEF0423A1E1B1E00C9343986B
:100970000E945F1210910A010E94691210911101E8
:100980000E946912109112010E94691210910E01C9
:100990000E9469120E9461128AE090E00E9439125E
:1009A000439A089580EA80930A0100910A014091D8
:1009B0001001042BAAE0B1E00C93009188114FEFD5
:1009C0000423A2E1B1E00C9398E0A8E8B1E10E9411
:1009D000DA12009188114FEF0423A1E1B1E00C93EA
:1009E0000E945F1210910A010E9469121091110178
:1009F0000E946912109112010E9469120E945F12F6
:100A0000AAE0B1E08C918F5F8C9310910A010E9453
:100A100069120E948612AEE0B1E01C930E9461123E
:100A2000089580EA80930A0100910A014091100123
:100A3000042BAAE0B1E00C938FEF80930E01439852
:100A400000E010E020E030E0A8E8B1E10D931D9354
:100A50002D933C93A8E8B1E10D911D912D913C910E
:100A6000A0E9B1E10D931D932D933C93009190115A
:100A70004FEF0423A2E1B1E00C9398E0A0E9B1E1CB
:100A80000E94DA12009190114FEF0423A1E1B1E02E
:100A90000C930E945F1210910A010E94691210913A
:100AA00011010E946912109112010E94691280E0E6
:100AB00080930D0110910E010E946912ADE0B1E02A
:100AC0008C918F5F8C93A8E8B1E10E948511009111
:100AD0000D01003411F00C945A050E9461128AE055
:100AE00090E00E94391280E489B94FEF5FE760E03F
:100AF00070E0A8E8B1E10D911D912D913C910E940B
:100B00003D131CF011F00C9487050C9489050C948E
:100B10008B050C942A05439A0895809113018093C4
:100B20000D01809117018093130180910D01809335
:100B300017018091140180930D0180911801809319
:100B4000140180910D018093180180E080930D01C4
:100B5000ADE0B1E08C918F5F8C9380910D0180931B
:100B60000A01AAE0B1E08C918F5F8C93ADE0B1E017
:100B7000AD90BB24A2E1B1E0AA0DBB1D0C914AE0EF
:100B8000049FAEE0B1E00C9200910E01AAE0B1E04A
:100B9000AD90BB24A2E1B1E0AA0DBB1D4C91040FA6
:100BA000AEE0B1E00C9300910D01043010F00C9414
:100BB000E60500910E010B3318F011F00C94E205DC
:100BC0000C94E4050C9421070C944E06053011F0AA
:100BD0000C94F70500910E01073118F011F00C94F8
:100BE000F3050C94F5050C9421070C944E06073080
:100BF00011F00C94100600910E010F3118F011F055
:100C00000C9404060C9406060C94210700910E0126
:100C1000003011F00C940E060C9421070C944E0633
:100C2000093011F00C94290600910E010C3018F0D7
:100C300011F00C941D060C941F060C9421070091D2
:100C40000E01003011F00C9427060C9421070C942F
:100C50004E060B3011F00C94370600910E01043152
:100C600011F40C9435060C9421070C944E060D30AB
:100C700011F00C944E0600910E01033618F011F09D
:100C80000C9444060C9446060C94210700910E0126
:100C9000003010F00C944E060C942107ADE0B1E04A
:100CA0008C918F5F8C9300910D010E3011F00C949C
:100CB000A80580E080930D01ADE0B1E08C918F5FDD
:100CC0008C93ADE0B1E0AD90BB24A2E1B1E0AA0D00
:100CD000BB1D8C9180930A0194E0AAE0B1E00E94D0
:100CE000C612ADE0B1E08C918F5F8C93ADE0B1E0C6
:100CF000AD90BB24A2E1B1E0AA0DBB1D8C91809305
:100D00000E0100910A0140910E01042BADE0B1E00B
:100D1000AD90BB24A2E1B1E0AA0DBB1D0C930091E4
:100D20000D010D3018F011F00C9498060C945C062F
:100D300080E080930D0180ED80930A0180E880932C
:100D40000E010E945F1210910A010E946912109117
:100D50000D010E94691210910E010E9469120E94F9
:100D6000611284E080930C0181E080930D0180ED9D
:100D700080930A01ACE0B1E0AD90BB24A2E1B1E008
:100D8000AA0DBB1D8C9180930E010E945F121091E1
:100D90000A010E94691210910D010E9469121091BE
:100DA0000E010E9469120E946112ACE0B1E08C91C8
:100DB0008F5F8C93ACE0B1E08C918F5F8C93ADE052
:100DC000B1E08C918F5F8C9300910D01033011F095
:100DD0000C94EF06ADE0B1E08C918F5F8C930091A5
:100DE0000D01063011F00C94FF06ACE0B1E08C91DF
:100DF0008F5F8C93ACE0B1E08C918F5F8C9300910E
:100E00000D01073011F00C94BA0680E080930D01BB
:100E10008091140180930E010E945F1210910A01CB
:100E20000E94691210910D010E94691210910E0129
:100E30000E9469120E94611280E0809303010C9469
:100E4000240781E080930301089581E080930C01E1
:100E500080E080930D0180ED80930A010E945F1273
:100E600010910A010E94691210910D010E946912ED
:100E70000E945F12AAE0B1E08C918F5F8C93109179
:100E80000A010E9469120E948812AEE0B1E01C9330
:100E900000910D01033011F40C94890700910E01AB
:100EA0004FE00423AAE0B1E00C93AAE0B1E08C91FA
:100EB000805D8C9394E0AEE0B1E00E94D012AEE091
:100EC000B1E08C918F708C93AEE0B1E08C91805D3D
:100ED0008C9380910E01ACE0B1E0AD90BB24A2E117
:100EE000B1E0AA0DBB1D8C93ACE0B1E08C918F5F9B
:100EF0008C9380910A01ACE0B1E0AD90BB24A2E1FB
:100F0000B1E0AA0DBB1D8C93ACE0B1E08C918F5F7A
:100F10008C93ADE0B1E08C918F5F8C9300910D01CB
:100F2000063011F00C9443070E948612AEE0B1E047
:100F30001C9300910E014FE00423AAE0B1E00C9352
:100F4000AAE0B1E08C91805D8C9394E0AEE0B1E0DA
:100F50000E94D012AEE0B1E08C918F708C93AEE025
:100F6000B1E08C91805D8C9380910E01ACE0B1E09A
:100F7000AD90BB24A2E1B1E0AA0DBB1D8C93ACE007
:100F8000B1E08C918F5F8C9380910A01ACE0B1E06D
:100F9000AD90BB24A2E1B1E0AA0DBB1D8C930E94D1
:100FA00061128091130180930D018091170180934C
:100FB000130180910D01809317018091140180939A
:100FC0000D01809118018093140180910D0180938F
:100FD0001801089580E080930D01ADE0B1E08C919F
:100FE0008F5F8C9380910D0180930A01AAE0B1E09C
:100FF0008C918F5F8C9300910D010B3011F00C944C
:101000000708EAECF7E20E942A130E94C311ADE040
:10101000B1E0AD90BB24A2E1B1E0AA0DBB1D8C9163
:10102000A8E9B1E18D9388278C93A8E9B1E10E94EA
:10103000BD11AAE0B1E0AD90BB24A2E1B1E0AA0DE0
:10104000BB1D8C91A8E9B1E18D9388278C93A8E909
:10105000B1E10E94BD1100910D01013011F00C941D
:101060003908EEECF7E20E942A130E94C3110C9497
:101070006708033011F00C944508EEECF7E20E948B
:101080002A130E94C3110C946708053011F00C94C8
:101090005108E0EDF7E20E942A130E94C3110C945C
:1010A0006708073011F00C945D08E2EDF7E20E944A
:1010B0002A130E94C3110C946708093011F00C9494
:1010C0006708E2EDF7E20E942A130E94C311ADE027
:1010D000B1E08C918F5F8C9300910D010B3018F073
:1010E00011F00C9475080C94ED070E94CF1108952F
:1010F00080ED80930A010E945F1210910A010E9404
:10110000691210910D010E94691210910E010E9446
:1011100069120E946112089580ED80930A010E9475
:101120005F1210910A010E94691210910D010E9434
:1011300069120E945F12AAE0B1E08C918F5F8C93DC
:1011400010910A010E9469120E948612AEE0B1E07D
:101150001C930E946112089581E00E94971281E021
:10116000A881B9818C9340910801A881B9810C9123
:10117000041718F011F00C94DA08A881B981AD9029
:10118000BB24A4E6B1E0AA0CBB1CAA0DBB1D8D912B
:101190009C91A8E7B1E08D939C9332E0A8E7B1E081
:1011A0000E94CA11A881B9818C918F5F8C9310F431
:1011B0000C94B30881E0481A80E0580A22960895FA
:1011C000E4EDF7E20E942A130E94C311A0EAB0E402
:1011D000ECE8F1E10E9453130E94BB11ECEEF7E240
:1011E0000E942A130E94C3110E94CF110FEF1FE724
:1011F00020E030E0ACE8B1E14D915D916D917C91E2
:101200000E943813A8E8B1E10D931D932D933D93EF
:10121000E4EFF7E20E942A130E94C311A0EAB0E4AF
:10122000E8E8F1E10E9453130E94BB11ECEEF7E2F3
:101230000E942A130E94C3110E94CF110895E898BA
:1012400086E4482F00916401041711F00C942F09D3
:10125000809169008C7F826080936900E89A82E5C2
:10126000482F00916401041711F00C943D098091FE
:101270006900836080936900E89A08950E94CF1105
:10128000ECE0F8E20E942A130E94C3110E94CF11E1
:101290000E94CF11EEE2F8E20E942A130E94C311CD
:1012A0000E94CF110E94CF11E2E5F8E20E942A13BA
:1012B0000E94C3110E94CF110E94CF11EAE7F8E209
:1012C0000E942A130E94C3110E94CF110E94CF11C5
:1012D000EAEAF8E20E942A130E94C3110E94CF1189
:1012E0000E94CF11EEEFF8E20E942A130E94C31170
:1012F0000E94CF110E94CF11E2E5F9E20E942A1369
:101300000E94C3110E94CF11E6EEF9E20E942A1357
:101310000E94C3110E94CF11E6E5FAE20E942A134F
:101320000E94C3110E94CF110E94CF11E4E9FAE29A
:101330000E942A130E94C3110E94CF110E94CF1154
:10134000EAEEFAE20E942A130E94C3110E94CF1112
:101350000E94CF11E2E1FBE20E942A130E94C31116
:101360000E94CF110E94CF11E2E6FBE20E942A13F5
:101370000E94C3110E94CF11E4E9FBE20E942A13EC
:101380000E94C3110E94CF11E6EDFBE20E942A13D6
:101390000E94C3110E94CF110E94CF11ECEFFBE21B
:1013A0000E942A130E94C3110E94CF110E94CF11E4
:1013B000ECE3FCE20E942A130E94C3110E94CF11A9
:1013C0000E94CF11E8E5FCE20E942A130E94C3119B
:1013D0000E94CF110E94CF11E0EAFCE20E942A1382
:1013E0000E94C3110E94CF11E6EDFBE20E942A1376
:1013F0000E94C3110E94CF110E94CF11EAEEFCE2BD
:101400000E942A130E94C3110E94CF110E94CF1183
:10141000E6E0FDE20E942A130E94C3110E94CF1150
:101420000E94CF11EAE4FDE20E942A130E94C31138
:101430000E94CF110E94CF11EAE9FDE20E942A1317
:101440000E94C3110E94CF110E94CF11E4EEFDE271
:101450000E942A130E94C3110E94CF110E94CF1133
:10146000E8E0FEE20E942A130E94C3110E94CF11FD
:101470000E94CF11EEE4FEE20E942A130E94C311E3
:101480000E94CF110E94CF11EEE6FEE20E942A13C5
:101490000E94C3110E94CF110E94CF11E2E8FEE228
:1014A0000E942A130E94C3110E94CF110E94CF11E3
:1014B000EEEAFEE20E942A130E94C3110E94CF119D
:1014C0000E94CF1108950F921F922F923F924F9238
:1014D0005F927F92AF92BF920F931F932F933F9390
:1014E0004F935F936F937F938F939F93AF93BF932C
:1014F000CF93DF93EF93FF938FB78F938BB78F9338
:1015000088278BBF78E376BD80E889B9ACE7B1E086
:101510000E949211A0E8B1E04D915C91ACE7B1E07E
:101520000D911C910417150711F00C94070B80E026
:1015300090E0ACE7B1E08D939C93A1E0B1E08C9199
:1015400083FB16F00C94FB0AA2E8B1E10D911C910B
:10155000083F57E0150710F00C94E00A81E08093F3
:101560000B014091080100910B01041718F011F0D4
:101570000C94DE0AABE0B1E0AD90BB24A4E6B1E090
:10158000AA0CBB1CAA0DBB1D8D919C91A2E8B1E1D8
:10159000AD90BD90A0E8B1E0AA0CBB1CAA0DBB1D8C
:1015A0008D939C93A2E8B1E10E949211ABE0B1E06F
:1015B0008C918F5F8C9310F40C94B10A0C94F90AFF
:1015C000882785BDA2E8B1E10D911C9141E050E072
:1015D000041B150BA4E8B1E10D931C9381E090E08E
:1015E000A2E8B1E18D939C937091010174607093B6
:1015F00001010C94070BA1E0B1E08C9185FB16F082
:101600000C94070B709101017160709301018F912F
:101610008BBF8F918FBFFF91EF91DF91CF91BF91E2
:10162000AF919F918F917F916F915F914F913F917A
:101630002F911F910F91BF90AF907F905F904F902F
:101640003F902F901F900F9018950F921F922F92FE
:101650003F924F925F927F92AF92BF920F931F93F0
:101660002F933F934F935F936F937F938F939F93AA
:10167000AF93BF93CF93DF93EF93FF938FB78F9386
:101680008BB78F9388278BBF8CED9BE09093850061
:101690008093840080E889B9ACE7B1E00E949211A0
:1016A000AEE7B1E04D915C91ACE7B1E00D911C91DA
:1016B0000417150711F00C94980B80E090E0ACE74C
:1016C000B1E08D939C9381E080930B0140910801E0
:1016D00000910B01041718F011F00C94980BABE07B
:1016E000B1E0AD90BB24A4E6B1E0AA0CBB1CAA0DEE
:1016F000BB1D8C91AEE0B1E08C930E940404ABE082
:10170000B1E0AD90BB24A4E6B1E0AA0CBB1CAA0DCD
:10171000BB1D11968C91AEE0B1E08C930E94040445
:10172000ABE0B1E08C918F5F8C9310F40C94660B5E
:101730008F918BBF8F918FBFFF91EF91DF91CF91F1
:10174000BF91AF919F918F917F916F915F914F91D9
:101750003F912F911F910F91BF90AF907F905F901D
:101760004F903F902F901F900F9018950F921F92BF
:101770002F923F924F925F927F92AF92BF920F93C0
:101780001F932F933F934F935F936F937F938F9309
:101790009F93AF93BF93CF93DF93EF93FF938FB755
:1017A0008F938BB78F9388278BBFA6E8B1E10E94F8
:1017B00092118F918BBF8F918FBFFF91EF91DF912E
:1017C000CF91BF91AF919F918F917F916F915F91D9
:1017D0004F913F912F911F910F91BF90AF907F90AC
:1017E0005F904F903F902F901F900F9018950F9201
:1017F0001F922F923F924F925F927F92AF92BF9231
:101800000F931F932F933F934F935F936F937F9308
:101810008F939F93AF93BF93CF93DF93EF93FF93F8
:101820008FB78F938BB78F9388278BBFA6E0B1E0DC
:1018300080917C008C93A6E0B1E08C91887F8C93A2
:101840000091060140910401042BA6E0B1E00C9345
:10185000A6E0B1E08C9180937C00A6E0B1E080919D
:1018600078008C9380917900A4E0B1E0AD90BB2426
:10187000A6E6B1E0AA0CBB1CAA0DBB1D8D93882760
:101880008C93009106010F3F11F00C944A0C8EEFDF
:101890008093060198E0A4E0B1E0AD90BB24A6E6F9
:1018A000B1E0AA0CBB1CAA0DBB1D0E94ED12A4E066
:1018B000B1E0AD90BB24A6E6B1E0AA0CBB1CAA0D1A
:1018C000BB1D0D911C91A6E0B1E04D915527042B55
:1018D000152BA4E0B1E0AD90BB24A6E6B1E0AA0CC4
:1018E000BB1CAA0DBB1D0D931C93A4E0B1E08C9111
:1018F0008F5F8C934091080100910401041710F44C
:101900000C94850C80E08093040170917A007064DF
:1019100070937A008F918BBF8F918FBFFF91EF9162
:10192000DF91CF91BF91AF919F918F917F916F91F7
:101930005F914F913F912F911F910F91BF90AF9069
:101940007F905F904F903F902F901F900F90189531
:101950000F921F922F923F924F925F927F92AF927F
:10196000BF920F931F932F933F934F935F936F9368
:101970007F938F939F93AF93BF93CF93DF93EF9317
:10198000FF938FB78F938BB78F9388278BBFA1E07F
:10199000B1E08C9183FB16F00C94DA0C882785BD9E
:1019A00080E090E0ACE7B1E08D939C9378E376BD66
:1019B00082E085BD8F918BBF8F918FBFFF91EF919B
:1019C000DF91CF91BF91AF919F918F917F916F9157
:1019D0005F914F913F912F911F910F91BF90AF90C9
:1019E0007F905F904F903F902F901F900F90189591
:1019F0000F921F922F923F924F925F927F92AF92DF
:101A0000BF920F931F932F933F934F935F936F93C7
:101A10007F938F939F93AF93BF93CF93DF93EF9376
:101A2000FF938FB78F938BB78F9388278BBF0E94BD
:101A3000AE11A7E0B1E08C9300910701003011F4E2
:101A40000C946511009107010B3111F00C943F0DBE
:101A5000A1E0B1E08C9186FB16F40C94370D7091E7
:101A600001017064709301015E980C943D0D7091BA
:101A700001017F7B709301015E9A0C946511A1E0D6
:101A8000B1E08C9186FB16F00C9465117091010108
:101A90007F7B7093010180E0809303010091070137
:101AA000013311F00C94BE0D0E94CF11ECECFEE25C
:101AB0000E942A130E94C31133E00E949911A0EAE8
:101AC000B0E40E94A913AEE0B1E00C93E8EEFEE2B0
:101AD0000E942A130E94C3113CE00E949911A0EABF
:101AE000B0E40E94A913A0E9B1E10D931D932D93D9
:101AF0003D930E94CF11E0E0FFE20E942A130E9472
:101B0000C311A0EAB0E4EEE0F1E00E945F130E948E
:101B1000BB110E94CF11A0E9B1E10D911D912D9152
:101B20003C91A8E8B1E10D931D932D933C930E9445
:101B3000990480E080930E01A0E9B1E10D911D911F
:101B40002D913C91A8E8B1E10D931D932D933C9309
:101B50000E94D204E0E1FFE20E942A130E94C31116
:101B6000A0EAB0E4EEE0F1E00E945F130E94BB1136
:101B70000E94CF110E94CF110C946411093311F00F
:101B80000C94CE0D0E94B411A7E0B1E08C9331E02B
:101B9000A7E0B1E00E94CA110C946411013411F065
:101BA0000C940A0E0E94B411A7E0B1E08C9300914E
:101BB0000701003380E010F009F081E08F9300917D
:101BC0000701093381E008F080E09F918923882391
:101BD00011F40C94FE0D0091070140E3041BA8E0F2
:101BE000B1E00C938DE080930D018091080180930A
:101BF0000E010E94780880E0809304018EE08093BB
:101C00000D0189E080930E010E9478080E9439023C
:101C10000C946411023411F00C94650E36E00E94AD
:101C20009911A0EAB0E40E94A913A8E7B1E00D93CE
:101C30001C93A8E7B1E00D911C91003050E015070E
:101C400080E010F009F081E08F9340E050E061E027
:101C500070E0A8E7B1E00D911C91222733270E9484
:101C60003D1380E00CF481E09F918923882311F4D7
:101C70000C94590EA8E7B1E08D919C91AEE7B1E0CC
:101C80008D939C9380E180930D01AEE7B1E01196B6
:101C90008C91AEE0B1E08C930E94780881E1809352
:101CA0000D01AEE7B1E08C91AEE0B1E08C930E9403
:101CB00078088EE080930D0182E080930E010E94EF
:101CC00078080E9439020C946411033411F00C94CA
:101CD0008E0E0E94B411A5E6B1E08C9331E0A5E62A
:101CE000B1E00E94CA110E94ED0180E090E0A6E8F8
:101CF000B1E18D939C9380E090E090939500809368
:101D0000940080919100887F809391005F987091FA
:101D100002017068709302010C946411043411F094
:101D20000C94A60E0E94B411A9E0B1E08C93A9E036
:101D3000B1E08C9184B982E180930D018091090119
:101D400080930E010E9478080C946411083411F0FD
:101D50000C94E70E81E080930D0100910D010E308F
:101D600018F011F00C94D10E0E94B411AAE0B1E069
:101D70008C93AAE0B1E08C9180538C9380910A01FE
:101D8000ADE0B1E0AD90BB24A2E1B1E0AA0DBB1D76
:101D90008C93ADE0B1E08C918F5F8C9310F40C9438
:101DA000AD0E0E948D0586E080930E0188E0809341
:101DB0000D010E9478088EE080930D0185E08093EC
:101DC0000E010E9478080E9439020C9464110934B3
:101DD00011F00C94790FF89480E0809363018FE008
:101DE00080930D018091630180930E010E94780819
:101DF0008AE090E0AEE7B1E08D939C9380E1809320
:101E00000D01AEE7B1E011968C91AEE0B1E08C939C
:101E10000E94780881E180930D01AEE7B1E08C91DA
:101E2000AEE0B1E08C930E9478080E94110500E0BA
:101E300010E020E030E0ACE8B1E10D931D932D936C
:101E40003C93ACE8B1E10D911D912D913C91A0E93D
:101E5000B1E10D931D932D933C9389E080930D0187
:101E6000009190114FEF0423AEE0B1E00C930E947B
:101E700078088AE080930D0198E0A0E9B1E10E9422
:101E80000913009190114FEF0423AEE0B1E00C93E1
:101E90000E9478088BE080930D0198E0A0E9B1E101
:101EA0000E940913009190114FEF0423AEE0B1E0BE
:101EB0000C930E9478088CE080930D0198E0A0E9D3
:101EC000B1E10E940913009190114FEF0423AEE09D
:101ED000B1E00C930E9478088EE080930D0181E0C0
:101EE00080930E010E9478080E94390278940C9425
:101EF00064110F3411F00C949E0F0E94B411A4E6EB
:101F0000B1E08C9336E00E949911A0EAB0E40E94FF
:101F1000A913A0E8B1E00D931C930E94ED0170910C
:101F2000010178607093010181E090E0A2E8B1E1E5
:101F30008D939C930E941F090C946411003511F03D
:101F40000C94A60F0E94ED010C946411023511F05F
:101F50000C94D30F0E94ED018CED9BE090938500D3
:101F60008093840081E0809363018FE080930D0172
:101F70008091630180930E010E9478088EE0809327
:101F80000D0188E080930E010E9478080E943902BA
:101F900080E090E0ACE7B1E08D939C9384E0809387
:101FA00081000C946411033511F00C94E30F0E942E
:101FB000B411A7E0B1E08C9304B140910701042370
:101FC00005B90C946411043511F00C94051036E039
:101FD0000E949911A0EAB0E40E94A913A0E8B1E020
:101FE0000D931C930E94ED0180E090E0ACE7B1E01E
:101FF0008D939C9378E376BD70910101706270932C
:10200000010182E085BD0C946411093511F00C9436
:1020100022100E94B411A7E0B1E08C9388E4482F0D
:1020200000910701041711F00C941710429884E4F2
:10203000482F00910701041711F00C942010429AC8
:102040000C9464110A3511F00C943910F89474B79B
:10205000777F74BF88E18093600080E080936000A8
:10206000809160008860809360000C9435100C941F
:102070006411013611F00C9441100E94AC080C94CC
:102080006411023611F00C9468100E94B411A7E09C
:10209000B1E08C930091070140E3041BAAE0B1E09A
:1020A0000C93AAE0B1E0AD90BB24A4E6B1E0AA0C89
:1020B000BB1CAA0DBB1D8D919C91A8E7B1E08D932F
:1020C0009C9332E0A8E7B1E00E94CA110C9464111D
:1020D000033611F00C94731031E0A3E2B0E00E94DB
:1020E000CA110C946411043611F00C94D71080912D
:1020F0008100887F80938100882785BD70917A0058
:102100007F7770937A0000E010E020E030E0A0E9F3
:10211000B1E10D931D932D933C93ACE8B1E14D914A
:102120005D916D917C91A0E9B1E10D911D912D9191
:102130003C910E943D130CF402C00C94B810A0E92D
:10214000B1E10D911D912D913C91A8E8B1E10D9364
:102150001D932D933C930E94D20431E0AEE0B1E098
:102160000E94CA11A0E9B1E10E9485110C948D1062
:102170008EE080930D0183E080930E010E94780829
:102180000E94390270917A00706870937A007091A1
:102190007A00706470937A0000916301013011F04D
:1021A0000C94D51084E0809381000C946411053662
:1021B00011F00C942011EEE1FFE20E942A130E941C
:1021C000C3110E94CF11ECE2FFE20E942A130E9489
:1021D000C3110E94CF11ECE3FFE20E942A130E9478
:1021E000C31182EA0E94D211E2E4FFE20E942A13A4
:1021F0000E94C311A0EAB0E4E8E4FFE20E942A13BF
:102200000E94C0120E94BB110E94CF11E0E5FFE2C4
:102210000E942A130E94C3110E94CF11E6E6FFE23A
:102220000E942A130E94C3110E94CF11EAE9FFE223
:102230000E942A130E94C3110E94CF110C946411B2
:10224000063611F00C9428110E943E090C9464117A
:10225000083611F00C9432110E9425070E94EA07FB
:102260000C9464110D3611F00C943A110E94E008A0
:102270000C946411043711F00C946011A1E0B1E0EA
:102280008C9183FB81E00EF080E08F9380E5482FF6
:1022900000916401041781E009F080E09F91892397
:1022A000882311F40C945E1180E090E0ACE7B1E07B
:1022B0008D939C9378E376BD82E085BD0C94641188
:1022C0008EE4A3E0B1E08C935E9A8F918BBF8F91E7
:1022D0008FBFFF91EF91DF91CF91BF91AF919F9110
:1022E0008F917F916F915F914F913F912F911F91AE
:1022F0000F91BF90AF907F905F904F903F902F9045
:102300001F900F901895F894FFCF0D911D912D916E
:102310003C910F5F1F4F2F4F3F4F3C932E931E93C7
:102320000E930895ED91FC91EF5FFF4FFC93EE93B8
:102330000895A0EAB0E418D08D3039F03323D9F3F2
:102340008D933A9563FE2ED0F6CF63FC04C08DE0EA
:1023500029D08AE027D088278C9308958827009079
:10236000C00007FE089500C08091C00087FFFCCF29
:102370008091C6000895A0EAB0E48D91882311F001
:1023800011D0FBCF08950E941A13802D11F00AD0AE
:10239000FACF08958D9106D03A95E1F708958DE032
:1023A00001D08AE00090C00005FEFCCF8093C600FB
:1023B000089500FC05D0089530D005D001F8F9CF7C
:1023C00037D03FD00895842F952FA62FB72FE894AC
:1023D000452B462B472B11F468940895402F512F1D
:1023E000622F732F0027112722273327F0E2440F93
:1023F000551F661F771F001F111F221F331F081B49
:10240000190B2A0B3B0B416028F4080F191F2A1FD8
:102410003B1F4E7FFA9559F708950024E89477FF03
:1024200002C006D0689400F809D010F8012408957D
:1024300012D04F5F5F4F6F4F7F4F0895E89437FF83
:10244000089500951095209530950F5F1F4F2F4FE1
:102450003F4F689408954095509560957095089504
:102460003197F1F70895689462F80895E89462F856
:102470000895EF93FF93EE27E82BE92B31F0E0EA84
:10248000FFE03197F1F70197D1F7FF91EF910895B0
:1024900039983898419A409A089568944093BC00BE
:1024A0008F939F9388279927019629F04091BC002C
:1024B00047FFFACFE8949F918F9162F8089544EA1C
:1024C000ECCF44E94093BC004091BC0047FDFCCFF9
:1024D00008951093BB0044E8E0DF8F939F93882713
:1024E0009927019671F04091B900487F483FC9F3A0
:1024F000E894483139F0483229F0403419F0403539
:1025000009F068949F918F9162F8089544E801C0A2
:1025100044ECC3DF1091BB004091B900487F483FB5
:10252000D9F308955A924A92480E591E08955A9224
:102530004A92480E8827581E08950F921F922F9294
:10254000C801D901489F80014A9F90014B9F202CD0
:10255000499F100D211D321D5A9F202C589F100D90
:10256000211D321D599F200D311D689F200D311DE9
:10257000699F300D789F300D2F901F900F90089518
:102580000E941A130D920020D9F70895903039F067
:102590008C91880F08F481609A95D9F78C930895EF
:1025A000903039F08C91869508F480689A95D9F727
:1025B0008C930895903081F00D911D912D913C9157
:1025C000369527951795079508F430689A95C1F7C1
:1025D0003C932E931E930E930895903041F00D91ED
:1025E0001C91000F111F9A95E1F71C930E9308950B
:1025F000903071F00D911D912D913C91000F111FA4
:10260000221F331F9A95D1F73C932E931E930E935E
:102610000895903071F00D911D912D913C9136955A
:102620002795179507959A95D1F73C932E931E936E
:102630000E930895D895319628F48F938BB7839590
:102640008BBF8F91002008950F9301E00BBF0F9176
:10265000889408950F930027F9CF0F9302E0F6CFE7
:102660000F9303E0F3CF040F151F261F371F0895A4
:10267000041B150B260B370B0895041715072607A7
:1026800037070895000F111F221F331F089500956B
:102690001095209530950F5F1F4F2F4F3F4F089596
:1026A000019110810EC001911191219130810BC0D7
:1026B0000191108117FF05C03FEF2FEF04C000818B
:1026C00011272227332737FF03C0E1DF8DE28D93E7
:1026D000CF93DF93CF92DF92EF92AA24BB24CC2436
:1026E000DD24EE2440E2CAE0DD2755E093E3888153
:1026F000890F87FD9F7083FD907F891B89935A9571
:10270000A9F7C0DFAA1CBB1CCC1CDD1CEE1C4A9523
:1027100051F7E894EFE0FF2782910ED0EB30E0F71D
:102720001EF068948A2D0CD088278D93EF90DF904F
:10273000CF90DF91CF910895982F829501D0892F66
:102740008F70805D26F0803309F4089568948D932E
:10275000089500271127222733271DD08A3328F414
:10276000803318F005D015D0F9CF0EF490CF08952E
:1027700080538F93402F512F622F732F83DF82DF7F
:1027800072DF80DF8F919927080F191F291F391FCA
:1027900008958D910895E894FCDF8032E9F38B323F
:1027A000D9F38930C9F38D3211F46894F2CF0895CA
:1027B0005744000052656C6F6A206E6F20696E6925
:1027C0006369616C697A61646F00323000003A00BD
:1027D00020002F004D656D6F726961207574696C02
:1027E000697A616461202D2D3E2000002062797499
:1027F000657300004D656D6F726961207265737459
:10280000616E7465202D2D2D3E2000004269656E9D
:1028100076656E69646F2061206C612061797564F2
:102820006120646520636F6D616E646F7300455352
:10283000432030202D2D3E2054657374656F206435
:102840006520737461636B732079206672616D65B6
:1028500000004553432031202D2D3E2047726162F8
:10286000612079206C656520756E206461746F202D
:10287000656E206C612045320000455343203920AD
:102880003C636861723E202D2D3E2045636F2064BD
:102890006520756E20636172616374657220637573
:1028A000616C717569657261000045534320412078
:1028B0003C43616E745F63616E616C3E202D2D3E02
:1028C000205265636962652063616E746964616446
:1028D0002064652063616E616C657320616E616C5C
:1028E000F36769636F733A203C43616E745F6361A1
:1028F0006E616C3E206465203120612038004553B4
:10290000432042203C545F7265673E2030442030B3
:1029100041202D2D3E2052656369626520746965F2
:102920006D706F20646520726567697374726F20C3
:10293000656E20736567756E646F733A203C545FF3
:102940007265673E2064652031206120363535335D
:1029500035004553432043203C627974653E202D69
:102960002D3E204D696465207469656D706F20652A
:102970006E74726520646F73207365F1616C6573AA
:1029800020656E20756E206D69736D6F2070696EA5
:10299000202850696E432E342C2066616C6C696E61
:1029A00067207920726973696E672065646765299D
:1029B000206F20656E74726520646F732070696E7D
:1029C0006573202850696E432E342066616C6C69F3
:1029D0006E672020792050696E432E352066616C29
:1029E0006C696E67290020202020202020202020D4
:1029F000202020202020203C627974653E202D2D4F
:102A00003E20203C307833313E207061726120538B
:102A10007461727420792053746F7020656E205039
:102A2000696E432E34207C7C203C307833323E204B
:102A30007061726120537461727420656E205069F8
:102A40006E432E3420792053746F7020656E2050B1
:102A5000696E432E350020202020202020202020B9
:102A60002020202020202044657675656C76652026
:102A7000656C206C6170736F206465207469656D8E
:102A8000706F20656E207573656720284153434938
:102A9000492900004553432044203C627974653E37
:102AA000202D2D3E2052656369626520656C207380
:102AB0006574656F2064656C2073656E7469646FFE
:102AC000206465206C6F732063616E616C65732098
:102AD0006469676974616C65732028313D53414CAA
:102AE0002C20303D454E54290000455343204820BA
:102AF00068686D6D737344444D4D41414141202DD3
:102B00002D3E20536574656F20646520686F726187
:102B100000004553432049202D2D3E20426F727204
:102B200061646F206465206D656D6F7269612079E5
:102B30002054726567203D2035736567207C7C20BA
:102B40005469656D706F2064652072656769737480
:102B5000726F2064656661756C743A2036307365F7
:102B60006700455343204F203C7472696767657264
:102B70003E203C696E74657276616C6F3E20304415
:102B8000203041202D2D3E204D6F646F2042757204
:102B9000737400002020202020205472696767652C
:102BA000723A202752273D496E74302F726973693B
:102BB0006E672065646765207C7C202746273D4939
:102BC0006E74302F66616C6C696E67207C7C202788
:102BD00050273D504300202020202020496E74655E
:102BE0007276616C6F3A202831206120363535339A
:102BF000352920782031303075730000455343204B
:102C000050202D2D3E20446573686162696C6974A3
:102C10006120746F646F73206C6F73206D6F646FCD
:102C200073202D2D3E20536F6C6F20657363756389
:102C30006861206C61205253323332004573632047
:102C400052202D2D3E20486162696C6974612072AA
:102C50006567697374726F004553432053203C626B
:102C60007974653E202D2D3E205365746561206C7E
:102C700061732073616C69646173206465206163B2
:102C8000756572646F2061206C6F207175652072AC
:102C9000656369626520706F72205253323332006F
:102CA0004553432054203C496E74657276616C6FC5
:102CB0003E202D2D3E20486162696C69746120744C
:102CC00072616E736D697369F36E2064652064616F
:102CD000746F7320636F6E74696E756F20636F6EAF
:102CE000207265746172646F0000455343205A205E
:102CF0002D2D3E2052657365742064656C206571CE
:102D00007569706F00004553432061202D2D3E20D2
:102D10005472616E736D697465206461746F7320A1
:102D2000646520746F646F73206C6F732063616ED1
:102D3000616C657320616E616CF36769636F73200A
:102D4000737465746561646F7300457363206220FA
:102D50003C43616E616C3E202D2D3E205472616EAD
:102D6000736D69746520656C2043616E616C2041F0
:102D70006E616CF36769636F20536F6C696369748C
:102D800061646F207C7C203C43616E616C3E20441A
:102D90006520312061203820000045534320632006
:102DA000792064657675656C7665203C627974651A
:102DB0003E202D2D3E205472616E736D6974652026
:102DC00065737461646F73206465206C6F73203861
:102DD0002063616E616C6573206469676974616CFE
:102DE000657300004553432064202D2D3E2044652B
:102DF000736361726761206465206461746F73201E
:102E000062696E61726961004553432065207920D3
:102E100064657675656C7665206C6F73206461748B
:102E20006F732064656C2065717569706F202D2D3E
:102E30003E205472616E736D697465206461746FB5
:102E4000732064656C2065717569706F000045536F
:102E5000432066202D2D3E20566572206C697374C8
:102E60006120646520636F6D616E646F730045530C
:102E7000432068202D2D3E205665722072656C6FB0
:102E80006A00455343206D202D2D3E20566572204B
:102E90006D656D6F726961207574696C697A6164C2
:102EA0006120792072657374616E7465000045530A
:102EB000432074202D2D3E2054726967676572206F
:102EC000706172612042757273740000496E67729E
:102ED00065736520656C206461746F206E756D6527
:102EE0007269636F3A200000496E677265736520EE
:102EF0006C6120646972656363696F6E3A200000DB
:102F00004461746F206573637269746F3A200000C6
:102F10004461746F206C6569646F3A2000005072E0
:102F20006F796563746F3A2041440000457175699B
:102F3000706F3A2020204151433031005665727342
:102F400069006E3A20200000322E31332E3200000C
:102F500046656368613A2020202031322F30372FB8
:102F60003230313400004175746F7265733A20203D
:102F70004C69632E204C6973616E64726F205261DC
:102F800076696F6C61202F20496E672E204775731C
:102F90007461766F205265616C005573756172695A
:0A2FA0006F3A2020554E4753000001
:00000001FF
