:100000000C9446000C94C60C18950000189500003E
:10001000189500001895000018950000189500002C
:10002000189500001895000018950000189500001C
:100030001895000018950000189500000C94430BCB
:1000400018950000189500000C94810A189500007E
:100050000C94160D189500001895000018950000D6
:100060000C94150C189500001895000018950000C8
:1000700018950000189500001895000018950000CC
:1000800018950000189500000C94D40B8FEF8DBFCD
:10009000C0EDE8EB4E2E80E48EBFD0E4F0E45F2E9E
:1000A000A89584B7082E877F84BF88E1992780931D
:1000B000600090936000EEEFFFE3A0E0B1E08827DE
:1000C0008D933197E9F783E38093C40080E08093B8
:1000D000C50088E18093C1006624E0E0FF2700812D
:1000E000A5E0B1E00C93A5E0B1E00C9103FB16F0A4
:1000F0000C948100709101017068709301010C945F
:100100008600709101017F77709301010E94641253
:1001100070E07093B90078E47093B80087E880933A
:100120007A0080E080937C0070917A007F777093F2
:100130007A0082E085BD80E084BD882785BD78E3B4
:1001400076BD80E08093800084E080938100809180
:100150008100887F809381008CED9BE090938500E7
:100160008093840080E08093900081E080939100F0
:1001700080919100887F8093910080E090E090933F
:100180009500809394003A9A3B9A3C983D98569AF1
:10019000579AF8947091010172607093010180E0A8
:1001A00080931001439AA1E0B1E08C9187FB16F097
:1001B0000C94EA00E8EEF7E20E9446130E94DF1179
:1001C0000E94EB118EE080930D018AE080930E0176
:1001D0000E949608ECEEF7E20E9446130E94DF119F
:1001E0000E94EB11EAEFF7E20E9446130E94DF1132
:1001F0000E94EB1142985E9A5F9881E080930A0119
:1002000000910A01083018F011F00C94170180E4F5
:1002100089B980E889B98DE790E00E945512AAE07B
:10022000B1E08C918F5F8C9310F40C9400010E94CC
:10023000FD0170916E00716070936E0070916F009F
:10024000716070936F0070917100716070937100B4
:100250008091C100806C8093C10070917A007860B9
:1002600070937A000E94490270917A0070687093CE
:100270007A0070917A00706470937A007091010135
:100280007D7F709301017894A2E0B1E08C9187FBAF
:1002900016F00C94B001709102017F777093020107
:1002A0003499FECF81E08093910000916501013384
:1002B00011F00C946201349BFECF80919100887FF5
:1002C0008093910000916501023311F00C946F014D
:1002D0003599FECF80919100887F80939100A6E8A8
:1002E000B1E10D911C912227332740E050E061E0FD
:1002F00070E00E94B912A4E9B1E10D931D932D9312
:100300003D93A4E9B1E10D911D912D913C91A4E99A
:10031000B0E04D915C91662777270E944F13A4E9C6
:10032000B1E10D931D932D933D93A4E9B1E10D919E
:100330001D912D913C914CE050E060E070E00E94F6
:10034000F811A4E9B1E14D935D936D937D93A0EA1B
:10035000B0E4E4E9F1E10E946F130E94D7115F9AC3
:10036000A1E0B1E08C9180FB16F00C94BE0170917D
:1003700001017E7F709301010E94CA08A1E0B1E0F3
:100380008C9182FB16F00C94FB01709101017B7F34
:100390007093010181E090E0AAE7B1E08D939C9316
:1003A000A4E8B1E14D915C91AAE7B1E00D911C91F7
:1003B0000417150718F011F00C94FA01AAE7B1E040
:1003C000AD90BD90A0E8B1E0AA0CBB1CAA0DBB1D6E
:1003D0008D919C91A8E7B1E08D939C9332E0A8E7C2
:1003E000B1E00E94E611AAE7B1E00E94AE1110F45C
:1003F0000C94D0015F9A0C944401882785BD8091AC
:100400009100887F80939100709101017F7D7093AE
:100410000101709101017E7F7093010170910101D2
:100420007F7B7093010170910101777F70930101CF
:10043000709101017B7F70930101709102017F77C0
:1004400070930201A1E0B1E08C9181FB16F40C9451
:100450003A0280918100887F8093810080E08093C0
:1004600063018FE080930D018091630180930E0101
:100470000E94960880E090E0ACE7B1E08D939C93F9
:1004800080E090E0A6E8B1E18D939C935E9A5F9A3C
:1004900008950E9470020E948E02A1E0B1E08C914A
:1004A00081FB81E00EF080E08F93009163010030CA
:1004B00081E009F080E09F918923882311F40C9456
:1004C000640200000C9466020E94AA03009163017A
:1004D000013011F00C946F0284E080938100089544
:1004E00081E00E94B31288E080930D010E94AA0867
:1004F00000910E01063011F40C9488020E94FD0157
:10050000EAE0F8E20E9446130E94DF110E94EB111C
:1005100081E0481A80E0580A2296089582E180938B
:100520000D010E94AA0880910E0180930901A9E0A3
:10053000B1E08C9184B98DE080930D010E94AA08EE
:1005400080910E018093080100910801013081E043
:1005500008F080E08F9300910801083080E010F0EF
:1005600009F081E09F91892B882311F40C94C40237
:1005700088E0809308018DE080930D01809108014F
:1005800080930E010E94960880E080930401709190
:1005900001017F7D70930101709101017E7F709355
:1005A0000101709101017F7B709301018FE08093C5
:1005B0000D010E94AA0880910E018093630180E1E1
:1005C00080930D010E94AA08AEE0B1E08C91AEE7E5
:1005D000B1E08D9388278C9398E0AEE7B1E00E945C
:1005E000091381E180930D010E94AA08AEE7B1E0F2
:1005F0000D911C91AEE0B1E04D915527042B152BC8
:10060000AEE7B1E00D931C9300E010E020E030E095
:10061000ACE8B1E10D931D932D933C938CE0809356
:100620000D010E94AA08ACE8B1E10D911D912D9138
:100630003C91AEE0B1E04C915527662777270E94A8
:100640004F13ACE8B1E10D931D932D933D9398E0CA
:10065000ACE8B1E10E9414138BE080930D010E947D
:10066000AA08ACE8B1E10D911D912D913C91AEE04D
:10067000B1E04C915527662777270E944F13ACE8CD
:10068000B1E10D931D932D933D9398E0ACE8B1E15A
:100690000E9414138AE080930D010E94AA08ACE81E
:1006A000B1E10D911D912D913C91AEE0B1E04C91E5
:1006B0005527662777270E944F13ACE8B1E10D93C9
:1006C0001D932D933D9398E0ACE8B1E10E94141383
:1006D00089E080930D010E94AA08ACE8B1E10D9178
:1006E0001D912D913C91AEE0B1E04C9155276627CC
:1006F00077270E944F13ACE8B1E10D931D932D9322
:100700003D934FEF5FE760E070E0ACE8B1E10D9141
:100710001D912D913C910E9459130CF402C00C9430
:100720009803709101017F7E709301010C94A903DD
:100730007091010170617093010180E08093630109
:100740008FE080930D018091630180930E010E94E0
:10075000960808958FEF80930E010E9422048FEF78
:1007600080930E010E9422040E94430781E080933F
:100770000F0100910F010A3018F011F00C94D5030D
:10078000AFE0B1E0AD90BB24A2E1B1E0AA0DBB1D8A
:100790008C9180930E010E942204AFE0B1E08C9115
:1007A0008F5F8C9310F40C94B90382E380930E0155
:1007B0000E94220480E380930E010E942204809113
:1007C0001D0180930E010E94220480911E018093DE
:1007D0000E010E942204AEE7B1E08C91AEE0B1E0E0
:1007E0008C930E942204AEE7B1E011968C91AEE0AA
:1007F000B1E08C930E9422048091080180930E0145
:100800000E9422048091090180930E010E9422041B
:100810008EE080930D010E94AA080E9422048FEFAF
:1008200080930E010E9422048FEF80930E010E949C
:1008300022048EE080930D0180E080930E010E94DF
:100840009608089570917A007F7770937A00A1E0FE
:10085000B1E08C9184FB16F40C94AC04ACE8B1E1EB
:100860000D911D912D913C91A8E8B1E10D931D933F
:100870002D933C930E94B704ACE8B1E10E94A11112
:10088000ACE8B1E10D911D912D913C91A0E9B1E150
:100890000D931D932D933C934FEF5FE760E070E065
:1008A000ACE8B1E10D911D912D913C910E9459133D
:1008B0000CF002C00C946D0480E0809363018FE023
:1008C00080930D018091630180930E010E94960830
:1008D0007091010170617093010189E080930D01B5
:1008E000009190114FEF0423AEE0B1E00C930E9411
:1008F00096088AE080930D0198E0A0E9B1E10E949A
:100900002513009190114FEF0423AEE0B1E00C935A
:100910000E9496088BE080930D0198E0A0E9B1E178
:100920000E942513009190114FEF0423AEE0B1E037
:100930000C930E9496088CE080930D0198E0A0E94A
:10094000B1E10E942513009190114FEF0423AEE016
:10095000B1E00C930E94960870917A0070687093D1
:100960007A0070917A00706470937A00089580EA3A
:1009700080930A0100910A0140911001042BAAE022
:10098000B1E00C93009188114FEF0423A2E1B1E094
:100990000C9398E0A8E8B1E10E94F612009188114A
:1009A0004FEF0423A1E1B1E00C9343980E947B1226
:1009B00010910A010E948512109111010E94851266
:1009C000109112010E94851210910E010E94851251
:1009D0000E947D128AE090E00E945512439A089589
:1009E00080EA80930A0100910A0140911001042BD2
:1009F000AAE0B1E00C93009188114FEF0423A2E12B
:100A0000B1E00C9398E0A8E8B1E10E94F6120091E1
:100A100088114FEF0423A1E1B1E00C930E947B12F7
:100A200010910A010E948512109111010E948512F5
:100A3000109112010E9485120E947B12AAE0B1E07F
:100A40008C918F5F8C9310910A010E9485120E94F5
:100A5000A212AEE0B1E01C930E947D12089580EADC
:100A600080930A0100910A0140911001042BAAE031
:100A7000B1E00C938FEF80930E01439800E010E0FB
:100A800020E030E0A8E8B1E10D931D932D933C9355
:100A9000A8E8B1E10D911D912D913C91A0E9B1E142
:100AA0000D931D932D933C93009190114FEF0423D0
:100AB000A2E1B1E00C9398E0A0E9B1E10E94F61246
:100AC000009190114FEF0423A1E1B1E00C930E943B
:100AD0007B1210910A010E948512109111010E944F
:100AE0008512109112010E94851280E080930D0101
:100AF00010910E010E948512ADE0B1E08C918F5FE4
:100B00008C93A8E8B1E10E94A11100910D0100347D
:100B100011F00C9478050E947D128AE090E00E940A
:100B2000551280E489B94FEF5FE760E070E0A8E814
:100B3000B1E10D911D912D913C910E9459131CF032
:100B400011F00C94A5050C94A7050C94A9050C9420
:100B50004805439A08958091130180930D01809177
:100B600017018093130180910D01809317018091EB
:100B7000140180930D0180911801809314018091DC
:100B80000D018093180180E080930D01ADE0B1E08C
:100B90008C918F5F8C9380910D0180930A01AAE064
:100BA000B1E08C918F5F8C93ADE0B1E0AD90BB2450
:100BB000A2E1B1E0AA0DBB1D0C914AE0049FAEE09A
:100BC000B1E00C9200910E01AAE0B1E0AD90BB241F
:100BD000A2E1B1E0AA0DBB1D4C91040FAEE0B1E063
:100BE0000C9300910D01043010F00C940406009158
:100BF0000E010B3318F011F00C9400060C94020651
:100C00000C943F070C946C06053011F00C941506FB
:100C100000910E01073118F011F00C9411060C949C
:100C200013060C943F070C946C06073011F00C94DB
:100C30002E0600910E010F3118F011F00C942206CF
:100C40000C9424060C943F0700910E01003011F023
:100C50000C942C060C943F070C946C06093011F090
:100C60000C94470600910E010C3018F011F00C9412
:100C70003B060C943D060C943F0700910E0100309A
:100C800011F00C9445060C943F070C946C060B3045
:100C900011F00C94550600910E01043111F40C94DE
:100CA00053060C943F070C946C060D3011F00C9415
:100CB0006C0600910E01033618F011F00C946206D8
:100CC0000C9464060C943F0700910E01003010F064
:100CD0000C946C060C943F07ADE0B1E08C918F5FF3
:100CE0008C9300910D010E3011F00C94C60580E03C
:100CF00080930D01ADE0B1E08C918F5F8C93ADE0FE
:100D0000B1E0AD90BB24A2E1B1E0AA0DBB1D8C9176
:100D100080930A0194E0AAE0B1E00E94E212ADE003
:100D2000B1E08C918F5F8C93ADE0B1E0AD90BB24CE
:100D3000A2E1B1E0AA0DBB1D8C9180930E01009140
:100D40000A0140910E01042BADE0B1E0AD90BB244F
:100D5000A2E1B1E0AA0DBB1D0C9300910D010D3075
:100D600018F011F00C94B6060C947A0680E080938B
:100D70000D0180ED80930A0180E880930E010E94AE
:100D80007B1210910A010E94851210910D010E94A0
:100D9000851210910E010E9485120E947D1284E03E
:100DA00080930C0181E080930D0180ED80930A0116
:100DB000ACE0B1E0AD90BB24A2E1B1E0AA0DBB1D57
:100DC0008C9180930E010E947B1210910A010E9467
:100DD000851210910D010E94851210910E010E9442
:100DE00085120E947D12ACE0B1E08C918F5F8C93F4
:100DF000ACE0B1E08C918F5F8C93ADE0B1E08C9171
:100E00008F5F8C9300910D01033011F00C940D074E
:100E1000ADE0B1E08C918F5F8C9300910D010630B5
:100E200011F00C941D07ACE0B1E08C918F5F8C93B6
:100E3000ACE0B1E08C918F5F8C9300910D01073095
:100E400011F00C94D80680E080930D01809114017C
:100E500080930E010E947B1210910A010E9485125C
:100E600010910D010E94851210910E010E948512B1
:100E70000E947D1280E0809303010C94420781E080
:100E800080930301089581E080930C0180E08093BA
:100E90000D0180ED80930A010E947B1210910A01DE
:100EA0000E94851210910D010E9485120E947B12F2
:100EB000AAE0B1E08C918F5F8C9310910A010E949F
:100EC00085120E94A412AEE0B1E01C9300910D01C6
:100ED000033011F40C94A70700910E014FE0042396
:100EE000AAE0B1E00C93AAE0B1E08C91805D8C9314
:100EF00094E0AEE0B1E00E94EC12AEE0B1E08C9183
:100F00008F708C93AEE0B1E08C91805D8C9380917A
:100F10000E01ACE0B1E0AD90BB24A2E1B1E0AA0DBE
:100F2000BB1D8C93ACE0B1E08C918F5F8C93809172
:100F30000A01ACE0B1E0AD90BB24A2E1B1E0AA0DA2
:100F4000BB1D8C93ACE0B1E08C918F5F8C93ADE0D6
:100F5000B1E08C918F5F8C9300910D01063011F000
:100F60000C9461070E94A212AEE0B1E01C930091C4
:100F70000E014FE00423AAE0B1E00C93AAE0B1E037
:100F80008C91805D8C9394E0AEE0B1E00E94EC1215
:100F9000AEE0B1E08C918F708C93AEE0B1E08C91BB
:100FA000805D8C9380910E01ACE0B1E0AD90BB24EC
:100FB000A2E1B1E0AA0DBB1D8C93ACE0B1E08C9135
:100FC0008F5F8C9380910A01ACE0B1E0AD90BB24BF
:100FD000A2E1B1E0AA0DBB1D8C930E947D1280910D
:100FE000130180930D01809117018093130180916B
:100FF0000D01809317018091140180930D01809160
:1010000018018093140180910D01809318010895B7
:1010100080E080930D01ADE0B1E08C918F5F8C9307
:1010200080910D0180930A01AAE0B1E08C918F5F5D
:101030008C9300910D010B3011F00C942508E0E227
:10104000F8E20E9446130E94DF11ADE0B1E0AD90DE
:10105000BB24A2E1B1E0AA0DBB1D8C91A8E9B1E1CE
:101060008D9388278C93A8E9B1E10E94D911AAE059
:10107000B1E0AD90BB24A2E1B1E0AA0DBB1D8C9103
:10108000A8E9B1E18D9388278C93A8E9B1E10E948A
:10109000D91100910D01013011F00C945708E4E2D0
:1010A000F8E20E9446130E94DF110C948508033079
:1010B00011F00C946308E4E2F8E20E9446130E94E7
:1010C000DF110C948508053011F00C946F08E6E2EE
:1010D000F8E20E9446130E94DF110C948508073045
:1010E00011F00C947B08E8E2F8E20E9446130E949B
:1010F000DF110C948508093011F00C948508E8E2A2
:10110000F8E20E9446130E94DF11ADE0B1E08C913D
:101110008F5F8C9300910D010B3018F011F00C943F
:1011200093080C940B080E94EB11089580ED8093B6
:101130000A010E947B1210910A010E9485121091EF
:101140000D010E94851210910E010E9485120E94CD
:101150007D12089580ED80930A010E947B12109108
:101160000A010E94851210910D010E9485120E94B1
:101170007B12AAE0B1E08C918F5F8C9310910A01F1
:101180000E9485120E94A212AEE0B1E01C930E9460
:101190007D12089581E00E94B31281E0A881B98197
:1011A0008C9340910801A881B9810C91041718F023
:1011B00011F00C94F808A881B981AD90BB24A4E685
:1011C000B1E0AA0CBB1CAA0DBB1D8D919C91A8E798
:1011D000B1E08D939C9332E0A8E7B1E00E94E61164
:1011E000A881B9818C918F5F8C9310F40C94D108F5
:1011F00081E0481A80E0580A22960895EAE2F8E26F
:101200000E9446130E94DF11A0EAB0E4ECE8F1E18D
:101210000E946F130E94D711E2E4F8E20E94461385
:101220000E94DF110E94EB110FEF1FE720E030E07A
:10123000ACE8B1E14D915D916D917C910E945413A8
:10124000A8E8B1E10D931D932D933D93EAE4F8E2F4
:101250000E9446130E94DF11A0EAB0E4E8E8F1E141
:101260000E946F130E94D711E2E4F8E20E94461335
:101270000E94DF110E94EB110895E89886E4482F40
:1012800000916401041711F00C944D0980916900DC
:101290008C7F826080936900E89A82E5482F0091F4
:1012A0006401041711F00C945B098091690083605C
:1012B00080936900E89A08950E94EB11E2E6F8E253
:1012C0000E9446130E94DF110E94EB110E94EB1155
:1012D000E4E8F8E20E9446130E94DF110E94EB113D
:1012E0000E94EB11E8EAF8E20E9446130E94DF1127
:1012F0000E94EB110E94EB11E0EDF8E20E94461310
:101300000E94DF110E94EB110E94EB11E0E0F9E274
:101310000E9446130E94DF110E94EB110E94EB1104
:10132000E4E5F9E20E9446130E94DF110E94EB11EE
:101330000E94EB11E8EAF9E20E9446130E94DF11D5
:101340000E94EB11ECE3FAE20E9446130E94DF11C7
:101350000E94EB11ECEAFAE20E9446130E94DF11B0
:101360000E94EB110E94EB11EAEEFAE20E94461392
:101370000E94DF110E94EB110E94EB11E0E4FBE2FE
:101380000E9446130E94DF110E94EB110E94EB1194
:10139000E8E6FBE20E9446130E94DF110E94EB1177
:1013A0000E94EB11E8EBFBE20E9446130E94DF1162
:1013B0000E94EB11EAEEFBE20E9446130E94DF114D
:1013C0000E94EB11ECE2FCE20E9446130E94DF1146
:1013D0000E94EB110E94EB11E2E5FCE20E94461331
:1013E0000E94DF110E94EB110E94EB11E2E9FCE286
:1013F0000E9446130E94DF110E94EB110E94EB1124
:10140000EEEAFCE20E9446130E94DF110E94EB11FB
:101410000E94EB11E6EFFCE20E9446130E94DF11EE
:101420000E94EB11ECE2FCE20E9446130E94DF11E5
:101430000E94EB110E94EB11E0E4FDE20E944613D2
:101440000E94DF110E94EB110E94EB11ECE5FDE21E
:101450000E9446130E94DF110E94EB110E94EB11C3
:10146000E0EAFDE20E9446130E94DF110E94EB11A8
:101470000E94EB11E0EFFDE20E9446130E94DF1193
:101480000E94EB110E94EB11EAE3FEE20E94461378
:101490000E94DF110E94EB110E94EB11EEE5FEE2CB
:1014A0000E9446130E94DF110E94EB110E94EB1173
:1014B000E4EAFEE20E9446130E94DF110E94EB1153
:1014C0000E94EB11E4ECFEE20E9446130E94DF1141
:1014D0000E94EB110E94EB11E8EDFEE20E94461320
:1014E0000E94DF110E94EB110E94EB11E4E0FFE289
:1014F0000E9446130E94DF110E94EB110E94EB1123
:1015000008950F921F922F923F924F925F927F9277
:10151000AF92BF920F931F932F933F934F935F937D
:101520006F937F938F939F93AF93BF93CF93DF93EB
:10153000EF93FF938FB78F938BB78F9388278BBFD2
:1015400078E376BD80E889B9ACE7B1E00E94AE11DE
:10155000A0E8B1E04D915C91ACE7B1E00D911C9138
:101560000417150711F00C94250B80E090E0ACE710
:10157000B1E08D939C93A1E0B1E08C9183FB16F0D8
:101580000C94190BA2E8B1E10D911C91083F57E0B2
:10159000150710F00C94FE0A81E080930B01409136
:1015A000080100910B01041718F011F00C94FC0ACB
:1015B000ABE0B1E0AD90BB24A4E6B1E0AA0CBB1C4B
:1015C000AA0DBB1D8D919C91A2E8B1E1AD90BD909B
:1015D000A0E8B1E0AA0CBB1CAA0DBB1D8D939C9387
:1015E000A2E8B1E10E94AE11ABE0B1E08C918F5F57
:1015F0008C9310F40C94CF0A0C94170B882785BD9C
:10160000A2E8B1E10D911C9141E050E0041B150BE3
:10161000A4E8B1E10D931C9381E090E0A2E8B1E170
:101620008D939C93709101017460709301010C94EF
:10163000250BA1E0B1E08C9185FB16F00C94250BF5
:10164000709101017160709301018F918BBF8F9137
:101650008FBFFF91EF91DF91CF91BF91AF919F919C
:101660008F917F916F915F914F913F912F911F913A
:101670000F91BF90AF907F905F904F903F902F90D1
:101680001F900F9018950F921F922F923F924F929A
:101690005F927F92AF92BF920F931F932F933F93CE
:1016A0004F935F936F937F938F939F93AF93BF936A
:1016B000CF93DF93EF93FF938FB78F938BB78F9376
:1016C00088278BBF8CED9BE09093850080938400EE
:1016D00080E889B9ACE7B1E00E94AE11AEE7B1E0B5
:1016E0004D915C91ACE7B1E00D911C910417150789
:1016F00011F00C94B60B80E090E0ACE7B1E08D9374
:101700009C9381E080930B014091080100910B01B3
:10171000041718F011F00C94B60BABE0B1E0AD90EB
:10172000BB24A4E6B1E0AA0CBB1CAA0DBB1D8C9186
:10173000AEE0B1E08C930E942204ABE0B1E0AD904A
:10174000BB24A4E6B1E0AA0CBB1CAA0DBB1D1196DC
:101750008C91AEE0B1E08C930E942204ABE0B1E04A
:101760008C918F5F8C9310F40C94840B8F918BBFB2
:101770008F918FBFFF91EF91DF91CF91BF91AF918B
:101780009F918F917F916F915F914F913F912F9199
:101790001F910F91BF90AF907F905F904F903F90BF
:1017A0002F901F900F9018950F921F922F923F929B
:1017B0004F925F927F92AF92BF920F931F932F939E
:1017C0003F934F935F936F937F938F939F93AF93C9
:1017D000BF93CF93DF93EF93FF938FB78F938BB725
:1017E0008F9388278BBFA6E8B1E10E94AE118F913D
:1017F0008BBF8F918FBFFF91EF91DF91CF91BF9101
:10180000AF919F918F917F916F915F914F913F9198
:101810002F911F910F91BF90AF907F905F904F904D
:101820003F902F901F900F9018950F921F922F921C
:101830003F924F925F927F92AF92BF920F931F930E
:101840002F933F934F935F936F937F938F939F93C8
:10185000AF93BF93CF93DF93EF93FF938FB78F93A4
:101860008BB78F9388278BBFA6E0B1E080917C0077
:101870008C93A6E0B1E08C91887F8C930091060157
:1018800040910401042BA6E0B1E00C93A6E0B1E086
:101890008C9180937C00A6E0B1E0809178008C93DD
:1018A00080917900A4E0B1E0AD90BB24A6E6B1E060
:1018B000AA0CBB1CAA0DBB1D8D9388278C9300918D
:1018C00006010F3F11F00C94680C8EEF8093060117
:1018D00098E0A4E0B1E0AD90BB24A6E6B1E0AA0C8C
:1018E000BB1CAA0DBB1D0E940913A4E0B1E0AD9082
:1018F000BB24A6E6B1E0AA0CBB1CAA0DBB1D0D9132
:101900001C91A6E0B1E04D915527042B152BA4E0C6
:10191000B1E0AD90BB24A6E6B1E0AA0CBB1CAA0DB9
:10192000BB1D0D931C93A4E0B1E08C918F5F8C9351
:101930004091080100910401041710F40C94A30CC9
:1019400080E08093040170917A00706470937A0053
:101950008F918BBF8F918FBFFF91EF91DF91CF91CF
:10196000BF91AF919F918F917F916F915F914F91B7
:101970003F912F911F910F91BF90AF907F905F90FB
:101980004F903F902F901F900F9018950F921F929D
:101990002F923F924F925F927F92AF92BF920F939E
:1019A0001F932F933F934F935F936F937F938F93E7
:1019B0009F93AF93BF93CF93DF93EF93FF938FB733
:1019C0008F938BB78F9388278BBFA1E0B1E08C9169
:1019D00083FB16F00C94F80C882785BD80E090E01E
:1019E000ACE7B1E08D939C9378E376BD82E085BD52
:1019F0008F918BBF8F918FBFFF91EF91DF91CF912F
:101A0000BF91AF919F918F917F916F915F914F9116
:101A10003F912F911F910F91BF90AF907F905F905A
:101A20004F903F902F901F900F9018950F921F92FC
:101A30002F923F924F925F927F92AF92BF920F93FD
:101A40001F932F933F934F935F936F937F938F9346
:101A50009F93AF93BF93CF93DF93EF93FF938FB792
:101A60008F938BB78F9388278BBF0E94CA11A7E0F3
:101A7000B1E08C9300910701003011F40C948111B6
:101A8000009107010B3111F00C945D0DA1E0B1E064
:101A90008C9186FB16F40C94550D709101017064C5
:101AA000709301015E980C945B0D709101017F7B36
:101AB000709301015E9A0C948111A1E0B1E08C91C8
:101AC00086FB16F00C948111709101017F7B70935D
:101AD000010180E08093030100910701013311F0BF
:101AE0000C94DC0D0E94EB11E2E2FFE20E9446132F
:101AF0000E94DF1133E00E94B511A0EAB0E40E9419
:101B0000C513AEE0B1E00C93EEE3FFE20E94461392
:101B10000E94DF113CE00E94B511A0EAB0E40E94EF
:101B2000C513A0E9B1E10D931D932D933D930E9440
:101B3000EB11E6E5FFE20E9446130E94DF11A0EAE6
:101B4000B0E4EEE0F1E00E947B130E94D7110E9406
:101B5000EB11A0E9B1E10D911D912D913C91A8E807
:101B6000B1E10D931D932D933C930E94B70480E047
:101B700080930E01A0E9B1E10D911D912D913C9151
:101B8000A8E8B1E10D931D932D933C930E94F004BE
:101B9000E6E6FFE20E9446130E94DF11A0EAB0E4ED
:101BA000EEE0F1E00E947B130E94D7110E94EB113E
:101BB0000E94EB110C948011093311F00C94EC0D80
:101BC0000E94D011A7E0B1E08C9331E0A7E0B1E032
:101BD0000E94E6110C948011013411F00C94280E2F
:101BE0000E94D011A7E0B1E08C930091070100336F
:101BF00080E010F009F081E08F9300910701093334
:101C000081E008F080E09F918923882311F40C94EF
:101C10001C0E0091070140E3041BA8E0B1E00C9307
:101C20008DE080930D018091080180930E010E9448
:101C3000960880E0809304018EE080930D0189E096
:101C400080930E010E9496080E9449020C94801114
:101C5000023411F00C94830E36E00E94B511A0EA14
:101C6000B0E40E94C513A8E7B1E00D931C93A8E768
:101C7000B1E00D911C91003050E0150780E010F0AC
:101C800009F081E08F9340E050E061E070E0A8E768
:101C9000B1E00D911C91222733270E94591380E057
:101CA0000CF481E09F918923882311F40C94770E22
:101CB000A8E7B1E08D919C91AEE7B1E08D939C9344
:101CC00080E180930D01AEE7B1E011968C91AEE01A
:101CD000B1E08C930E94960881E180930D01AEE7FC
:101CE000B1E08C91AEE0B1E08C930E9496088EE05A
:101CF00080930D0182E080930E010E9496080E945D
:101D000049020C948011033411F00C94AC0E0E9423
:101D1000D011A5E6B1E08C9331E0A5E6B1E00E94D8
:101D2000E6110E94FD0180E090E0A6E8B1E18D930C
:101D30009C9380E090E09093950080939400809134
:101D40009100887F809391005F9870910201706884
:101D5000709302010C948011043411F00C94C40EA1
:101D60000E94D011A9E0B1E08C93A9E0B1E08C9180
:101D700084B982E180930D018091090180930E0165
:101D80000E9496080C948011083411F00C94050FF1
:101D900081E080930D0100910D010E3018F011F0DB
:101DA0000C94EF0E0E94D011AAE0B1E08C93AAE04F
:101DB000B1E08C9180538C9380910A01ADE0B1E049
:101DC000AD90BB24A2E1B1E0AA0DBB1D8C93ADE0A8
:101DD000B1E08C918F5F8C9310F40C94CB0E0E9429
:101DE000AB0586E080930E0188E080930D010E9490
:101DF00096088EE080930D0185E080930E010E948D
:101E000096080E9449020C948011093411F00C9438
:101E1000950FF89480E0809363018FE080930D012B
:101E20008091630180930E010E9496088AE090E001
:101E3000AEE7B1E08D939C9380E180930D01AEE716
:101E4000B1E011968C91AEE0B1E08C930E949608BF
:101E500081E180930D01AEE7B1E08C91AEE0B1E09D
:101E60008C930E94960800E010E020E030E0ACE89F
:101E7000B1E10D931D932D933C93ACE8B1E10D912D
:101E80001D912D913C91A0E9B1E10D931D932D93EE
:101E90003C9389E080930D01009190114FEF042352
:101EA000AEE0B1E00C930E9496088AE080930D01A9
:101EB00098E0A0E9B1E10E942513009190114FEF45
:101EC0000423AEE0B1E00C930E9496088BE080936F
:101ED0000D0198E0A0E9B1E10E9425130091901155
:101EE0004FEF0423AEE0B1E00C930E9496088CE023
:101EF00080930D0198E0A0E9B1E10E9425130091C3
:101F000090114FEF0423AEE0B1E00C930E949608CD
:101F10008EE080930D0181E080930E010E9496086F
:101F20000E94490278940C9480110F3411F00C94A3
:101F3000BA0F0E94D011A4E6B1E08C9336E00E9463
:101F4000B511A0EAB0E40E94C513A0E8B1E00D937A
:101F50001C930E94FD017091010178607093010152
:101F600081E090E0A2E8B1E18D939C930E943D094D
:101F70000C948011003511F00C94C20F0E94FD01E9
:101F80000C948011023511F00C94EF0F0E94FD01AA
:101F90008CED9BE0909385008093840081E080939A
:101FA00063018FE080930D018091630180930E01A6
:101FB0000E9496088EE080930D0188E080930E01C8
:101FC0000E9496080E94490280E090E0ACE7B1E0F0
:101FD0008D939C9384E0809381000C948011033551
:101FE00011F00C94FF0F0E94D011A7E0B1E08C9388
:101FF00004B140910701042305B90C948011043504
:1020000011F00C94211036E00E94B511A0EAB0E462
:102010000E94C513A0E8B1E00D931C930E94FD013E
:1020200080E090E0ACE7B1E08D939C9378E376BDDF
:102030007091010170627093010182E085BD0C9482
:102040008011093511F00C943E100E94D011A7E0C8
:10205000B1E08C9388E4482F00910701041711F038
:102060000C943310429884E4482F00910701041720
:1020700011F00C943C10429A0C9480110A3511F026
:102080000C945510F89474B7777F74BF88E18093EF
:10209000600080E0809360008091600088608093A1
:1020A00060000C9451100C948011013611F00C94C6
:1020B0005D100E94CA080C948011023611F00C9435
:1020C00084100E94D011A7E0B1E08C930091070129
:1020D00040E3041BAAE0B1E00C93AAE0B1E0AD90AC
:1020E000BB24A4E6B1E0AA0CBB1CAA0DBB1D8D91BC
:1020F0009C91A8E7B1E08D939C9332E0A8E7B1E012
:102100000E94E6110C948011033611F00C948F108C
:1021100031E0A3E2B0E00E94E6110C948011043695
:1021200011F00C94F31080918100887F80938100DE
:10213000882785BD70917A007F7770937A0000E0E0
:1021400010E020E030E0A0E9B1E10D931D932D9364
:102150003C93ACE8B1E14D915D916D917C91A0E92A
:10216000B1E10D911D912D913C910E9459130CF4F8
:1021700002C00C94D410A0E9B1E10D911D912D91F4
:102180003C91A8E8B1E10D931D932D933C930E94DF
:10219000F00431E0AEE0B1E00E94E611A0E9B1E167
:1021A0000E94A1110C94A9108EE080930D0183E090
:1021B00080930E010E9496080E94490270917A0055
:1021C000706870937A0070917A00706470937A00EE
:1021D00000916301013011F00C94F11084E08093C0
:1021E00081000C948011053611F00C943C11ECEE3A
:1021F000F7E20E9446130E94DF110E94EB11EAEF02
:10220000F7E20E9446130E94DF110E94EB11E4E7FF
:10221000FFE20E9446130E94DF1182EA0E94EE1143
:10222000EAE7FFE20E9446130E94DF11A0EAB0E451
:10223000E0E8FFE20E9446130E94DC120E94D711E0
:102240000E94EB11E8E8FFE20E9446130E94DF11B2
:102250000E94EB11EEE9FFE20E9446130E94DF119B
:102260000E94EB11E2EDFFE20E9446130E94DF1193
:102270000E94EB110C948011063611F00C9444115D
:102280000E945C090C948011083611F00C944E11D8
:102290000E9443070E9408080C9480110D3611F02B
:1022A0000C9456110E94FE080C948011043711F012
:1022B0000C947C11A1E0B1E08C9183FB81E00EF0E5
:1022C00080E08F9380E5482F00916401041781E03E
:1022D00009F080E09F918923882311F40C947A11EE
:1022E00080E090E0ACE7B1E08D939C9378E376BD1D
:1022F00082E085BD0C9480118EE4A3E0B1E08C9364
:102300005E9A8F918BBF8F918FBFFF91EF91DF917D
:10231000CF91BF91AF919F918F917F916F915F917D
:102320004F913F912F911F910F91BF90AF907F9050
:102330005F904F903F902F901F900F901895F894BA
:10234000FFCF0D911D912D913C910F5F1F4F2F4F8E
:102350003F4F3C932E931E930E930895ED91FC9165
:10236000EF5FFF4FFC93EE930895A0EAB0E418D01E
:102370008D3039F03323D9F38D933A9563FE2ED007
:10238000F6CF63FC04C08DE029D08AE027D08827EF
:102390008C93089588270090C00007FE089500C020
:1023A0008091C00087FFFCCF8091C6000895A0EA0D
:1023B000B0E48D91882311F011D0FBCF08950E94D5
:1023C0003613802D11F00AD0FACF08958D9106D0E2
:1023D0003A95E1F708958DE001D08AE00090C000C1
:1023E00005FEFCCF8093C600089500FC05D008953B
:1023F00030D005D001F8F9CF37D03FD00895842FE1
:10240000952FA62FB72FE894452B462B472B11F479
:1024100068940895402F512F622F732F00271127A2
:1024200022273327F0E2440F551F661F771F001F36
:10243000111F221F331F081B190B2A0B3B0B416076
:1024400028F4080F191F2A1F3B1F4E7FFA9559F7D2
:1024500008950024E89477FF02C006D0689400F83D
:1024600009D010F80124089512D04F5F5F4F6F4FCD
:102470007F4F0895E89437FF0895009510952095B3
:1024800030950F5F1F4F2F4F3F4F68940895409531
:1024900050956095709508953197F1F70895689477
:1024A00062F80895E89462F80895EF93FF93EE2799
:1024B000E82BE92B31F0E0EAFFE03197F1F70197E3
:1024C000D1F7FF91EF91089539983898419A409A41
:1024D000089568944093BC008F939F938827992711
:1024E000019629F04091BC0047FFFACFE8949F91F4
:1024F0008F9162F8089544EAECCF44E94093BC0020
:102500004091BC0047FDFCCF08951093BB0044E808
:10251000E0DF8F939F9388279927019671F0409170
:10252000B900487F483FC9F3E894483139F0483250
:1025300029F0403419F0403509F068949F918F914B
:1025400062F8089544E801C044ECC3DF1091BB0079
:102550004091B900487F483FD9F308955A924A9272
:10256000480E591E08955A924A92480E8827581EBE
:1025700008950F921F922F92C801D901489F8001A0
:102580004A9F90014B9F202C499F100D211D321D09
:102590005A9F202C589F100D211D321D599F200D30
:1025A000311D689F200D311D699F300D789F300DC2
:1025B0002F901F900F9008950E9436130D920020C7
:1025C000D9F70895903039F08C91880F08F4816024
:1025D0009A95D9F78C930895903039F08C9186951F
:1025E00008F480689A95D9F78C930895903081F01B
:1025F0000D911D912D913C91369527951795079535
:1026000008F430689A95C1F73C932E931E930E936D
:102610000895903041F00D911C91000F111F9A9573
:10262000E1F71C930E930895903071F00D911D9178
:102630002D913C91000F111F221F331F9A95D1F746
:102640003C932E931E930E930895903071F00D914C
:102650001D912D913C9136952795179507959A9543
:10266000D1F73C932E931E930E930895D8953196EF
:1026700028F48F938BB783958BBF8F91002008959B
:102680000F9301E00BBF0F91889408950F930027DB
:10269000F9CF0F9302E0F6CF0F9303E0F3CF040FCF
:1026A000151F261F371F0895041B150B260B370B0C
:1026B000089504171507260737070895000F111FFF
:1026C000221F331F089500951095209530950F5FB8
:1026D0001F4F2F4F3F4F0895019110810EC0019160
:1026E0001191219130810BC00191108117FF05C01C
:1026F0003FEF2FEF04C0008111272227332737FF38
:1027000003C0E1DF8DE28D93CF93DF93CF92DF9211
:10271000EF92AA24BB24CC24DD24EE2440E2CAE0BC
:10272000DD2755E093E38881890F87FD9F7083FD46
:10273000907F891B89935A95A9F7C0DFAA1CBB1CFF
:10274000CC1CDD1CEE1C4A9551F7E894EFE0FF2706
:1027500082910ED0EB30E0F71EF068948A2D0CD0F9
:1027600088278D93EF90DF90CF90DF91CF910895E0
:10277000982F829501D0892F8F70805D26F080334D
:1027800009F4089568948D9308950027112722274E
:1027900033271DD08A3328F4803318F005D015D0A4
:1027A000F9CF0EF490CF089580538F93402F512F7F
:1027B000622F732F83DF82DF72DF80DF8F91992793
:1027C000080F191F291F391F08958D910895E89446
:1027D000FCDF8032E9F38B32D9F38930C9F38D32D3
:1027E00011F46894F2CF08955744000050726F7945
:1027F0006563746F3A204144000045717569706FDC
:102800003A20202041514330310052656C6F6A20DC
:102810006E6F20696E696369616C697A61646F00CB
:10282000323000003A0020002F004D656D6F726954
:1028300061207574696C697A616461202D2D3E2078
:10284000000020627974657300004D656D6F7269D8
:10285000612072657374616E7465202D2D2D3E208C
:1028600000004269656E76656E69646F2061206C58
:102870006120617975646120646520636F6D616EAC
:10288000646F73004553432030202D2D3E20546546
:102890007374656F20646520737461636B73207952
:1028A000206672616D6500004553432031202D2D57
:1028B0003E2047726162612079206C656520756EEB
:1028C000206461746F20656E206C612045320000C9
:1028D0004553432039203C636861723E202D2D3ED4
:1028E0002045636F20646520756E206361726163AB
:1028F000746572206375616C717569657261000041
:102900004553432041203C43616E745F63616E61B7
:102910006C3E202D2D3E2052656369626520636107
:102920006E74696461642064652063616E616C65C6
:102930007320616E616CF36769636F733A203C4387
:10294000616E745F63616E616C3E2064652031204E
:10295000612038004553432042203C545F72656734
:102960003E203044203041202D2D3E2052656369A9
:102970006265207469656D706F206465207265679B
:10298000697374726F20656E20736567756E646F0E
:10299000733A203C545F7265673E206465203120A5
:1029A00061203635353335004553432043203C62A2
:1029B0007974653E202D2D3E204D69646520746933
:1029C000656D706F20656E74726520646F7320731F
:1029D00065F1616C657320656E20756E206D69739D
:1029E0006D6F2070696E202850696E432E342C2044
:1029F00066616C6C696E67207920726973696E67B5
:102A0000206564676529206F20656E747265206497
:102A10006F732070696E6573202850696E432E3481
:102A20002066616C6C696E672020792050696E4366
:102A30002E352066616C6C696E672900202020208D
:102A4000202020202020202020202020203C6279CF
:102A500074653E202D2D3E20203C307833313E20C1
:102A60007061726120537461727420792053746FA5
:102A70007020656E2050696E432E34207C7C203C93
:102A8000307833323E207061726120537461727409
:102A900020656E2050696E432E3420792053746F68
:102AA0007020656E2050696E432E35002020202056
:102AB0002020202020202020202020202044657657
:102AC00075656C766520656C206C6170736F206431
:102AD00065207469656D706F20656E20757365671C
:102AE00020284153434949290000455343204420AD
:102AF0003C627974653E202D2D3E205265636962EB
:102B00006520656C20736574656F2064656C207347
:102B1000656E7469646F206465206C6F73206361F7
:102B20006E616C6573206469676974616C6573209C
:102B300028313D53414C2C20303D454E5429000056
:102B400045534320482068686D6D737344444D4D70
:102B500041414141202D2D3E20536574656F206415
:102B60006520686F726100004553432049202D2D78
:102B70003E20426F727261646F206465206D656DE6
:102B80006F72696120792054726567203D2035732A
:102B90006567207C7C205469656D706F20646520BA
:102BA000726567697374726F2064656661756C74B1
:102BB0003A20363073656700455343204F203C74FC
:102BC0007269676765723E203C696E7465727661F2
:102BD0006C6F3E203044203041202D2D3E204D6F23
:102BE000646F204275727374000020202020202022
:102BF000547269676765723A202752273D496E749F
:102C0000302F726973696E672065646765207C7C0C
:102C1000202746273D496E74302F66616C6C696EC3
:102C200067207C7C202750273D5043002020202017
:102C30002020496E74657276616C6F3A20283120CD
:102C400061203635353335292078203130307573A1
:102C500000004553432050202D2D3E2044657368CD
:102C60006162696C69746120746F646F73206C6F4A
:102C700073206D6F646F73202D2D3E20536F6C6F2A
:102C80002065736375636861206C61205253323331
:102C900032004573632052202D2D3E204861626929
:102CA0006C69746120726567697374726F00455353
:102CB000432053203C627974653E202D2D3E2053E5
:102CC00065746561206C61732073616C6964617304
:102CD000206465206163756572646F2061206C6F8C
:102CE000207175652072656369626520706F72205E
:102CF0005253323332004553432054203C496E74C2
:102D0000657276616C6F3E202D2D3E2048616269B0
:102D10006C697461207472616E736D697369F36EAE
:102D2000206465206461746F7320636F6E74696ED4
:102D3000756F20636F6E207265746172646F00003E
:102D4000455343205A202D2D3E2052657365742033
:102D500064656C2065717569706F00004553432090
:102D600061202D2D3E205472616E736D6974652053
:102D70006461746F7320646520746F646F73206C7A
:102D80006F732063616E616C657320616E616CF3BB
:102D90006769636F7320737465746561646F730032
:102DA0004573632062203C43616E616C3E202D2D93
:102DB0003E205472616E736D69746520656C2043AA
:102DC000616E616C20416E616CF36769636F2053C3
:102DD0006F6C6963697461646F207C7C203C436123
:102DE0006E616C3E20446520312061203820000057
:102DF000455343206320792064657675656C76655C
:102E0000203C627974653E202D2D3E205472616E07
:102E1000736D6974652065737461646F7320646594
:102E2000206C6F7320382063616E616C6573206461
:102E300069676974616C65730000455343206420C1
:102E40002D2D3E20446573636172676120646520A7
:102E50006461746F732062696E61726961004553C9
:102E600043206520792064657675656C7665206CF5
:102E70006F73206461746F732064656C2065717575
:102E800069706F202D2D3E205472616E736D6974D0
:102E900065206461746F732064656C206571756969
:102EA000706F00004553432066202D2D3E2056654F
:102EB00072206C6973746120646520636F6D616E4C
:102EC000646F73004553432068202D2D3E205665C6
:102ED000722072656C6F6A00455343206D202D2D62
:102EE0003E20566572206D656D6F72696120757444
:102EF000696C697A61646120792072657374616EAE
:102F0000746500004553432074202D2D3E205472DB
:102F100069676765722070617261204275727374AF
:102F20000000496E677265736520656C206461748A
:102F30006F206E756D657269636F3A200000496E8F
:102F40006772657365206C6120646972656363698B
:102F50006F6E3A2000004461746F2065736372697C
:102F6000746F3A2000004461746F206C6569646F6F
:102F70003A2000005665727369006E3A2020000006
:102F8000322E31322E33000046656368613A2020CC
:102F9000202030392F30372F323031340000417546
:102FA000746F7265733A20204C69632E204C6973EC
:102FB000616E64726F20526176696F6C61202F20A0
:102FC000496E672E204775737461766F2052656174
:102FD0006C005573756172696F3A2020554E4753E6
:022FE0000000EF
:00000001FF
